:08000000803102288731EB2F4B
:10000A007108F3007008F2000E280130F207003080
:10001A00F33D72088600730887000108031D16283D
:10002A0017280A2870087202F0007108733BF10061
:10003A00080023280130F6070030F73D76088600CD
:10004A00770887002030010603192C282D281F283D
:10005A0076088600770887000930010603193628D2
:10006A0037281F28FB01FC01FA0176088600770869
:10007A0087002D300106031D432844284B280130F0
:10008A00FA070130F6070030F73D72287608860035
:10009A00770887002B300106031D5428552872283B
:1000AA00462876088600770887007C08F1007B08D6
:1000BA00F0000A30F2000030F3008A3174228031F5
:1000CA0001087007F8000030713DF9007808D03E49
:1000DA00FB00FF30793DFC00462876088600770849
:1000EA00870001088A312F22803103187D287E2853
:1000FA0056287A080319822883288F287B09F80052
:10010A007C09F900F80A0319F90A7808F60079084F
:10011A00F70093287C08F7007B08F6000800A20184
:10012A00A301B328210023082000AF0021002208E0
:10013A002000AE00AE35AF0D3430B0002130B10032
:10014A002E08300786002F08313D87000030C03F57
:10015A00C13F01302100A2070030A33D2308803AA5
:10016A002000AE006D08803A2E02031DBF286C08DD
:10017A0021002202031CC228C32897282100B801A3
:10018A00B9012C2900302000A200A300DA30A40013
:10019A009030A5008C313F248031200023082100B3
:1001AA00C000200022082100BF003F0840040319B4
:1001BA00DF28E0281F294008F7003F08F6008031B1
:1001CA001E208031210039082000AF0021003808A4
:1001DA002000AE00AE35AF0D3430B0002130B10092
:1001EA002E08300786002F08313D87007608C03F69
:1001FA007708C13F8630A0009030A100210039085D
:10020A002000AF00210038082000AE00AE35AF0D47
:10021A003430B0002130B1002E08300786002F0894
:10022A00313D8700403FA200413FA3008D310725A1
:10023A008031272939082000B3002100380820001E
:10024A00B2003C2901302100B8070030B93D390815
:10025A00803A2000AE006D08803A2E02031D38292C
:10026A006C0821003802031C3B293C29C72830307E
:10027A002000A0009030A1008D3107258031692E21
:10028A00A401A501542921002435C13E8600870115
:10029A000030C03FC13F0130A4070030A53D25080A
:1002AA00803A2000AE006F08803A2E02031D6029B2
:1002BA006E0821002402031C6329642948292100AD
:1002CA00B601B7019E2900302000A200A300DA304F
:1002DA00A4009030A5008C313F24803120002308EF
:1002EA002100C000200022082100BF003F0840046E
:1002FA0003198029812992294008F7003F08F6004E
:10030A0080311E20803121003635C13E86008701AA
:10031A007608C03F7708C13F9A2937082000B50000
:10032A00210036082000B400AE290130B60700309B
:10033A00B73D3708803A2000AE006F08803A2E0297
:10034A00031DAA296E0821003602031CAD29AE2915
:10035A00682940302000A0009030A1008D31072587
:10036A008031692E70302000A0009030A1008D31BC
:10037A0007258031692E00302000A200A300DA3060
:10038A00A4009030A5008C313F248031200023083E
:10039A002100C000200022082100BF003F084004BD
:1003AA000319D829D929E5294008F7003F08F6009A
:1003BA0080311E20803177082000D5007608D400CD
:1003CA0000302000A200A300DA30A4009030A5007B
:1003DA008C313F248031200023082100C0002000F6
:1003EA0022082100BF003F0840040319FD29FE2905
:1003FA000A2A4008F7003F08F60080311E208031A3
:10040A0077082000D7007608D60038302000A000F0
:10041A009030A1008D3107258031692E00302000EF
:10042A00A200A300DA30A4009030A5008C313F244A
:10043A008031200023082100C0002000220821006A
:10044A00BF003F08400403192B2A2C2A382A4008E7
:10045A00F7003F08F60080311E208031770820001F
:10046A00D9007608D80000302000A200A300DA30B4
:10047A00A4009030A5008C313F248031200023084D
:10048A002100C000200022082100BF003F084004CC
:10049A000319502A512A5D2A4008F7003F08F6003E
:1004AA0080311E20803177082000DB007608DA00D0
:1004BA0048302000A0009030A1008D3107258031FE
:1004CA00692E00302000A200A300DA30A400903088
:1004DA00A5008C313F248031200023082100C00070
:1004EA00200022082100BF003F08400403197E2A89
:1004FA007F2A8B2A4008F7003F08F60080311E2029
:10050A00803177082000DD007608DC00003020000A
:10051A00A200A300DA30A4009030A5008C313F2459
:10052A008031200023082100C00020002208210079
:10053A00BF003F0840040319A32AA42AB02A40088E
:10054A00F7003F08F60080311E208031770820002E
:10055A00DF007608DE0050302000A0009030A100B5
:10056A008D3107258031692E00302000A200A300BA
:10057A00DA30A4009030A5008C313F24803120006D
:10058A0023082100C000200022082100BF003F08E4
:10059A0040040319D12AD22ADE2A4008F7003F086C
:1005AA00F60080311E20803177082000E1007608AD
:1005BA00E00000302000A200A300DA30A40090304E
:1005CA00A5008C313F248031200023082100C0007F
:1005DA00200022082100BF003F0840040319F62A20
:1005EA00F72A032B4008F7003F08F60080311E2047
:1005FA00803177082000E3007608E20058302000B6
:10060A00A0009030A1008D3107258031692E00307D
:10061A002000A200A300DA30A4009030A5008C319B
:10062A003F248031200023082100C0002000220836
:10063A002100BF003F0840040319242B252B312B2E
:10064A004008F7003F08F60080311E208031770805
:10065A002000E5007608E40000302000A200A30094
:10066A00DA30A4009030A5008C313F24803120007C
:10067A0023082100C000200022082100BF003F08F3
:10068A0040040319492B4A2B562B4008F7003F0810
:10069A00F60080311E20803177082000E7007608B6
:1006AA00E60060302000A0009030A1008D310725BF
:1006BA008031692E00302000A200A300DA30A400A5
:1006CA009030A5008C313F2480312000230821007E
:1006DA00C000200022082100BF003F08400403197F
:1006EA00772B782B842B4008F7003F08F6008031DF
:1006FA001E20803177082000E9007608E8000030E3
:10070A002000A200A300DA30A4009030A5008C31AA
:10071A003F248031200023082100C0002000220845
:10072A002100BF003F08400403199C2B9D2BA92BD5
:10073A004008F7003F08F60080311E208031770814
:10074A002000EB007608EA0068302000A000903014
:10075A00A1008D3107258031692EA601A70127083E
:10076A00803A2000AE0080302E02031DBF2B0630D7
:10077A0021002602031CC22BC32BC42B942D00304C
:10078A002000A200A300DA30A4009030A5008C312A
:10079A003F248031200023082100C00020002208C5
:1007AA002100BF004008F1003F08F0008B30F20042
:1007BA009030F3008A31B322803170087104031D2E
:1007CA00E72BE82B1D2C2100A801A9010C2C2100E4
:1007DA0029082000AF00210028082000AE00AE350D
:1007EA00AF0D3430B0002130B1002E08300786003A
:1007FA002F08313D87000108220099000D30890B2E
:10080A00042C000001302100A8070030A93D290866
:10081A00803A2000AE003308803A2E02031D182CBD
:10082A00320821002802031C1B2C1C2CEC2B802DC7
:10083A0021004008F1003F08F0009330F2009030A8
:10084A00F3008A31B322803170087104031D2E2C03
:10085A002F2C552C2100AA01AB01442C21002A354A
:10086A00C13E860087010108220099000D30890BDC
:10087A003C2C000001302100AA070030AB3D2B08B8
:10088A00803A2000AE003508803A2E02031D502C13
:10089A00340821002A02031C532C542C332C802D9B
:1008AA0021004008F1003F08F0008F30F20090303C
:1008BA00F3008A31B322803170087104031D662C5B
:1008CA00672C872C20005608220099002000B801C6
:1008DA00B901782C3530890B702C000001302000CA
:1008EA00B8070030B93D3908803AAE005508803A59
:1008FA002E02031D822C54083802031C852C862CD8
:10090A006F2C802D21004008F1003F08F00097303D
:10091A00F2009030F3008A31B322803170087104FA
:10092A00031D982C992CB92C20005A0822009900F2
:10093A002000BA01BB01AA2C3530890BA22C000079
:10094A0001302000BA070030BB3D3B08803AAE00B8
:10095A005908803A2E02031DB42C58083A02031C87
:10096A00B72CB82CA12C802D21004008F1003F089B
:10097A00F0009F30F2009030F3008A31B3228031C8
:10098A0070087104031DCA2CCB2CEB2C20005E08C6
:10099A00220099002000BC01BD01DC2C3530890BF6
:1009AA00D42C000001302000BC070030BD3D3D08BA
:1009BA00803AAE005D08803A2E02031DE62C5C08E0
:1009CA003C02031CE92CEA2CD32C802D2100400880
:1009DA00F1003F08F000A330F2009030F3008A31B2
:1009EA00B322803170087104031DFC2CFD2C1D2DCF
:1009FA0020006208220099002000BE01BF010E2DCE
:100A0A003530890B062D000001302000BE0700306A
:100A1A00BF3D3F08803AAE006108803A2E02031DAE
:100A2A00182D60083E02031C1B2D1C2D052D802D40
:100A3A0021004008F1003F08F000A730F200903092
:100A4A00F3008A31B322803170087104031D2E2D00
:100A5A002F2D4F2D20006608220099002000C0018A
:100A6A00C101402D3530890B382D0000013020009E
:100A7A00C0070030C13D4108803AAE006508803A9F
:100A8A002E02031D4A2D64084002031C4D2D4E2DD3
:100A9A00372D802D21004008F1003F08F000AB30CF
:100AAA00F2009030F3008A31B32280317008710469
:100ABA00031D602D612D802D20006A0822009900F7
:100ACA002000C201C301722D3530890B6A2D000046
:100ADA0001302000C2070030C33D4308803AAE000F
:100AEA006908803A2E02031D7C2D68084202031C05
:100AFA007F2D802D692D01302100A6070030A73DEA
:100B0A002708803A2000AE0080302E02031D902D67
:100B1A00063021002602031C932D942DC42B7F300E
:100B2A002000A0009030A1008D3107258031692E68
:100B3A0020005608220099002000C401C501AD2DED
:100B4A002830890BA62D01302000C4070030C53D8E
:100B5A004508803AAE005508803A2E02031DB72D8B
:100B6A0054084402031CBA2DBB2DA52D20005A0897
:100B7A00220099002000C601C701CB2D2830890B1D
:100B8A00C42D01302000C6070030C73D4708803A0F
:100B9A00AE005908803A2E02031DD52D5808460288
:100BAA00031CD82DD92DC32D20005E0822009900E0
:100BBA002000C801C901E92D2830890BE22D013036
:100BCA002000C8070030C93D4908803AAE005D08D8
:100BDA00803A2E02031DF32D5C084802031CF62DF1
:100BEA00F72DE12D20006208220099002000CA0199
:100BFA00CB01072E2830890B002E01302000CA07AE
:100C0A000030CB3D4B08803AAE006108803A2E0294
:100C1A00031D112E60084A02031C142E152EFF2DE7
:100C2A0020006608220099002000CC01CD01252E63
:100C3A002830890B1E2E01302000CC070030CD3D14
:100C4A004D08803AAE006508803A2E02031D2F2E09
:100C5A0064084C02031C322E332E1D2E20006A0813
:100C6A00220099002000CE01CF01432E2830890BA3
:100C7A003C2E01302000CE070030CF3D4F08803A8D
:100C8A00AE006908803A2E02031D4D2E68084E02F6
:100C9A00031C502E512E3B2E22009901692EC8307A
:100CAA0022009900692EAC01AD012D08803A20007E
:100CBA00AE0083302E02031D652EE83021002C027F
:100CCA00031C682E692E6B2E8D31F12DC83022003F
:100CDA0099002100AE01AF012F08803A2000AE0032
:100CEA0080302E02031D7C2E013021002E02031CAF
:100CFA007F2E802E812E992E1A30890B822E003259
:100D0A0001302100AE070030AF3D2F08803A2000A5
:100D1A00AE0080302E02031D952E013021002E02D6
:100D2A00031C982E992E812E220099012100B001D0
:100D3A00B1013108803A2000AE0080302E02031D36
:100D4A00A92E013021003002031CAC2EAD2EAE2E8E
:100D5A00C62E1A30890BAF2E003201302100B0079F
:100D6A000030B13D3108803A2000AE0080302E02BA
:100D7A00031DC22E013021003002031CC52EC62ECF
:100D8A00AE2E01302100AC070030AD3D2D08803A6F
:100D9A002000AE0083302E02031DD62EE83021003B
:100DAA002C02031CD92EDA2E6B2E692E003020005D
:100DBA00A200A300DA30A4009030A5008C313F24B1
:100DCA008031200023082100C000200022082100D1
:100DDA00BF003F0840040319F32EF42E002F4008E9
:100DEA00F7003F08F60080311E2080317708210085
:100DFA00A1007608A000220099012100B401B501E2
:100E0A002000D001D101202F2100340822009900AE
:100E1A0003302000AE009730890B112FAE0B112F33
:100E2A00003201302100B4070030B53D0130200006
:100E3A00D0070030D13D5108803AAE002100210888
:100E4A00803A20002E02031D2E2F210020082000A8
:100E5A005002031C312F322F092F2000D201D30157
:100E6A004D2F210034082200990003302000AE00E3
:100E7A009730890B3E2FAE0B3E2F0032FF302100F8
:100E8A00B407FF30B53D01302000D2070030D33D12
:100E9A005308803AAE0021002108803A20002E0231
:100EAA00031D5B2F2100200820005202031C5E2F25
:100EBA005F2F362F78302000A0009030A1008D31AE
:100ECA0007258031692E2000B601B7012100B20141
:100EDA00B3013308803A2000AE0080302E02031D91
:100EEA00792F0A3021003202031C7C2F7D2F7E2F9E
:100EFA00692E01308A314122803171082000B70001
:100F0A007008B6002430A0009030A1003708A30072
:100F1A003608A2008D310725803115302000AF0038
:100F2A004B30AE00BE30890B982FAE0B982FAF0B0B
:100F3A00982F000001302100B2070030B33D6E2F18
:100F4A000A302000A0009030A1008D3107258031A1
:100F5A00692E3A08003A03199428013A03194529D7
:100F6A00033A0319B729013A0319C029073A0319A1
:100F7A00132A013A0319662A033A0319B92A013ACC
:100F8A0003190C2B0F3A03195F2B013A0319B22BE1
:100F9A00033A0319692E013A0319692E063A03190D
:100FAA00542E033A0319512E013A0319582E1F3AA7
:100FBA0003199D2D013A0319DB2E033A0319682FF1
:100FCA00013A0319A52F692E803102283430840092
:100FDA0021308500BC30FE000230FF008A31232216
:100FEA0087312100C101C201C301C401C501C60183
:060FFA0020008D31CF2D17
:1013FE002000911E032A042AFF2923001908080041
:10140E007B08F3007A08F2008C31A2248A3108009E
:10141E00F0002000111E142A152A102A700823002D
:10142E009A0008008931FF218A31F10071088A3152
:10143E000F228A31710808006400800101310130E9
:10144E00FE020030FF3B7F087E04031D242A003479
:10145E00F100F0013A3071020318362A372A3F2A7A
:10146E0030307102031C3C2A3D2A3F2A0130F00025
:10147E00700C080021001D119D111D169D121D13CB
:10148E003530890B482A000021009D149D18502AE2
:10149E00512A4D2A1C08F1001B08F00008007008A4
:1014AE0084007108850000087206031D5F2A602AF9
:1014BE00612A732A7108F5007008F400F00A031906
:1014CE00F10A74088400750885001200031D702A45
:1014DE00712A562AF001F1010800F401F501701C81
:1014EE00792A7A2A7E2A7208F4077308F53D0130AC
:1014FE00F235F30D890B7F2A0130F136F00C890B92
:10150E00842A70087104031D8D2A8E2A762A750886
:10151E00F1007408F00008007030210099002300DB
:10152E008C0101308E00023021008C0001308E00C3
:10153E0020008C018E01113021009D00A3309E00F1
:10154E0082302200970021009B019C0101309D00FA
:10155E002200981718160800BC2A0130F007003038
:10156E00F13D0130F2070030F33D7008860071083E
:10157E008700720884007308850000080102F400D9
:10158E007408031DCB2ACC2AD52A70088600710850
:10159E0087000108031DD42AD52AB42A7408F00046
:1015AE00F101F01BF1030800770878040319E02A13
:1015BE00E12A082B0130FB00EB2A0130F735F80D3C
:1015CE00890BE52A0130FB07F81FEE2AEF2AE42AE1
:1015DE0078087A02031DF52A77087902031CF82A87
:1015EE00F92AFD2A7708F9027808FA3B0130F83615
:1015FE00F70C890BFE2A0130FB02031D072B082B6B
:10160E00EF2A7A08F8007908F70008002000A001F8
:10161E00A1011A2B0130F7070030F83D01302000F0
:10162E00A0070030A13D77088600780887000108E2
:10163E000319222B232B3B2B7A08F1007908F0009B
:10164E0077088600780887000108FB00FC017B08FC
:10165E00F2007C08F3008A3156228B317008710437
:10166E0003193A2B3B2B112B20002108F8002008E0
:10167E00F70008002000A001A1014E2B0130F70752
:10168E000030F83D01302000A0070030A13D770862
:10169E0086007808870001080319562B572B6F2BED
:1016AE007A08F1007908F00077088600780887003C
:1016BE000108FB00FC017B08F2007C08F3008A3174
:1016CE0056228B3170087104031D6E2B6F2B452B28
:1016DE0020002108F8002008F7000800243023001D
:1016EE009E009F1590309D0020002308F3002208D5
:1016FE00F2002108F1002008F0000130F700E83078
:10170E00F6004830F5000030F4008B31E7238B31C2
:10171E0070082000A4007108A5007208A6007308C6
:10172E00A7000230A736A60CA50CA40C890B992B8A
:10173E002408FF3EA800FF30253DA90029082300FC
:10174E009C002000280823009B000800F401F501EE
:10175E00700871040319B42BB52BE22B0130F6007F
:10176E00BF2B0130F035F10D890BB92B0130F60787
:10177E00F11FC22BC32BB82B0130F435F50D890B9D
:10178E00C42B71087302031DCE2B70087202031C4A
:10179E00D12BD22BD72B7008F2027108F33B7414A5
:1017AE000130F136F00C890BD82B0130F602031DF7
:1017BE00E12BE22BC32B7508F1007408F000080032
:1017CE000030FB000030FA000030F9000030F80065
:1017DE0073087204710470040319F62BF72B362C60
:1017EE000130FC00032C0130F035F10DF20DF30D3C
:1017FE00890BFB2B0130FC07F31F062C072CFA2B51
:10180E000130F835F90DFA0DFB0D890B082C730814
:10181E007702031D1C2C72087602031D1C2C710806
:10182E007502031D1C2C70087402031C1F2C202C27
:10183E00292C7008F4027108F53B7208F63B730808
:10184E00F73B78140130F336F20CF10CF00C890BE7
:10185E002A2C0130FC02031D352C362C072C7B085C
:10186E00F3007A08F2007908F1007808F000080019
:10187E00200022082304031D452C462C4E2C21004B
:10188E0046082000A300210045082000A2002208DF
:10189E002304031D532C542C572CA201A301A12C5D
:1018AE002308F8002208F7002508FA002408F9009A
:1018BE008B3141238C3177082000A2077808A33D95
:1018CE0022088600230887000108031D6F2C702C48
:1018DE00772C2100C501C6012000A201A301A12C75
:1018EE002308F8002208F7002508FA002408F9005A
:1018FE008B310D238C317708200022072100C50083
:10190E0078082000233D2100C600450886004608C1
:10191E00870001080319942C952C9F2C45088600EE
:10192E004608870081010130C5070030C63DA12C55
:10193E00C501C60108007308F9007208F800EA2C08
:10194E0079087306031DAD2C78087206031DB02CA2
:10195E00B12CB22CEA2C20308A310F228C31083077
:10196E008A310F228C310130F8020030F93BEA2C1B
:10197E0008308A310F228C3120308A310F228C317F
:10198E0008308A310F228C310130F8020030F93BD9
:10199E0079087302031DD52C78087202031CD82C0B
:1019AE00D92CBF2CEA2C7808860079088700810193
:1019BE00062D7808860079088700760881000130A8
:1019CE00F8070030F93D8A3119228C31F400F50107
:1019DE007408F6007508F7007708003A0319F82C1A
:1019EE00E02C7608083A0319A72C023A0319DA2CD0
:1019FE00073A0319DA2C183A0319CF2CE02C0800F9
:101A0E0022302000A900BB2D25302D060319102DE4
:101A1E00112D162D2D088A310F228D31BB2DAA01C5
:101A2E001A2D2A17342D2108A5002008A400A00A7B
:101A3E000319A10A24088400250885000008AD00BA
:101A4E00003A0319CE2D643A0319342D0D3A0319B9
:101A5E00342D1C3A0319182DBB2D2A1B372D382D6A
:101A6E004D2D290886008701403FAB00413FAC0059
:101A7E000230A907AC1F442D452D562D0330AA0464
:101A8E00AB09AC09AB0A0319AC0A562D290886001E
:101A9E008701403FAB00413FAC000230A907013047
:101AAE00AD002D08A400A501A435A50D0030240716
:101ABE0084001030253D80388500003FA600013F90
:101ACE00A70027082C02031D6E2D26082B020318D3
:101ADE00712D722D732D7B2D0130AD0705302D0626
:101AEE00031D7A2D7B2D582D2A0803390319802DBD
:101AFE00812D852D2D308A310F228D3120002D081C
:101B0E00A800B32D0A30F7000030F8002808A40012
:101B1E00A501A435A50D0030240784001030253D05
:101B2E0080388500003FF000013FF1002C08F300E3
:101B3E002B08F2008B31AD238D317108FA0070083D
:101B4E00F9008A31DB228D317708303E2000AD005E
:101B5E002D088A310F228D31FF302000A807280A68
:101B6E00031DBA2DBB2D892D20002108A5002008AC
:101B7E00A400A00A0319A10A2408840025088500E0
:101B8E000008AD002D08031DCD2DCE2D0B2D080008
:101B9E002C302000EC000130ED001430EE0000304F
:101BAE00EF00B201B301B401B5018A3193228D3138
:101BBE0014303D00900001303C00A40000302000A5
:101BCE00A3000030A2002530A1008030A0008B3190
:101BDE0075238D312200990151302100BB00513007
:101BEE00BC005130BD00BE01C430860022308700DB
:101BFE005130C03FC4308600223087004131513011
:101C0E008100C4308600223087004231513081007D
:101C1E00C43086002230870043318101C430FA007F
:101C2E002230FB008A3107228D31C430F000223081
:101C3E00F100803105208D3100307102033003191F
:101C4E00700203182B2E2C2E2D2EF12DC430860053
:101C5E0022308700413101082100BB00C4308600CC
:101C6E002230870042310108BC00C4308600223089
:101C7E00870043310108BD00BE01BB30F0000030CB
:101C8E00F100D230F2009030F3008A31B3228D3160
:101C9E0070087104031D542E552E5A2E0A30210041
:101CAE00BA008F31EA2FBB30F0000030F1008A30DD
:101CBE00F2009030F3008A31B3228D317008710436
:101CCE00031D6A2E6B2E6E2E2100BA01582EBB30CC
:101CDE00F0000030F1009230F2009030F3008A31C3
:101CEE00B3228D3170087104031D7E2E7F2E832E3C
:101CFE0001302100BA00582EBB30F0000030F10048
:101D0E009A30F2009030F3008A31B3228D31700890
:101D1E007104031D932E942E982E02302100BA00CA
:101D2E00582EBB30F0000030F1008E30F2009030B3
:101D3E00F3008A31B3228D3170087104031DA82E71
:101D4E00A92EAD2E03302100BA00582EBB30F00064
:101D5E000030F1009630F2009030F3008A31B32259
:101D6E008D3170087104031DBD2EBE2EC22E04309F
:101D7E002100BA00582EBB30F0000030F1009E302A
:101D8E00F2009030F3008A31B3228D317008710465
:101D9E00031DD32E8E31D52E8E31D92E0530210036
:101DAE00BA00EA2FBB30F0000030F100A230F20092
:101DBE009030F3008A31B3228E3170087104031D06
:101DCE00E92EEA2EEE2E06302100BA00EA2FBB30A5
:101DDE00F0000030F100A630F2009030F3008A31AE
:101DEE00B3228E3170087104031DFE2EFF2E032FB9
:101DFE0007302100BA00EA2FBB30F0000030F100AE
:101E0E00AA30F2009030F3008A31B3228E3170087E
:101E1E007104031D132F142F182F08302100BA0040
:101E2E00EA2FBB30F0000030F100C630F2009030E7
:101E3E00F3008A31B3228E3170087104031D282FEE
:101E4E00292F2D2F09302100BA00EA2FBB30F000C8
:101E5E000030F100AE30F2009030F3008A31B32240
:101E6E008E3170087104031D3D2F3E2F422F0B3013
:101E7E002100BA00EA2FBB30F0000030F100CA306A
:101E8E00F2009030F3008A31B3228E317008710463
:101E9E00031D522F532F572F0C302100BA00EA2F5B
:101EAE00BB30F0000030F100BE30F2009030F30095
:101EBE008A31B3228E3170087104031D672F682F8B
:101ECE006C2F0D302100BA00EA2FBB30F00000302D
:101EDE00F100B230F2009030F3008A31B3228E312D
:101EEE0070087104031D7C2F7D2F812F0E30210071
:101EFE00BA00EA2FBB30F0000030F100D630F2000D
:101F0E009030F3008A31B3228E3170087104031DB4
:101F1E00912F922F962F0F302100BA00EA2FBB304F
:101F2E00F0000030F100C230F2009030F3008A3140
:101F3E00B3228E3170087104031DA62FA72FAB2F6D
:101F4E0010302100BA00EA2FBB30F0000030F10053
:101F5E00BA30F2009030F3008A31B3228E3170081D
:101F6E007104031DBB2FBC2FC02F11302100BA00EE
:101F7E00EA2FBB30F0000030F100B630F2009030A6
:101F8E00F3008A31B3228E3170087104031DD02FF5
:101F9E00D12FD52F12302100BA00EA2FBB30F0001E
:101FAE000030F100CE30F2009030F3008A31B322CF
:101FBE008E3170087104031DE52FE62FEA2F1330C2
:101FCE002100BA00EA2FC4302000A2002230A30064
:101FDE00DA30A4009030A5008C313F248E312000E1
:101FEE0023082100C000200022082100BF008731F5
:101FFE00AE2F013400340A34003464340034E83433
:10200E0003341034273446344C344134533445347D
:10201E0052342D3443344F344E34543420345634E9
:10202E0045345234533449344F344E3420343134E1
:10203E002E3431340D340A340034433409344134EF
:10204E0049344E3420343D342034253475340A342A
:10205E000034433409345334413431340D340A34AA
:10206E000034433409345334463431340D340A3495
:10207E000034433409345334413432340D340A3489
:10208E000034433409345334463432340D340A3474
:10209E000034433409345334463433340D340A3463
:1020AE000034433409345334463434340D340A3452
:1020BE000034433409345334463435340D340A3441
:1020CE000034433409345334463436340D340A3430
:1020DE00003453344134333420344F344B340A34C7
:1020EE00003443340934533449344E340A34003402
:1020FE00433409344C34453450340A3400342534D6
:10210E0064340A340034533441343134003453349B
:10211E004634313400345334413432340034533481
:10212E00463432340034533441343334003453346F
:10213E004634333400345334463434340034533458
:10214E0046343534003453344634363400344C344B
:10215E005034453400344C344F344634003441341A
:10216E0049344E340034533449344E3400344C34F4
:10217E004F344E340034533450344F3400344C34D6
:10218E004534503400344C344434523400345634D4
:10219E004534523400344C344434533400345034C7
:0A21AE004C34533400342F34003455
:020000040001F9
:08000000FF3FFF3FFF3FFF3F00
:04000E00840FFB1B45
:00000001FF
