:100000008A11FD2F00308A000408840A8207003418
:10001000013400340A34003464340034E8340334E6
:10002000103427344D344F3454344F345234203448
:100030003D3420344234203420344F344B340D349A
:100040000A3400344D344F3454344F345234203455
:100050003D3420344634203420344F344B340D3476
:100060000A3400344D344F3454344F345234203435
:100070003D3420344234203420344F344B34003467
:100080004D344F3454344F34523420343D342034C2
:100090004634203420344F344B3400342534643417
:0600A0000D340A340034A7
:10085600F80078088A11F9248A1108008312031314
:100866008C1E362C372C312C1A080800F000831207
:1008760003130C1E3F2C402C3A2C700899000800DC
:100886008A1131248A11F10071088A1139248A11DA
:1008960071080800F20072088A1162248A110A306F
:1008A6008A1139248A110800193083160313990016
:1008B6002430980090308312031398000800F1004A
:1008C600702C710884008A1102208A118A11392439
:1008D6008A110130FF007F08F107710884008A1130
:1008E60002208A11003A031D792C7A2C642C080008
:1008F600770878040319802C812CB02CFB01FB0AA5
:100906008F2C01300310F70DF80DFF3E031D852CCB
:100916000130FF007F08FB07F81F922C932C842CD4
:1009260078087A02031D992C77087902031C9C2CFF
:100936009D2CA32C7708F9027808031CFA03FA0207
:1009460001300310F80CF70CFF3E031DA42C0130F8
:10095600FB02031DAF2CB02C932C7A08F800790803
:10096600F7000800F401F501700871040319BC2CA6
:10097600BD2CF42CF601F60ACB2C01300310F00D39
:10098600F10DFF3E031DC12C0130FF007F08F60765
:10099600F11FCE2CCF2CC02C01300310F40DF50D19
:1009A600FF3E031DD02C71087302031DDC2C70085A
:1009B6007202031CDF2CE02CE72C7008F20271088F
:1009C600031CF303F302741401300310F10CF00C52
:1009D600FF3E031DE82C0130F602031DF32CF42C18
:1009E600CF2C7508F1007408F0000800F6007608B0
:1009F600F700332D76087706031D022D032D042DEF
:100A0600332D20308A1139248A1108308A1139246D
:100A16008A110130F702332D08308A1139248A11E0
:100A260020308A1139248A1108308A1139248A1112
:100A36000130F70277087602031C222D232D0F2D95
:100A4600332D770884008313800176084F2D7708AD
:100A560084007408831380000130FF007F08F707C5
:100A66008A1143248A11F200F3017208F400730814
:100A7600F5007508003A0319412D2A2D7408083A25
:100A86000319FD2C023A0319242D073A0319242DC4
:100A9600183A03191D2D2A2D080083120313A600E8
:100AA6007C30A300F32D2530290603195B2D5C2D20
:100AB600612D29088A1139248A11F32DA4010130E8
:100AC600A607FF30260784008A1102208A11A90092
:100AD600003A0319032E643A0319752D0D3A0319CA
:100AE600752DF32D230884000008A700840A00084A
:100AF600A8000230FF007F08A307A81F832D842DBE
:100B06008D2D0330FF007F08A404A709A809A70AB2
:100B16000319A80AA901A90A2908A0002007013E6D
:100B260084008A1102208A11A1008A1102208A11EA
:100B3600A20022082802031DA22D2108270203185D
:100B4600A52DA62DA72DB12D0130FF007F08A907E1
:100B560005302906031DB02DB12D8F2D240803392C
:100B66000319B62DB72DBB2D2D308A1139248A11C4
:100B7600831203132908A500E82D0A30F700003078
:100B8600F8002508A0002007013E84008A110220F3
:100B96008A11F0008A1102208A11F1002808F30058
:100BA6002708F2008A11B5248A117108FA00700824
:100BB600F9008A117B248A117708303E83120313C9
:100BC600A90029088A1139248A11FF30FF007F08FD
:100BD60083120313A507250A031DF22DF32DC02D3D
:100BE600013083120313A607FF30260784008A11FB
:100BF60002208A11A9002908031D022E032E562D54
:100C0600080083120313850186010330831603133C
:100C16008500023086000730831203139F008A1175
:100C260057248A1183120313BF01C0010A30C5007D
:100C36000030C60036308A114D248A1116308A11CA
:100C460050258A112B308A112B248A11D42F143067
:100C5600C1000030C200C301C401D92E83120313A0
:100C66000616861206138613C701C8014B2EC73017
:100C760083120313AA003F2EAA0B3E2E422E00001B
:100C8600013083120313C7070318C80A0030C807C8
:100C96004808803AAA004608803A2A02031D552EC3
:100CA60045084702031C582E592E3A2E8312031369
:100CB6000612861606138613C701C801732EC7309F
:100CC60083120313AA00672EAA0B662E6A2E000053
:100CD600013083120313C7070318C80A0030C80778
:100CE6004808803AAA004608803A2A02031D7D2E4B
:100CF60045084702031C802E812E622E83120313A1
:100D06000612861206178613C701C8019B2EC73026
:100D160083120313AA008F2EAA0B8E2E922E00008A
:100D2600013083120313C7070318C80A0030C80727
:100D36004808803AAA004608803A2A02031DA52ED2
:100D460045084702031CA82EA92E8A2E83120313D8
:100D56000612861206138617C701C801C32EC730AE
:100D660083120313AA00B72EAA0BB62EBA2E0000C2
:100D7600013083120313C7070318C80A0030C807D7
:100D86004808803AAA004608803A2A02031DCD2E5A
:100D960045084702031CD02ED12EB22E01308312F5
:100DA6000313C3070318C40A0030C4074408803A73
:100DB600AA004208803A2A02031DE32E4108430294
:100DC600031CE62EE72E312E39308A114D248A1166
:100DD6001B308A1150258A11F02F1430C1000030C3
:100DE600C200C301C4019F2F831203130612861289
:100DF60006138617C701C801112FC73083120313C4
:100E0600AA00052FAA0B042F082F00000130831219
:100E16000313C7070318C80A0030C8074808803AF2
:100E2600AA004608803A2A02031D1B2F45084702DE
:100E3600031C1E2F1F2F002F831203130612861268
:100E460006178613C701C801392FC730831203134B
:100E5600AA002D2FAA0B2C2F302F00000130831251
:100E66000313C7070318C80A0030C8074808803AA2
:100E7600AA004608803A2A02031D432F4508470266
:100E8600031C462F472F282F83120313061286169C
:100E960006138613C701C801612FC73083120313D7
:100EA600AA00552FAA0B542F582F00000130831289
:100EB6000313C7070318C80A0030C8074808803A52
:100EC600AA004608803A2A02031D6B2F45084702EE
:100ED600031C6E2F6F2F502F8312031306168612D4
:100EE60006138613C701C801892FC730831203135F
:100EF600AA007D2FAA0B7C2F802F000001308312C1
:100F06000313C7070318C80A0030C8074808803A01
:100F1600AA004608803A2A02031D932F4508470275
:100F2600031C962F972F782F013083120313C307C4
:100F36000318C40A0030C4074408803AAA004208CD
:100F4600803A2A02031DA92F41084302031CAC2F35
:100F5600AD2FF72E2B308A114D248A110B308A11B2
:100F660050258A11F02F0130C5000030C600F02F41
:100F76000230C5000030C600F02F0530C500003035
:100F8600C600F02F0A30C5000030C600F02F14301E
:100F9600C5000030C600F02F3230C5000030C60054
:100FA600F02F831203132B08623A0319F02E043A2A
:100FB60003192A2E0F3A0319C02F063A0319BB2F1D
:100FC6001F3A0319B62F043A0319CF2F013A031912
:100FD600C52F0C3A0319CA2FF02F831203134008AA
:100FE600FD003F08FC0047308A1150258A111D2E4E
:0A0FF6008A11002883018A11042EDD
:08400000FF3FFF3FFF3FFF3FC0
:02400E00783FF9
:00000001FF
