:100000008A11FD2FFF1B0C2883137F18831700080C
:10001000840A0319FF0A080000308A000408840AD1
:1000200082070034013400340A340034643400346C
:10003000E8340334103427344D344F3454344F34BF
:10004000523420343D3420344234203420344F3470
:100050004B340D340A3400344D344F3454344F345F
:10006000523420343D3420344634203420344F344C
:100070004B340D340A3400344D344F3454344F343F
:10008000523420343D3420344234203420344F3430
:100090004B3400344D344F3454344F3452342034C4
:1000A0003D3420344634203420344F344B34003433
:1000B0006C3465346E3467347434683420343D34C1
:1000C0002034253464340D34003473347034653492
:1000D0006534643420343D342034253464340D34A4
:1000E000003428346E3475346C346C342934003464
:1000F000243431342E3430340D3400342534643417
:100100000A340034253473340A3400344D34463410
:100110000D3400344D3452340D340034243446341C
:1001200043340034243456344534003424343734D2
:100130004634003424344D344634003424343734C7
:100140005234003424344D34523400344634433471
:0401500072340034D1
:1003C200F80078088A1110238A1108008312031397
:1003D2008C1EEC29ED29E7291A080800F000831287
:1003E20003130C1EF529F629F0297008990008005C
:1003F2008A11E7218A11F10071088A11EF218A110D
:1004020071080800F20072088A112A228A110A3041
:100412008A11EF218A1108001930831603139900FB
:100422002430980090308312031398000800F100E2
:10043200F0013A30710203181F2A202A282A30308C
:100442007102031C252A262A282AF001F00A700CC0
:100452000800F100382A710884008A110C208A11E0
:100462008A11EF218A110130FF007F08F10771081C
:1004720084008A110C208A11003A031D412A422A63
:100482002C2A0800F401F501701C482A492A4F2A37
:100492007208F4070318F50A7308F5070130031010
:1004A200F20DF30DFF3E031D502A01300310F10C33
:1004B200F00CFF3E031D572A70087104031D622AC7
:1004C200632A452A7508F1007408F0000800F50057
:1004D200722A0130FF007F08F5070130FF007F0814
:1004E200F007700884008A110C208A11F200750846
:1004F200840083130008F30072087302F400740886
:10050200031D842A852A8C2A750884000008031D8D
:100512008B2A8C2A6A2A7408F000F101F01BF1037D
:100522000800770878040319972A982AC72AFB013A
:10053200FB0AA62A01300310F70DF80DFF3E031D3A
:100542009C2A0130FF007F08FB07F81FA92AAA2A6C
:100552009B2A78087A02031DB02A77087902031CC5
:10056200B32AB42ABA2A7708F9027808031CFA03D4
:10057200FA0201300310F80CF70CFF3E031DBB2AF0
:100582000130FB02031DC62AC72AAA2A7A08F800EC
:100592007908F7000800F401F501700871040319E5
:1005A200D32AD42A0B2BF601F60AE22A01300310D1
:1005B200F00DF10DFF3E031DD82A0130FF007F0828
:1005C200F607F11FE52AE62AD72A01300310F40DB7
:1005D200F50DFF3E031DE72A71087302031DF32A7E
:1005E20070087202031CF62AF72AFE2A7008F20229
:1005F2007108031CF303F302741401300310F10CAD
:10060200F00CFF3E031DFF2A0130F602031D0A2BE8
:100612000B2BE62A7508F1007408F0000800F600BA
:100622007608F7004A2B76087706031D192B1A2B3A
:100632001B2B4A2B20308A11EF218A1108308A1194
:10064200EF218A110130F7024A2B08308A11EF217B
:100652008A1120308A11EF218A1108308A11EF2184
:100662008A110130F70277087602031C392B3A2BE4
:10067200262B4A2B77088400831380017608662B89
:10068200770884007408831380000130FF007F081C
:10069200F7078A11F9218A11F200F3017208F400B6
:1006A2007308F5007508003A0319582B412B74089A
:1006B200083A0319142B023A03193B2B073A031980
:1006C2003B2B183A0319342B412B0800F501F11F7B
:1006D2006B2B6C2B732BF009F109F00A0319F10A49
:1006E200F501F50AF31F762B772B802BF209F3091C
:1006F200F20A0319F30A0130FF007F08F506F6013A
:10070200F701700871040319872B882BBF2BF401A2
:10071200F40A962B01300310F00DF10DFF3E031D7C
:100722008C2B0130FF007F08F407F11F992B9A2BC5
:100732008B2B01300310F60DF70DFF3E031D9B2B93
:1007420071087302031DA72B70087202031CAA2BE7
:10075200AB2BB22B7008F2027108031CF303F302F5
:10076200761401300310F10CF00CFF3E031DB32B85
:100772000130F402031DBE2BBF2B9A2B75080319FF
:10078200C32BC42BC92BF609F709F60A0319F70A7A
:100792007708F1007608F0000800FD00D42B013044
:1007A200FF007F08FD077D088400203083130006C8
:1007B2000319DC2BDD2BD02B7D08840009300006C9
:1007C2000319E42BE52BD02BFB01FC01FA017D0878
:1007D20084002D300006031DEF2BF02BF92B013086
:1007E200FF007F08FA070130FF007F08FD07252C74
:1007F2007D0884002B300006031D002C012C252CC3
:100802000130FF007F08FD07252C7D0884007C084D
:10081200F1007B08F0000A30F2000030F3008A1188
:1008220043228A11831300087007F800003003186E
:1008320001307107F9007808D03EFB0079080318EF
:10084200013EFF3EFC00012C7D08840000088A1155
:1008520018228A1103182E2C2F2C062C7A08031921
:10086200332C342C402C7B09F8007C09F900F80A5F
:100872000319F90A7808F6007908F700442C7C0875
:10088200F7007B08F600080083120313AA007C30ED
:10089200A500202D25302B060319502C512C562C47
:1008A2002B088A11EF218A11202DA3018C2C2508F7
:1008B20084000008A6000030A7000130FF007F0876
:1008C200A50726082704031D672C682C7F2C60309F
:1008D200A6008030A7007F2C2708FF00260884008E
:1008E2008A1102208A118A11EF218A1101308312A2
:1008F2000313A6070318A70A0030A7072708FF005B
:10090200260884008A1102208A11003A031D8A2CCB
:100912008B2C6D2C202D0130AA07FF302A07840072
:100922008A110C208A11AB00003A0319302D643A67
:100932000319A22C0D3A0319A22C1A3A0319582CA6
:10094200202D250884000008A800840A0008A900B8
:100952000230FF007F08A507A91FB02CB12CBA2CCA
:100962000330FF007F08A304A809A909A80A0319F4
:10097200A90AAB01AB0A2B08A0002007013E8400A4
:100982008A110C208A11A1008A110C208A11A2005E
:1009920022082902031DCF2C210828020318D22C79
:1009A200D32CD42CDE2C0130FF007F08AB0705309E
:1009B2002B06031DDD2CDE2CBC2C23080339031966
:1009C200E32CE42CE82C2D308A11EF218A118312BA
:1009D20003132B08A400152D0A30F7000030F8008D
:1009E2002408A0002007013E84008A110C208A11ED
:1009F200F0008A110C208A11F1002908F30028085E
:100A0200F2008A11CC228A117108FA007008F900EA
:100A12008A1192228A117708303E83120313AB00A7
:100A22002B088A11EF218A11FF30FF007F08831201
:100A32000313A407240A031D1F2D202DED2C0130C2
:100A420083120313AA07FF302A0784008A110C209D
:100A52008A11AB002B08031D2F2D302D4B2C0800C3
:100A62008312031385018601831603138501023065
:100A720086000730831203139F008A110D228A1108
:100A82002E308A11E1218A11831203132E08C2002B
:100A92002F08C3003008C400C5018530F000423081
:100AA2008A1168228A1170087104031D592D5A2D6A
:100AB2005E2D83120313D101B32D8D30F00042302D
:100AC2008A1168228A1170087104031D692D6A2D2A
:100AD2006F2D83120313D101D10AB32D8930F00097
:100AE20042308A1168228A1170087104031D7A2D1E
:100AF2007B2D802D023083120313D100B32D913050
:100B0200F00042308A1168228A1170087104031DB4
:100B12008B2D8C2D912D033083120313D100B32D15
:100B22007D30F00042308A1168228A117008710407
:100B3200031D9C2D9D2DA22D043083120313D10081
:100B4200B32D8130F00042308A1168228A11700878
:100B52007104031DAD2DAE2DB32D05308312031389
:100B6200D100B32D2E30FC0071308A1145248A1138
:100B7200831203135108AC00AD012C08FC002D08B0
:100B8200FD006D308A1145248A11E52F3108C60017
:100B92003208C7003308C8003408C900CA01463009
:100BA2008A11CE238A11770883120313D3007608A1
:100BB200D2005308FD005208FC0054308A1145242B
:100BC2008A11831203133608CB003708CC00380889
:100BD200CD00CF014B308A11CE238A1177088312C0
:100BE2000313D5007608D4005508FD005408FC0014
:100BF20047308A1145248A11831203135308F100E6
:100C02005208F000F430F2000130F3008A11672339
:100C12008A11710883120313D7007008D600CF011E
:100C2200D001B32E831203130616861206138613FF
:100C3200D801D9012B2E203083120313AC00AC0B48
:100C4200202E232E013083120313D8070318D90A4A
:100C52000030D9075908803AAC005708803A2C0274
:100C6200031D352E56085802031C382E392E1C2E11
:100C7200831203130612861606138613D801D901AE
:100C8200512E203083120313AC00AC0B462E492E9A
:100C9200013083120313D8070318D90A0030D90789
:100CA2005908803AAC005708803A2C02031D5B2E8B
:100CB20056085802031C5E2E5F2E422E8312031327
:100CC2000612861206178613D801D901772E203014
:100CD20083120313AC00AC0B6C2E6F2E0130831207
:100CE2000313D8070318D90A0030D9075908803AE4
:100CF200AC005708803A2C02031D812E5608580278
:100D0200031C842E852E682E83120313061286126C
:100D120006138617D801D9019D2E203083120313A2
:100D2200AC00AC0B922E952E013083120313D80720
:100D32000318D90A0030D9075908803AAC0057087D
:100D4200803A2C02031DA72E56085802031CAA2E15
:100D5200AB2E8E2E013083120313CF070318D00A55
:100D62000030D0075008803AAC005508803A2C0277
:100D7200031DBD2E54084F02031CC02EC12E132E7C
:100D820039308A1103228A111B308A1145248A11B3
:100D9200412D3108C6003208C7003308C8003408A4
:100DA200C900CA0146308A11CE238A1177088312FC
:100DB2000313D3007608D2005308FD005208FC004A
:100DC20054308A1145248A11831203133608CB004A
:100DD2003708CC003808CD00CF014B308A11CE2322
:100DE2008A11770883120313D5007608D4005508B8
:100DF200FD005408FC0047308A1145248A118312F1
:100E020003135308F1005208F000F430F2000130ED
:100E1200F3008A1167238A11710883120313D70022
:100E22007008D600CF01D001B62F83120313061229
:100E3200861206138617D801D9012E2F203083126D
:100E42000313AC00AC0B232F262F013083120313A4
:100E5200D8070318D90A0030D9075908803AAC00DC
:100E62005708803A2C02031D382F56085802031CDB
:100E72003B2F3C2F1F2F83120313061286120617D5
:100E82008613D801D901542F203083120313AC00EA
:100E9200AC0B492F4C2F013083120313D8070318D0
:100EA200D90A0030D9075908803AAC005708803A6D
:100EB2002C02031D5E2F56085802031C612F622F5D
:100EC200452F831203130612861606138613D801C2
:100ED200D9017A2F203083120313AC00AC0B6F2F91
:100EE200722F013083120313D8070318D90A003076
:100EF200D9075908803AAC005708803A2C02031DE2
:100F0200842F56085802031C872F882F6B2F8312B9
:100F120003130616861206138613D801D901A02FD1
:100F2200203083120313AC00AC0B952F982F0130A5
:100F320083120313D8070318D90A0030D9075908B6
:100F4200803AAC005708803A2C02031DAA2F56089B
:100F52005802031CAD2FAE2F912F013083120313C1
:100F6200CF070318D00A0030D0075008803AAC00EF
:100F72005508803A2C02031DC02F54084F02031C4F
:100F8200C32FC42F162F2B308A1103228A110B3044
:100F92008A1145248A11412D75308A1145248A11FE
:100FA200412D79308A1145248A11412D95308A11BB
:100FB20045248A11412D67308A1103228A11673034
:100FC2008A1145248A11412D831203135108003AD4
:100FD2000319C72D013A0319CA2E033A0319CD2F5B
:100FE200013A0319D22F073A0319D72F013A0319ED
:0E0FF200DC2F412D8A11002883018A11312D38
:08400000FF3FFF3FFF3FFF3FC0
:02400E00783FF9
:00000001FF
