:100000008A11FA2F00308A000408840A820700341B
:1000100043340934563445345234533449344F341C
:100020004E34203432340D340A340034433409342D
:10003000523445344134443459340D340A34003494
:10004000433409345734543442340D340A340034C0
:10005000433409344F34533443340D340A340034B8
:10006000433409344E34443444340D340A340034B7
:10007000433409344E34503444340D340A3400349B
:10008000433409344E34533444340D340A34003488
:10009000433409344E34543444340D340A34003477
:1000A000433409344E3444344F340D340A3400346C
:1000B000433409344E34533450340D340A3400344C
:1000C000433409345234503453340D340A34003438
:1000D00057345434423400344F34533443340034AE
:1000E0004E344434443400344E34503444340034B8
:1000F0004E345334443400344E3454344434003495
:100100004E3444344F3400344E345334503400347D
:10011000563445345234003452345034533400345D
:0C01200053345434533400342F34003472
:1001300019308316031399002430980090308312ED
:10014000031398000800F900F701F801B128013005
:10015000FF007F08F9070130F7070318F80A00309D
:10016000F80779088400831300080319B828B92810
:10017000CB28790884000008F500F6017508F00026
:100180007608F10073088A15BB268A11003A031D10
:10019000CA28CB28A7287808F4007708F3000800BD
:1001A000FD00D6280130FF007F08FD077D08840090
:1001B0002030831300060319DE28DF28D2287D08AB
:1001C0008400093000060319E628E728D228FB013D
:1001D000FC01FA017D0884002D300006031DF12882
:1001E000F228FB280130FF007F08FA070130FF00EA
:1001F0007F08FD0727297D0884002B300006031D9A
:100200000229032927290130FF007F08FD0727293C
:100210007D0884007C08F1007B08F0000A30F200C1
:100220000030F3008A15D7268A118313000870075F
:10023000F8000030031801307107F9007808D03E4B
:10024000FB0079080318013EFF3EFC0003297D08EE
:10025000840000088A1592268A1103183029312952
:1002600008297A0803193529362942297B09F8001B
:100270007C09F900F80A0319F90A7808F6007908E8
:10028000F70046297C08F7007B08F6000800831277
:10029000031385018601831603138501F33086005D
:1002A0000730831203139F008A1198208A110A30A5
:1002B00083120313D6000030D7001430DB00003067
:1002C000DC001A30C9004F30CA00C430CD000930FC
:1002D000CE00E830CF000330D00006178616061691
:1002E0000B3083120313D1005130D2005130D300B0
:1002F0005130D400D5015130A1005130A20051300D
:10030000A300A401061B8529862989290330D10071
:100310009629861A8C298D2990290830D100962992
:10032000061A9329942996290530D1002208D20073
:100330002308D3002408D400D5018530F0005230C2
:100340008A15FC268A1170087104031DA829A929A1
:10035000AD2983120313D101572A6130F0005230C6
:100360008A15FC268A1170087104031DB829B92961
:10037000BE2983120313D101D10A572A6530F00038
:1003800052308A15FC268A1170087104031DC92990
:10039000CA29CF29023083120313D100572A75309E
:1003A000F00052308A15FC268A1170087104031D72
:1003B000DA29DB29E029033083120313D100572AFD
:1003C0007930F00052308A15FC268A1170087104C9
:1003D000031DEB29EC29F129043083120313D1000A
:1003E000572A6930F00052308A15FC268A117008AD
:1003F0007104031DFC29FD29022A05308312031311
:10040000D100572A8130F00052308A15FC268A111B
:1004100070087104031D0D2A0E2A132A0930831255
:100420000313D100572A8930F00052308A15FC2678
:100430008A1170087104031D1E2A1F2A242A0A30FB
:1004400083120313D100572A6D30F00052308A1501
:10045000FC268A1170087104031D2F2A302A352AC0
:10046000063083120313D100572A7D30F00052303A
:100470008A15FC268A1170087104031D402A412A3E
:10048000462A073083120313D100572A7130F00037
:1004900052308A15FC268A1170087104031D512AF6
:1004A000522A572A083083120313D100572A8D305D
:1004B000FA0021308A1553278A1183120313D800BA
:1004C000D52F8D30FA0000308A1553278A118312F8
:1004D0000313D8008D30FA0000308A1553278A1193
:1004E00083120313D8008D30FA0000308A15532789
:1004F0008A1183120313D8008D30FA0000308A1558
:1005000053278A1183120313D80058080319892A24
:100510008A2A942A58088A11D0208A1177088312CF
:100520000313D7007608D6005708803AFF008030C2
:100530007F02031D9D2A01305602031CA02AA12A16
:10054000F72A83120313D901DA01E82A831203136D
:100550000514DD01DE01B52A00000130831203130A
:10056000DD070318DE0A0030DE075E08803AA000CF
:100570005C08803A2002031DBF2A5B085D02031C51
:10058000C22AC32AAC2A831203130510DD01DE013F
:10059000D22A0000013083120313DD070318DE0A9C
:1005A0000030DE075E08803AA0005C08803A200236
:1005B000031DDC2A5B085D02031CDF2AE02AC92A2E
:1005C000013083120313D9070318DA0A0030DA075F
:1005D0005A08803AA0005708803A2002031DF22AE8
:1005E00056085902031CF52AF62AA62A5D2BFF306D
:1005F000F000FF30F100831203135708F300560890
:10060000F2008A15D7268A11710883120313D700C6
:100610007008D600D901DA014F2B83120313851419
:10062000DD01DE011C2B0000013083120313DD0706
:100630000318DE0A0030DE075E08803AA0005C087E
:10064000803A2002031D262B5B085D02031C292B28
:100650002A2B132B831203138510DD01DE01392BA6
:100660000000013083120313DD070318DE0A003097
:10067000DE075E08803AA0005C08803A2002031D75
:10068000432B5B085D02031C462B472B302B0130AC
:1006900083120313D9070318DA0A0030DA075A085D
:1006A000803AA0005708803A2002031D592B5608B3
:1006B0005902031C5C2B5D2B0D2B59308A15A42687
:1006C0008A1170298D30FA0000308A1553278A115B
:1006D00083120313D8008D30FA0000308A15532797
:1006E0008A1183120313D8008D30FA0000308A1566
:1006F00053278A1183120313D80058080319812B3A
:10070000822B8C2B58088A11D0208A1177088312EB
:100710000313CC007608CB004C08F1004B08F00026
:100720004A08F3004908F2008A1599278A117108CE
:1007300083120313DC007008DB005B085C04031DFC
:10074000A22BA32BA72B0130DB000030DC001930DB
:100750008A15A4268A1170298D30FA0000308A1576
:1007600053278A1183120313D8008D30FA0000300A
:100770008A1553278A1183120313D8008D30FA008B
:1007800000308A1553278A1183120313D8008D3045
:10079000FA0000308A1553278A1183120313D800F8
:1007A0008D30FA0000308A1553278A118312031303
:1007B000D80058080319DD2BDE2BE82B58088A11C6
:1007C000D0208A11770883120313D7007608D60049
:1007D0005708803AFF0080307F02031DF12B013063
:1007E0005602031CF42BF52BA02C83120313D90102
:1007F000DA013C2C831203130514DD01DE01092C00
:100800000000013083120313DD070318DE0A0030F5
:10081000DE075E08803AA0005C08803A2002031DD3
:10082000132C5B085D02031C162C172C002C831262
:1008300003130510DD01DE01262C000001308312B8
:100840000313DD070318DE0A0030DE075E08803A76
:10085000A0005C08803A2002031D302C5B085D027A
:10086000031C332C342C1D2C013083120313D907A5
:100870000318DA0A0030DA075A08803AA00057084D
:10088000803A2002031D462C56085902031C492CAD
:100890004A2CFA2B83120313D901DA01912C83120B
:1008A00003138514DD01DE015E2C0000013083128C
:1008B0000313DD070318DE0A0030DE075E08803A06
:1008C000A0005C08803A2002031D682C5B085D02D2
:1008D000031C6B2C6C2C552C831203138510DD012B
:1008E000DE017B2C0000013083120313DD070318A7
:1008F000DE0A0030DE075E08803AA0005C08803A1D
:100900002002031D852C5B085D02031C882C892CAA
:10091000722C013083120313D9070318DA0A00304E
:10092000DA075A08803AA0005708803A2002031DCF
:100930009B2C56085902031C9E2C9F2C4F2C5B2D80
:10094000FF30F000FF30F100831203135708F3006B
:100950005608F2008A15D7268A11710883120313EC
:10096000D7007008D600D901DA01F82C83120313DE
:100970008514DD01DE01C52C000001308312031354
:10098000DD070318DE0A0030DE075E08803AA000AB
:100990005C08803A2002031DCF2C5B085D02031C1B
:1009A000D22CD32CBC2C831203138510DD01DE0165
:1009B000E22C0000013083120313DD070318DE0A66
:1009C0000030DE075E08803AA0005C08803A200212
:1009D000031DEC2C5B085D02031CEF2CF02CD92CC2
:1009E000013083120313D9070318DA0A0030DA073B
:1009F0005A08803AA0005708803A2002031D022DB1
:100A000056085902031C052D062DB62C831203131C
:100A1000D901DA014D2D831203130514DD01DE0126
:100A20001A2D0000013083120313DD070318DE0ABC
:100A30000030DE075E08803AA0005C08803A2002A1
:100A4000031D242D5B085D02031C272D282D112D6D
:100A5000831203130510DD01DE01372D0000013084
:100A600083120313DD070318DE0A0030DE075E0879
:100A7000803AA0005C08803A2002031D412D5B08EB
:100A80005D02031C442D452D2E2D013083120313CE
:100A9000D9070318DA0A0030DA075A08803AA000AA
:100AA0005708803A2002031D572D56085902031C8F
:100AB0005A2D5B2D0B2D21308A15A4268A11702901
:100AC0001030D6002730D700D901DA01AE2D8312BD
:100AD00003130514DD01DE01762D000001308312C1
:100AE0000313DD070318DE0A0030DE075E08803AD4
:100AF000A0005C08803A2002031D802D5B085D0287
:100B0000031C832D842D6D2D831203130510DD012D
:100B1000DE01932D0000013083120313DD0703185B
:100B2000DE0A0030DE075E08803AA0005C08803AEA
:100B30002002031D9D2D5B085D02031CA02DA12D2D
:100B40008A2D831203130618A62DA72DA82DBC2DC0
:100B50000130D9070318DA0A0030DA075A08803A58
:100B6000A0005708803A2002031DB82D56085902EC
:100B7000031CBB2DBC2D672D41308A15A4268A117C
:100B800070298D30FA0000308A1553278A1183129C
:100B90000313D80058080319CE2DCF2DD92D58088E
:100BA0008A11D0208A11770883120313D7007608A0
:100BB000D600D901DA01831203130514DD01DE0129
:100BC000EA2D0000013083120313DD070318DE0A4B
:100BD0000030DE075E08803AA0005C08803A200200
:100BE000031DF42D5B085D02031CF72DF82DE12D8C
:100BF000831203130510DD01DE01072E0000013012
:100C000083120313DD070318DE0A0030DE075E08D7
:100C1000803AA0005C08803A2002031D112E5B0878
:100C20005D02031C142E152EFE2D831203130618CD
:100C30001A2E1B2E1C2E2F2E0130D9070318DA0A6C
:100C40000030DA075A08803AFF00A7307F02031D00
:100C50002B2E10305902031C2E2E2F2EDB2D83122B
:100C60000313D901DA01762E831203138514DD01F3
:100C7000DE01432E0000013083120313DD07031849
:100C8000DE0A0030DE075E08803AA0005C08803A89
:100C90002002031D4D2E5B085D02031C502E512EB9
:100CA0003A2E831203138510DD01DE01602E000051
:100CB000013083120313DD070318DE0A0030DE075C
:100CC0005E08803AA0005C08803A2002031D6A2E6C
:100CD0005B085D02031C6D2E6E2E572E01308312B1
:100CE0000313D9070318DA0A0030DA075A08803AE2
:100CF000A0005708803A2002031D802E5608590292
:100D0000031C832E842E342E49308A15A4268A1182
:100D10007029D901DA01831203130514DD01DE0104
:100D20009A2E0000013083120313DD070318DE0A38
:100D30000030DE075E08803AA0005C08803A20029E
:100D4000031DA42E5B085D02031CA72EA82E912E66
:100D5000831203130510DD01DE01B72E0000013000
:100D600083120313DD070318DE0A0030DE075E0876
:100D7000803AA0005C08803A2002031DC12E5B0867
:100D80005D02031CC42EC52EAE2E8312031306185B
:100D9000CA2ECB2ECC2EDF2E0130D9070318DA0A4B
:100DA0000030DA075A08803AFF00A7307F02031D9F
:100DB000DB2E10305902031CDE2EDF2E8B2E831209
:100DC0000313D901DA01262F831203138514DD01E1
:100DD000DE01F32E0000013083120313DD07031838
:100DE000DE0A0030DE075E08803AA0005C08803A28
:100DF0002002031DFD2E5B085D02031C002F012F46
:100E0000EA2E831203138510DD01DE01102F00008E
:100E1000013083120313DD070318DE0A0030DE07FA
:100E20005E08803AA0005C08803A2002031D1A2F59
:100E30005B085D02031C1D2F1E2F072F013083123C
:100E40000313D9070318DA0A0030DA075A08803A80
:100E5000A0004E08803A2002031D302F4D08590291
:100E6000031C332F342FE42E29308A15A4268A112F
:100E70007029D901DA017E2F831203138514DD0155
:100E8000DE014B2F0000013083120313DD0703182E
:100E9000DE0A0030DE075E08803AA0005C08803A77
:100EA0002002031D552F5B085D02031C582F592F8C
:100EB000422F831203138510DD01DE01682F00002D
:100EC000013083120313DD070318DE0A0030DE074A
:100ED0005E08803AA0005C08803A2002031D722F51
:100EE0005B085D02031C752F762F5F2F0130831284
:100EF0000313D9070318DA0A0030DA075A08803AD0
:100F0000A0005008803A2002031D882F4F08590284
:100F1000031C8B2F8C2F3C2F39308A15A4268A1165
:100F200070298D30FA0000308A1553278A118312F8
:100F30000313D800580803199E2F9F2FA92F580874
:100F40008A11D0208A11770883120313CE00760805
:100F5000CD0031308A15A4268A1170298D30FA000F
:100F600000308A1553278A1183120313D8005808BA
:100F70000319BB2FBC2FC62F58088A11D0208A1105
:100F8000770883120313D0007608CF0051308A15FA
:100F9000A4268A1170290F308A15A4268A11702977
:100FA00001308A15A4268A1170295108003A0319C4
:100FB000612A013A0319622B033A0319AC2B013A57
:100FC0000319602D073A0319C12D013A0319892E1F
:100FD000033A0319912F013A0319AE2F0F3A03195F
:100FE000392F013A0319D02F033A0319CB2F702957
:100FF0008A11002883120313DF0183018A11472914
:101D1000F000831203130C1E8E2E8F2E892E700856
:101D200099000800F100F0013A3071020318992E71
:101D30009A2EA22E30307102031C9F2EA02EA22EAE
:101D4000F001F00A700C0800F3007030F100AC2EC6
:101D500072088A1588268A150130F307FF30730749
:101D600084008A1102208A15F2007208031DB92E20
:101D7000BA2EA82E0800F200720884008A110220F0
:101D80008A157006031DC52EC62EC82E7208D62EC3
:101D90000130F207FF30720784008A1102208A1591
:101DA000003A031DD42ED52EBC2E00300800F401BD
:101DB000F501701CDC2EDD2EE32E7208F4070318EB
:101DC000F50A7308F50701300310F20DF30DFF3E1D
:101DD000031DE42E01300310F10CF00CFF3E031D37
:101DE000EB2E70087104031DF62EF72ED92E750800
:101DF000F1007408F0000800F500062F0130FF0024
:101E00007F08F5070130FF007F08F00770088400A5
:101E10008A1102208A15F2007508840083130008D5
:101E2000F30072087302F4007408031D182F192FB1
:101E3000202F750884000008031D1F2F202FFE2E61
:101E40007408F000F101F01BF1030800F900F7013C
:101E5000F801342F0130FF007F08F9070130F70740
:101E60000318F80A0030F807790884008313000883
:101E700003193B2F3C2F4E2F790884000008F500F2
:101E8000F6017508F0007608F10073088A15BB2684
:101E90008A15003A03194D2F4E2F2A2F7808F40087
:101EA0007708F3000800FB007B08031D582F592F0B
:101EB0005D2F831203135F08FB007B08031D612F56
:101EC000622F642F0030982F7A08F3007B088A1164
:101ED000A3208A157308FF007F08FB077B08840096
:101EE00083130008031D752F762F7B2F8312031396
:101EF000DF010030982F7A08F3007B088A15262727
:101F00008A1573087B0783120313DF005F088400C0
:101F10008313000803198D2F8E2F962F5F088400DE
:101F200080010130FF007F08DF07972FDF017B086A
:101F30000800F501F11F9D2F9E2FA52FF009F10933
:101F4000F00A0319F10AF501F50AF31FA82FA92FCA
:101F5000B22FF209F309F20A0319F30A0130FF0064
:101F60007F08F506F601F701700871040319B92F0F
:101F7000BA2FF12FF401F40AC82F01300310F00D2D
:101F8000F10DFF3E031DBE2F0130FF007F08F40757
:101F9000F11FCB2FCC2FBD2F01300310F60DF70D05
:101FA000FF3E031DCD2F71087302031DD92F70084A
:101FB0007202031CDC2FDD2FE42F7008F20271087F
:101FC000031CF303F302761401300310F10CF00C40
:101FD000FF3E031DE52F0130F402031DF02FF12F0A
:101FE000CC2F75080319F52FF62FFB2FF609F709EB
:101FF000F60A0319F70A7708F1007608F0000800DE
:08400000FF3FFF3FFF3FFF3FC0
:02400E00783FF9
:00000001FF
