:0400000080313128F2
:1000060008007E14803100308600003087000B1F08
:100016000D280E282F282100111E122813281F280C
:100026002000111E172818281F2821006D088A0095
:100036006C080A0080312F282100911E23282428CD
:100046002F282000911E282829282F2821006B08F8
:100056008A006A080A0080317E1009008031332840
:10006600C4308400263085002C30FE000130FF00AD
:100076008C31D3248031FA01FB015B3084000030DF
:1000860085001430FE000030FF008C31D32480310F
:10009600A0308400003085004630FE000030FF00AE
:1000A6008C31D32480317E10200080315A288E3145
:1000B6009F2680318E31F02680318D312225803188
:1000C6008D31352580318C31692480318C31712414
:1000D60080318C31792480318C31812480318C318E
:1000E6008A2480318C31B02480318B170B178F31E5
:1000F600C027803151302000D5005130D600513014
:10010600D700D801C4308600263087005130C03F62
:10011600C430860026308700413151308100C4301A
:10012600860026308700423151308100C430860077
:100136002630870043318101C430A0002630A1005B
:100146002C30A2000130A3008631A4268031C430B1
:10015600F2002630F3008D31B7258031003073026E
:100166000330031972020318B928BA28BB287D2860
:10017600C430860026308700413101082000D500B2
:10018600C43086002630870042310108D600C430CC
:1001960086002630870043310108D700D801553044
:1001A600F200E530F3009030F4008E31C426803141
:1001B60072087304031DE028E128E4282000D0011A
:1001C6007B295530F200ED30F3009030F4008E318B
:1001D600C426803172087304031DF228F328F72819
:1001E60001302000D0007B295530F200E130F300C9
:1001F6009030F4008E31C426803172087304031DDA
:10020600052906290A2902302000D0007B2955300D
:10021600F200DD30F3009030F4008E31C4268031D8
:1002260072087304031D182919291D29033020009B
:10023600D0007B295530F200CD30F3009030F40029
:100246008E31C426803172087304031D2B292C2994
:10025600302904302000D0007B295530F200D130FF
:10026600F3009030F4008E31C42680317208730496
:10027600031D3E293F29432905302000D0007B2954
:100286005530F200D530F3009030F4008E31C4269C
:10029600803172087304031D5129522956290630EC
:1002A6002000D0007B295530F200D930F300903081
:1002B600F4008E31C426803172087304031D64294C
:1002C6006529692907302000D0007B295530F200C6
:1002D600E930F3009030F4008E31C4268031720884
:1002E6007304031D772978297B2908302000D00064
:1002F600C4302000A8002630A900F130AA009030B2
:10030600AB0086314A268031FD2B0030A800A900BB
:10031600F130AA009030AB0086314A2680312000A9
:100326002908DA002808D90059085A0403199C2913
:100336009D29A7295A08F9005908F800853113257F
:10034600803178082000E9006908031DAB29AC2933
:10035600AF2922008D11B6296903031DB329B429DB
:10036600B62922008D15C2302000BD009030BE0097
:100376006908C800C9014808BF004908C0008C3197
:10038600EE2480317D280030A800A900F130AA00B3
:100396009030AB0086314A26803120002908DA00E9
:1003A6002808D90059085A040319DA29DB29E5294E
:1003B6005A08F9005908F800853113258031780864
:1003C6002000E8006808031DE929EA29F52922002A
:1003D6008D140D103C30F2000030F3008731EB270E
:1003E6008031FE296803031DF929FA29FE29220016
:1003F6008D100D14ED295E302000BD009030BE003A
:100406006808C800C9014808BF004908C0006A0852
:10041600CA00CB014A08C1004B08C2008C31EE2449
:1004260080317D280030A800A900F130AA00903064
:10043600AB0086314A26803120002908DA002808D8
:10044600D90059085A040319292A2A2A3B2A5A0884
:10045600F9005908F80085311325803178087904A8
:10046600031D362A382A0130392A00302000EA00D6
:10047600B730BD009030BE006A08C800C901480800
:10048600BF004908C0008C31EE2480317D28003041
:10049600A800A900F130AA009030AB0086314A26A8
:1004A600803120002908DA002808D90059085A04A2
:1004B60003195E2A5F2ABC2A5A08F9005908F8006F
:1004C60085311325803178082000D1007908D200C3
:1004D600890D893B8909D300D4005408031D7C2A61
:1004E6005308031D7C2A01305202031C7B2A7C2AF6
:1004F600852A00302000D4000030D3000030D2001E
:10050600FF30D10020005408F5005308F4005208CB
:10051600F3005108F2000030F9000030F800013015
:10052600F7002230F6008F318A27803172082000CA
:10053600C8007308C9007408CA007508CB000830E3
:10054600CB36CA0CC90CC80C890BA32A1E30480727
:10055600D1000030493DD20000304A3DD300003082
:100566004B3DD4005208F3005108F2008D3172253C
:100576008031AC302000BD009030BE005408C2006F
:100586005308C1005208C0005108BF008C31EE2448
:1005960080317D280030A800A900F130AA009030F3
:1005A600AB0086314A26803120002908DA00280867
:1005B600D90059085A040319E12AE22A072B5A08D6
:1005C600F9005908F8008531132580317808200094
:1005D600CC004C08C800C9014808F2004908F300DD
:1005E600C830F4000030F5008E315D268031730886
:1005F6002000CC004C08C800C9014808F200490890
:10060600F3008D318925803180302000BD00903087
:10061600BE004C08C800C9014808BF004908C00010
:100626008C31EE2480317D280030A800A900F130FD
:10063600AA009030AB0086314A2680312000290876
:10064600DA002808D90059085A0403192B2B2C2B39
:10065600512B5A08F9005908F800853113258031C5
:1006660078082000CD004D08C800C9014808F200EE
:100676004908F300C830F4000030F5008E315D26DD
:10068600803173082000CD004D08C800C901480814
:10069600F2004908F3008D31A02580318B3020000F
:1006A600BD009030BE004D08C800C9014808BF0013
:1006B6004908C0008C31EE2480317D280030A80026
:1006C600A900F130AA009030AB0086314A2680316D
:1006D60020002908DA002808D90059085A04031905
:1006E600752B762B9B2B5A08F9005908F800853193
:1006F6001325803178082000CE004E08C800C901B5
:100706004808F2004908F300C830F4000030F5004C
:100716008E315D26803173082000CE004E08C80059
:10072600C9014808F2004908F3008D314825803197
:1007360096302000BD009030BE004E08C800C901AA
:100746004808BF004908C0008C31EE2480317D285E
:100756000030A800A900F130AA009030AB00863125
:100766004A26803120002908DA002808D9005908CD
:100776005A040319BF2BC02BE52B5A08F900590858
:10078600F80085311325803178082000CF004F0806
:10079600C800C9014808F2004908F300C830F4004F
:1007A6000030F5008E315D26803173082000CF00C1
:1007B6004F08C800C9014808F2004908F3008D3106
:1007C6005D258031A1302000BD009030BE004F086D
:1007D600C800C9014808BF004908C0008C31EE2492
:1007E60080317D287030BD009030BE008C31EE2403
:1007F60080317D2820005008C800C9014908003A08
:100806000319062C7D284808003A03198829013A5D
:100816000319C629033A0319152A013A03194A2A64
:10082600073A0319CD2A013A0319172B033A03197C
:10083600612B013A0319AB2B0F3A0319F52B7D28CF
:10084600803131282000270886008701403FA90013
:10085600413FAA00290884002A0885001200253A8B
:10086600031D362C372CF82C27088600870101300B
:10087600810741310318810A2100E001E1010030BE
:100886002000E700FF302100E200FF30E3002000F7
:10089600270886008701403FAE00413FAF002E0883
:1008A60084002F0885001200643A03195B2C5C2C27
:1008B600662C2E0884002F0885001200693A031D55
:1008C600652C662CEE2C280886008701010884001A
:1008D600850102308107003FB000013FB1002E08BC
:1008E600013EA90000302F3DAA0027088600870197
:1008F6002908C03F2A08C13F2030B400B11B842C10
:10090600862C0130872C0030AD000130B40234084B
:10091600A03E860087010A30F2000030F30031085D
:10092600F5003008F4008631FE2684317308F9009C
:100936007208F8008C31FE2484317808303E81003C
:100946000A30F2000030F30020003108F5003008CC
:10095600F4008531EF25843173082000B100720858
:10096600B000300831040319B92CBA2CBF2C340856
:10097600031DBE2CBF2C882C34080319C32CC42C91
:10098600E72C2D080319C82CC92CE72C0130B4021A
:100996003408A03E860087012D308100E72C3408FC
:1009A600A03E860087010108A900AA012908F500D2
:1009B6002A08F6002608F8002508F7008531912553
:1009C600843101302000B40720303406031DEC2C9E
:1009D600ED2CD22C122D200027088600870101302D
:1009E600810741310318810A122D270886008701E5
:1009F600403FA900413FAA00290884002A08850033
:100A06000008AB00AC012B08F5002C08F600260800
:100A1600F8002508F700853191258431EE2C080071
:100A26002000A301A401A2011C2D0130F80700300B
:100A3600F93D7808860079088700203001060319F9
:100A4600252D262D182D7808860079088700F73081
:100A560001072000A00005302002031C332D342D91
:100A6600182D78088600790887002D300106031DA9
:100A76003D2D3E2D452D0130A2000130F8070030F6
:100A8600F93D6E2D78088600790887002B3001061F
:100A9600031D4E2D4F2D6E2D402D780886007908AA
:100AA60087002408F3002308F2000A30F40000301F
:100AB600F5008E315D26853173082000A1000108FE
:100AC6007202A000031CA1032008303EA3000030E0
:100AD600213DA400402D7808860079088700D03093
:100AE6000107A0000A302002031C7A2D7B2D502D11
:100AF6002208031D7F2D802D8C2D2309A00024099B
:100B0600A100A00A0319A10A2008F8002108F9008B
:100B1600902D2408F9002308F800080077087804C7
:100B26000319962D972D9D2D77087804031D9C2D6E
:100B36009D2DA22D75088C31DF248531EE2D770889
:100B46008600780887004931160001040319AC2D88
:100B5600AD2DCE2D77088600780887004931403FB5
:100B66002000A000413FA100770886007808870092
:100B76004231403FA200413FA3002308803AA4002F
:100B86002108803A2402031DCA2D200822020318D8
:100B9600CD2DCE2DEE2D77088600780887004231C0
:100BA6007708840078088500003F2000A000013FF8
:100BB600A100403F20078400413F213D8500750884
:100BC6008000770886007808870042310130810767
:100BD60041310318810A0800F701F31FF32DF42DA4
:100BE600FB2DF209F309F20A0319F30A0130F700A3
:100BF600F51FFE2DFF2D062EF409F509F40A03193B
:100C0600F50A0130F706F801F901720873040319B1
:100C16000D2E0E2E3B2E0130F600182E0130F23529
:100C2600F30D890B122E0130F607F31F1B2E1C2E17
:100C3600112E0130F835F90D890B1D2E730875023A
:100C4600031D272E72087402031C2A2E2B2E302E0B
:100C56007208F4027308F53B78140130F336F20C8F
:100C6600890B312E0130F602031D3A2E3B2E1C2E27
:100C7600770803193F2E402E452EF809F909F80A80
:100C86000319F90A7908F3007808F2000800200031
:100C960028082904031D502E512E5E2E5C08A9003B
:100CA6005B08A80028082904031D5A2E5B2E5E2E19
:100CB600A801A901A32E2908A1002808A0002B0835
:100CC600A3002A08A2008F3156278631200020086B
:100CD600A8072108A93D28088600290887000108D9
:100CE600031D762E772E7C2EDB01DC01A801A901DF
:100CF600A32E2908A1002808A0002B08A3002A0873
:100D0600A2008F3122278631200020082807DB0029
:100D16002108293DDC005B0886005C088700010885
:100D26000319962E972EA12E5B0886005C08870075
:100D360081010130DB070030DC3DA32EDB01DC0145
:100D460008002000A701A8012108F3002008F200EE
:100D56000030F400F5002308F7002208F6008E3173
:100D660005268631E52E8D31102586317408200042
:100D7600A60026088C31DF2486310D302000260699
:100D86000319C62EC72ECD2E0A302606031DCC2EDD
:100D9600CD2ED92E2708200786002808213D87005A
:100DA60081010A308C31DF248631FD2E2708200789
:100DB60086002808213D8700260881000130A70704
:100DC6000030A83D20002208FF3EA400FF30233D4E
:100DD600A50025082802031DF22E24082702031C5D
:100DE600F52EF62EB62E2708200786002808213D68
:100DF600870081010800F701F51F022F032F0A2F34
:100E0600F409F509F40A0319F50A0130F700F31F8E
:100E16000D2F0E2F132FF209F309F20A0319F30A05
:100E2600720873040319182F192F402F0130F6008A
:100E3600232F0130F235F30D890B1D2F0130F607F4
:100E4600F31F262F272F1C2F73087502031D2D2F26
:100E560072087402031C302F312F352F7208F402EA
:100E66007308F53B0130F336F20C890B362F01304F
:100E7600F602031D3F2F402F272F77080319442F13
:100E8600452F4A2FF409F509F40A0319F50A7508DE
:100E9600F3007408F200080022008C018D018E0117
:100EA600FF3021008C00E4308D0080308E00083049
:100EB60090003F3023008C0020308D008E01FF30E3
:100EC60024008C00E0308D008E0108309000210057
:100ED600971325008C018D018E01FF3026008C00B2
:100EE600E0308D008E01FF3027008C00E0308D0051
:100EF6008E010830900017303C00BD0019303D00CF
:100F0600A3001A30A4001B30A5002430A600173019
:100F1600A2001630A1001530A00027009101920111
:100F260093019401950196019701980199019D01FC
:100F36009E019F0108007B35C03E86008701003078
:100F4600C03FC13F23009D1CA92FAA2FBB2F7B3575
:100F5600C03E86008701011520005D085E04031966
:100F6600B52FB62FBB2F5E088A005D080A008731B1
:100F760023001D1DBF2FC02FD12F7B35C03E8600FD
:100F86008701811420005F0860040319CB2FCC2F42
:100F9600D12F60088A005F080A00873123001908EC
:100FA600F0007B08013E0739F10071087A06031D3F
:100FB600DD2FDE2FDF2FEA2F7B08D03E860087014C
:100FC600700881007108FB0001302000EB07080063
:100FD6007308F5007208F400F536F40CF536F40CD7
:100FE60074082C009B0072080339F4000630F435AF
:0A0FF600890BFA2F74089A00080016
:1018B20023001D121D160800783021009B009D0197
:1018C2009A01080073082000E6007208E50008008B
:1018D2008F302500930092019101FC309E05080093
:1018E2008F302500970096019501F3309E05080080
:1018F2008F3025009B009A019901CF309E05080088
:1019020080302C00960095019401FC3025009F0543
:10191200080080302C00990098019701F3302500CF
:101922009F05080020006C08031D982C9A2C01309A
:101932009B2C0030080020006B08031DA12CA32C57
:101942000130A42C003008008B1021001717003042
:10195200F2000030F3008C3163248C3108008030B7
:101962002C009C009B019A0125001F08CF391038DA
:101972009F000800720873040319C02CC12CC62CE6
:1019820073082000E0007208DF0008007208730488
:101992000319CC2CCD2CD22C73082000DE00720847
:1019A200DD0008006400800101310130FE020030D8
:1019B200FF3B7F087E04031DD42C0034F4008C31DD
:1019C20093248C31003A0319E72CE82CE02C74089C
:1019D200F2008E317C268C3108003F302000C3009B
:1019E2000030B500B6003E08B8003D08B7004330ED
:1019F200B9008E3121268C310800F91B012D022DF0
:101A0200032D0F2D78092000A0007909A100A00A5A
:101A12000319A10A2008F8002108F90008008C31F6
:101A22009C248D31003A0319172D182D102D8D315C
:101A3200D0258D31F600F7017608F4007708F5001D
:101A42000800013029009700960198014F30940058
:101A5200930100302100E8000030E90020009110DD
:101A62008030290095000800013028009700960177
:101A72009801C7309400930100302100E600003045
:101A8200E700200014108030280095000800730839
:101A9200F5007208F400F536F40CF536F40C74080F
:101AA2002C00950072080339F4000630F435890BD6
:101AB200572D7408940008007308F5007208F400AA
:101AC200F536F40CF536F40C74082C009800720804
:101AD2000339F4000630F435890B6C2D7408970035
:101AE20008007308F5007208F400FF30F4050330B3
:101AF200F5052500131E7E2D7F2D842D0630F4352D
:101B0200F50D890B802D750892007408910008006C
:101B12007308F5007208F400FF30F4050330F50590
:101B22002500171E952D962D9B2D0630F435F50DAB
:101B3200890B972D750896007408950008007308A4
:101B4200F5007208F400FF30F4050330F5052500B6
:101B52001B1EAC2DAD2DB22D0630F435F50D890BC3
:101B6200AE2D75089A007408990008007308F500F4
:101B72007208F400C02D0130F2070030F33D720804
:101B82008600730887000108031DC82DC92DBC2DCE
:101B920074087202F2007508733BF30008007A08B9
:101BA200D03E860087010108F3007A08013E07391A
:101BB200F2007208FA002100911220006B0803194A
:101BC200E32DE42DE62D0130EB022100911673087E
:101BD2000800083020006C020318F02DF12D022EAF
:101BE2006D08D83E86008701010823009A00200074
:101BF2006D08013E0739F0007008ED000130EC0776
:101C0200042E2100111208007308F9007208F8006E
:101C1200142E780886007908870074088100013044
:101C2200F8070030F93D0130F6020030F73B760A42
:101C3200031D1F2E770A031D1F2E202E0A2E0800B9
:101C420020003808BC003708BB00322E3608A60038
:101C52003508A5003B30A7003908A80084312524A7
:101C62008E3120003B0884003C0885001200031DD1
:101C72003B2E3C2E272EB501B601080072088400C7
:101C82007308850000087406031D482E492E4A2E4B
:101C92005C2E7308F7007208F600F20A0319F30AC1
:101CA20076088400770885001200031D592E5A2EEB
:101CB2003F2EF201F3010800F601F701721C622EB9
:101CC200632E672E7408F6077508F73D0130F43568
:101CD200F50D890B682E0130F336F20C890B6D2E4F
:101CE20072087304031D762E772E5F2E7708F30099
:101CF2007608F20008002100111A802E812E852E0E
:101D0200720823009A009C2E20006C0803198A2E68
:101D12008B2E9C2E6E08D83E8600870172088100A9
:101D22006E08013E0739F3007308EE00210011121C
:101D320001302000EC022100111608008C315D24D4
:101D42008E3187314F278E318C3169248E318C311F
:101D520071248E318C3179248E318D3122258E3150
:101D62008D3135258E318E31F0268E318C318124A4
:101D72008E318C318A248E318C31B0248E318C316B
:101D8200A5248E310800CB2E0130F2070130F30773
:101D92000030F43D73088400740885000008F500E3
:101DA20072088600870101087506031DD92EDA2EF6
:101DB200E22E7208860087010108031DE12EE22E41
:101DC200C52E720886008701730884007408850096
:101DD20000080102F200F301031CF30308002100D2
:101DE20091129E30EA000730EB001112EA30EC004B
:101DF2000D30ED00483023009F0090309D002630CA
:101E02009E00A0309B0001309C000330F2000030A5
:101E1200F3008C31BB248E315930F2000C30F300C8
:101E22008C31C7248E312100E401E5012000EE014E
:101E3200ED010830EC00FB01FA01EB0121009116E3
:101E420008002000A601A7012F2F01302000A007C3
:101E52000030A13D0130A6070030A73D20088600D2
:101E62002108870001080319372F382F502F230824
:101E7200F3002208F20020088600210887000108EA
:101E8200A400A5012408F4002508F5008E313F26A0
:101E92008F317208730403194F2F502F262F200001
:101EA2002708A1002608A00008002000A601A7011B
:101EB200632F01302000A0070030A13D0130A607AA
:101EC2000030A73D20088600210887000108031979
:101ED2006B2F6C2F842F2308F3002208F2002008B6
:101EE2008600210887000108A400A5012408F40047
:101EF2002508F5008E313F268F3172087304031DC9
:101F0200832F842F5A2F20002708A1002608A00023
:101F1200080000302000A3000030A2000030A10021
:101F22000030A000721C962F972FA02F7608200059
:101F3200A0077708A13D7808A23D7908A33D0130AA
:101F4200F635F70DF80DF90D890BA12F0130F53695
:101F5200F40CF30CF20C890BA82F750874047304AB
:101F62007204031DB52FB62F932F20002308F5000E
:101F72002208F4002108F3002008F20008002000E3
:101F8200C601C70102302000C5000430C400BA30C7
:101F9200890BC92FC40BC92FC50BC92F0000220002
:101FA2000D0E2000C400440C0139C4000130C406E7
:101FB200C40EC40D22000D0820004406DF39440679
:101FC20022008D0001302000C6070030C73D4708BF
:101FD200803AC40080304402031DF12F14304602BF
:101FE200031CF42FF52FC32F22008D163030200052
:101FF200BD009030BE008C31EE248F310800F034E9
:102002000E3400340034D0340D347C340E349C341D
:102012000C3493340C340034003400340034003473
:10202200003400340034003400340034003400340E
:1020320000340034003400340034003400340034FE
:102042000034003400340034003400340034BB3433
:102052000C34C7340C3400340034003400345334AC
:1020620079347334743465346D34203469346E34A5
:1020720069347434693461346C3469347A34613467
:10208200743469346F346E34203468346134733498
:1020920020346234653465346E34203463346F34F2
:1020A2006D3470346C3465347434653464342E3475
:1020B200213421340D340A34003443340934533486
:1020C20048345434093425346434093448344134AE
:1020D2004C340934253464340D340A340034433426
:1020E2000934563445345234533449344F344E341F
:1020F200203431342E3430340D340A340034433435
:1021020009345234473431340934253464340D34BB
:102112000A340034433409345234473432340934F3
:10212200253464340D340A340034433409345234CF
:10213200473433340934253464340D340A340034DA
:102142004334093452344734343409342534643442
:102152000D340A3400344334093443344F344134A7
:102162000934253464340D340A34003443340934D8
:10217200483441344C340934253464340D340A343F
:102182000034433409344C34443450340934253453
:1021920064340D340A340034523447343134003458
:1021A20052344734323400345234473433340034F6
:1021B200523447343434003443344F3441340034DD
:1021C200483441344C3400344C34443450340034B8
:1021D2005634453452340034533448345434003481
:0421E2002F34003462
:020000040001F9
:04000E00E43FFF3E8E
:00000001FF
