:0400000080313128F2
:1000060008007E14803100308600003087000B1F08
:100016000D280E282F282100111E122813281F280C
:100026002000111E172818281F2821006D088A0095
:100036006C080A0080312F282100911E23282428CD
:100046002F282000911E282829282F2821006B08F8
:100056008A006A080A0080317E1009008031332840
:10006600C4308400263085002C30FE000130FF00AD
:100076008C3174248031FA01FB015B30840000303E
:1000860085001430FE000030FF008C31742480316E
:10009600A0308400003085004630FE000030FF00AE
:1000A6008C31742480317E10200080315A288E31A4
:1000B600552680318E31A62680318C31C32480317D
:1000C6008C31D62480318C31122480318C311A2423
:1000D60080318731F82780318C31222480318C3170
:1000E6002B2480318C31512480318B170B178F31A3
:1000F6007627803151302000D5005130D60051305E
:10010600D700D801C4308600263087005130C03F62
:10011600C430860026308700413151308100C4301A
:10012600860026308700423151308100C430860077
:100136002630870043318101C430A0002630A1005B
:100146002C30A2000130A3008631FE268031C43057
:10015600F2002630F3008D316D25803100307302B8
:100166000330031972020318B928BA28BB287D2860
:10017600C430860026308700413101082000D500B2
:10018600C43086002630870042310108D600C430CC
:1001960086002630870043310108D700D801553044
:1001A600F200E530F3009030F4008E317A2680318B
:1001B60072087304031DE028E128E4282000D0011A
:1001C6007B295530F200ED30F3009030F4008E318B
:1001D6007A26803172087304031DF228F328F72863
:1001E60001302000D0007B295530F200E130F300C9
:1001F6009030F4008E317A26803172087304031D24
:10020600052906290A2902302000D0007B2955300D
:10021600F200DD30F3009030F4008E317A26803122
:1002260072087304031D182919291D29033020009B
:10023600D0007B295530F200CD30F3009030F40029
:100246008E317A26803172087304031D2B292C29DE
:10025600302904302000D0007B295530F200D130FF
:10026600F3009030F4008E317A26803172087304E0
:10027600031D3E293F29432905302000D0007B2954
:100286005530F200D530F3009030F4008E317A26E6
:10029600803172087304031D5129522956290630EC
:1002A6002000D0007B295530F200D930F300903081
:1002B600F4008E317A26803172087304031D642996
:1002C6006529692907302000D0007B295530F200C6
:1002D600E930F3009030F4008E317A2680317208CE
:1002E6007304031D772978297B2908302000D00064
:1002F600C4302000A8002630A900F130AA009030B2
:10030600AB008631A4268031572C0030A800A90006
:10031600F130AA009030AB008631A426803120004F
:100326002908DA002808D90059085A0403199C2913
:100336009D29A7295A08F9005908F80085316D2525
:10034600803178082000E9006908031DAB29AC2933
:10035600AF2922008D11B6296903031DB329B429DB
:10036600B62922008D15C2302000BD009030BE0097
:100376006908C800C9014808BF004908C0008C3197
:100386008F2480317D280030A800A900F130AA0012
:100396009030AB008631A426803120002908DA008F
:1003A6002808D90059085A040319DA29DB29E5294E
:1003B6005A08F9005908F80085316D25803178080A
:1003C6002000E8006808031DE929EA29302A0030E0
:1003D600F200F3008D311325803134302000C8003F
:1003E600F130890BF429C80BF429003222008D1450
:1003F6000D102030F2000330F3008D3113258031CB
:1004060049302000C800B930890B072AC80B072AD3
:10041600E030F2000130F3008D31132580311530C4
:100426002000C800C630890B162AC80B162A000001
:10043600F030F2000030F3008D31132580314E305C
:100446002000C800EB30890B262AC80B262A20007C
:100456000D0C890C0139EA007B2A6803031D342A36
:10046600352A7B2A0030F200F3008D3113258031C6
:1004760034302000C800F130890B3F2AC80B3F2AD0
:10048600003222008D100D142030F2000330F300EC
:100496008D311325803159302000C8004E30890B2C
:1004A600522AC80B522A00008030F2000230F300B4
:1004B6008D311325803120302000C8002930890B6A
:1004C600622AC80B622A00324030F2000130F30083
:1004D6008D31132580313A302000C8002330890B36
:1004E600722AC80B722A20000D0C890C0139EA0009
:1004F6005E30BD009030BE006808C800C9014808DB
:10050600BF004908C0006A08CA00CB014A08C100FA
:100516004B08C2008C318F2480317D280D0C890C4C
:100526000139EA00B730BD009030BE006A08C80045
:10053600C9014808BF004908C0008C318F248031AA
:100546007D280030A800A900F130AA009030AB0049
:100556008631A426803120002908DA002808D9002F
:1005660059085A040319B82AB92A162B5A08F90049
:100576005908F80085316D25803178082000D100B2
:100586007908D200890D893B8909D300D400540823
:10059600031DD62A5308031DD62A01305202031C16
:1005A600D52AD62ADF2A00302000D4000030D30016
:1005B6000030D200FF30D10020005408F500530867
:1005C600F4005208F3005108F2000030F900003040
:1005D600F8000130F7002230F6008F3140278031D5
:1005E60072082000C8007308C9007408CA0075089C
:1005F600CB000830CB36CA0CC90CC80C890BFD2AB7
:100606001E304807D1000030493DD20000304A3D37
:10061600D30000304B3DD4005208F3005108F200DD
:100626008D3128258031AC302000BD009030BE00D1
:100636005408C2005308C1005208C0005108BF0048
:100646008C318F2480317D280030A800A900F1303C
:10065600AA009030AB008631A426803120002908FC
:10066600DA002808D90059085A0403193B2B3C2BF9
:10067600612B5A08F9005908F80085316D2580313B
:1006860078082000CC004C08C800C9014808F200D0
:100696004908F300C830F4000030F5008E31132607
:1006A600803173082000CC004C08C800C9014808F6
:1006B600F2004908F3008D313F258031803020005B
:1006C600BD009030BE004C08C800C9014808BF00F4
:1006D6004908C0008C318F2480317D280030A80065
:1006E600A900F130AA009030AB008631A4268031F3
:1006F60020002908DA002808D90059085A040319E5
:10070600852B862BAB2B5A08F9005908F800853142
:100716006D25803178082000CD004D08C800C9013C
:100726004808F2004908F300C830F4000030F5002C
:100736008E311326803173082000CD004D08C80085
:10074600C9014808F2004908F3008D315625803169
:100756008B302000BD009030BE004D08C800C90196
:100766004808BF004908C0008C318F2480317D289D
:100776000030A800A900F130AA009030AB00863105
:10078600A426803120002908DA002808D900590853
:100796005A040319CF2BD02BF52B5A08F900590808
:1007A600F80085316D25803178082000CE004E088E
:1007B600C800C9014808F2004908F300C830F4002F
:1007C6000030F5008E311326803173082000CE00EC
:1007D6004E08C800C9014808F2004908F3008C31E8
:1007E600E924803196302000BD009030BE004E08CE
:1007F600C800C9014808BF004908C0008C318F24D1
:1008060080317D280030A800A900F130AA00903080
:10081600AB008631A426803120002908DA0028089A
:10082600D90059085A040319192C1A2C3F2C5A08B6
:10083600F9005908F80085316D25803178082000C7
:10084600CF004F08C800C9014808F2004908F30064
:10085600C830F4000030F5008E311326803173085D
:100866002000CF004F08C800C9014808F200490817
:10087600F3008C31FE248031A1302000BD00903081
:10088600BE004F08C800C9014808BF004908C0009B
:100896008C318F2480317D287030BD009030BE00B1
:1008A6008C318F2480317D2820005008C800C90172
:1008B6004908003A0319602C7D284808003A0319B4
:1008C6008829013A0319C629033A0319912A013ADC
:1008D6000319A42A073A0319272B013A0319712B86
:1008E600033A0319BB2B013A0319052C0F3A0319D6
:1008F6004F2C7D288031312820002708860087016B
:10090600403FA900413FAA00290884002A08850023
:100916001200253A031D902C912C522D2708860093
:1009260087010130810741310318810A2100E00166
:10093600E10100302000E700FF302100E200FF3037
:10094600E3002000270886008701403FAE00413FB4
:10095600AF002E0884002F0885001200643A0319A0
:10096600B52CB62CC02C2E0884002F08850012004A
:10097600693A031DBF2CC02C482D28088600870124
:1009860001088400850102308107003FB000013F65
:10099600B1002E08013EA90000302F3DAA0027080D
:1009A600860087012908C03F2A08C13F2030B400CD
:1009B600B11BDE2CE02C0130E12C0030AD00013003
:1009C600B4023408A03E860087010A30F2000030E7
:1009D600F3003108F5003008F400873158278431D8
:1009E6007308F9007208F8008C319F248431780866
:1009F600303E81000A30F2000030F300200031085A
:100A0600F5003008F4008631492684317308200049
:100A1600B1007208B000300831040319132D142DEB
:100A2600192D3408031D182D192DE22C340803192D
:100A36001D2D1E2D412D2D080319222D232D412D4F
:100A46000130B4023408A03E860087012D308100B3
:100A5600412D3408A03E860087010108A900AA019D
:100A66002908F5002A08F6002608F8002508F700E8
:100A76008531EB25843101302000B407203034065F
:100A8600031D462D472D2C2D6C2D20002708860092
:100A960087010130810741310318810A6C2D27082F
:100AA60086008701403FA900413FAA00290884002B
:100AB6002A0885000008AB00AC012B08F5002C08BD
:100AC600F6002608F8002508F7008531EB25843165
:100AD600482D08002000A301A401A201762D0130B3
:100AE600F8070030F93D780886007908870020303D
:100AF600010603197F2D802D722D7808860079084E
:100B06008700F73001072000A00005302002031CF3
:100B16008D2D8E2D722D78088600790887002D3050
:100B26000106031D972D982D9F2D0130A20001303F
:100B3600F8070030F93DC82D780886007908870047
:100B46002B300106031DA82DA92DC82D9A2D780836
:100B56008600790887002408F3002308F2000A308B
:100B6600F4000030F5008E3113268531730820001D
:100B7600A10001087202A000031CA1032008303E58
:100B8600A3000030213DA4009A2D7808860079083C
:100B96008700D0300107A0000A302002031CD42DA4
:100BA600D52DAA2D2208031DD92DDA2DE62D2309D0
:100BB600A0002409A100A00A0319A10A2008F80030
:100BC6002108F900EA2D2408F9002308F800080096
:100BD600770878040319F02DF12DF72D770878049E
:100BE600031DF62DF72DFC2D75088C3180248531DB
:100BF600482E7708860078088700493116000104D8
:100C06000319062E072E282E7708860078088700F7
:100C16004931403F2000A000413FA10077088600EF
:100C2600780887004231403FA200413FA3002308D5
:100C3600803AA4002108803A2402031D242E2008AD
:100C460022020318272E282E482E770886007808B9
:100C5600870042317708840078088500003F20002D
:100C6600A000013FA100403F20078400413F213DF5
:100C7600850075088000770886007808870042316D
:100C86000130810741310318810A0800F701F31F7B
:100C96004D2E4E2E552EF209F309F20A0319F30AC8
:100CA6000130F700F51F582E592E602EF409F5096C
:100CB600F40A0319F50A0130F706F801F90172087A
:100CC60073040319672E682E952E0130F600722ED6
:100CD6000130F235F30D890B6C2E0130F607F31F48
:100CE600752E762E6B2E0130F835F90D890B772E81
:100CF60073087502031D812E72087402031C842E6C
:100D0600852E8A2E7208F4027308F53B781401309A
:100D1600F336F20C890B8B2E0130F602031D942E4E
:100D2600952E762E77080319992E9A2E9F2EF8095E
:100D3600F909F80A0319F90A7908F3007808F200A4
:100D46000800200028082904031DAA2EAB2EB82E61
:100D56005C08A9005B08A80028082904031DB42E16
:100D6600B52EB82EA801A901FD2E2908A100280834
:100D7600A0002B08A3002A08A2008F310C27863179
:100D860020002008A8072108A93D28088600290870
:100D960087000108031DD02ED12ED62EDB01DC01E3
:100DA600A801A901FD2E2908A1002808A0002B08EA
:100DB600A3002A08A2008E31D826863120002008FA
:100DC6002807DB002108293DDC005B0886005C085B
:100DD600870001080319F02EF12EFB2E5B08860012
:100DE6005C08870081010130DB070030DC3DFD2E09
:100DF600DB01DC0108002000A701A8012108F3009F
:100E06002008F2000030F400F5002308F70022085D
:100E1600F6008D31BB2586313F2F8C31B1248631CA
:100E260074082000A60026088C31802486310D30F7
:100E3600200026060319202F212F272F0A302606E9
:100E4600031D262F272F332F270820078600280863
:100E5600213D870081010A308C3180248631572F4D
:100E66002708200786002808213D870026088100DC
:100E76000130A7070030A83D20002208FF3EA4004D
:100E8600FF30233DA50025082802031D4C2F24080A
:100E96002702031C4F2F502F102F270820078600EC
:100EA6002808213D870081010800F701F51F5C2F06
:100EB6005D2F642FF409F509F40A0319F50A0130C8
:100EC600F700F31F672F682F6D2FF209F309F20A57
:100ED6000319F30A720873040319722F732F9A2FDA
:100EE6000130F6007D2F0130F235F30D890B772F97
:100EF6000130F607F31F802F812F762F73087502B6
:100F0600031D872F72087402031C8A2F8B2F8F2FC5
:100F16007208F4027308F53B0130F336F20C890BC4
:100F2600902F0130F602031D992F9A2F812F7708F3
:100F360003199E2F9F2FA42FF409F509F40A03190C
:100F4600F50A7508F3007408F200080022008C0107
:100F56008D018E01FF3021008C00E4308D00803041
:100F66008E00083090003F3023008C0020308D002A
:100F76008E01FF3024008C00E0308D008E01083099
:100F860090002100971325008C018D018E01FF3002
:100F960026008C00E0308D008E01FF3027008C008B
:100FA600E0308D008E010830900017303C00BD0007
:100FB60019303D00A3001A30A4001B30A5002430D0
:100FC600A6001730A2001630A1001530A000270099
:100FD600910192019301940195019601970198015F
:100FE60099019D019E019F0108008F3025009B00FD
:0A0FF6009A019901CF309E05080012
:1018040023001D121D160800783021009B009D0145
:101814009A01080073082000E6007208E500080039
:101824008F302500930092019101FC309E05080041
:101834008F302500970096019501F3309E0508002E
:1018440080302C00960095019401FC3025009F0502
:10185400080080302C00990098019701F33025008E
:101864009F05080020006C08031D392C3B2C013017
:101874003C2C0030080020006B08031D422C442C33
:101884000130452C003008008B1021001717003060
:10189400F2000030F3008C310C248C3108008030CD
:1018A4002C009C009B019A0125001F08CF39103899
:1018B4009F000800720873040319612C622C672CC2
:1018C40073082000E0007208DF0008007208730447
:1018D40003196D2C6E2C732C73082000DE00720823
:1018E400DD0008006400800101310130FE02003097
:1018F400FF3B7F087E04031D752C0034F4008C31FB
:1019040034248C31003A0319882C892C812C7408D6
:10191400F2008E3132268C3108003F302000C300A3
:101924000030B500B6003E08B8003D08B7004330AB
:10193400B9008D31D7258C310800F91BA22CA32CBA
:10194400A42CB02C78092000A0007909A100A00AD9
:101954000319A10A2008F8002108F90008008C31B5
:101964003D248C31003A0319B82CB92CB12C8D319B
:1019740086258C31F600F7017608F4007708F50027
:101984000800013029009700960198014F30940017
:10199400930100302100E8000030E900200091109C
:1019A4008030290095000800013028009700960136
:1019B4009801C7309400930100302100E600003004
:1019C400E7002000141080302800950008007308F8
:1019D400F5007208F400F536F40CF536F40C7408CE
:1019E4002C00950072080339F4000630F435890B95
:1019F400F82C7408940008007308F5007208F400C9
:101A0400F536F40CF536F40C74082C0098007208C2
:101A14000339F4000630F435890B0D2D7408970052
:101A240008007308F5007208F400F536F40CF53676
:101A3400F40C74082C009B0072080339F40006307F
:101A4400F435890B222D74089A0008007308F500F8
:101A54007208F400FF30F4050330F5052500131E69
:101A6400342D352D3A2D0630F435F50D890B362DF0
:101A7400750892007408910008007308F500720854
:101A8400F400FF30F4050330F5052500171E4B2D37
:101A94004C2D512D0630F435F50D890B4D2D75085F
:101AA40096007408950008007308F5007208F400A5
:101AB400FF30F4050330F50525001B1E622D632D50
:101AC400682D0630F435F50D890B642D75089A00E0
:101AD4007408990008007308F5007208F400762D64
:101AE4000130F2070030F33D720886007308870066
:101AF4000108031D7E2D7F2D722D74087202F200E1
:101B04007508733BF30008007A08D03E860087010D
:101B14000108F3007A08013E0739F2007208FA005E
:101B24002100911220006B080319992D9A2D9C2DE8
:101B34000130EB02210091167308080008302000E0
:101B44006C020318A62DA72DB82D6D08D83E86006B
:101B54008701010823009A0020006D08013E07391F
:101B6400F0007008ED000130EC07BA2D21001112CD
:101B740008007308F9007208F800CA2D7808860076
:101B840079088700740881000130F8070030F93DB6
:101B94000130F6020030F73B760A031DD52D770A93
:101BA400031DD52DD62DC02D080020003808BC00FB
:101BB4003708BB00E82D3608A6003508A5003B30E1
:101BC400A7003908A80084317F248D3120003B0808
:101BD40084003C0885001200031DF12DF22DDD2D3B
:101BE400B501B60108007208840073088500000876
:101BF4007406031DFE2DFF2D002E122E7308F70010
:101C04007208F600F20A0319F30A760884007708CA
:101C140085001200031D0F2E102EF52DF201F30185
:101C24000800F601F701721C182E192E1D2E7408D7
:101C3400F6077508F73D0130F435F50D890B1E2EB6
:101C44000130F336F20C890B232E72087304031D42
:101C54002C2E2D2E152E7708F3007608F20008009E
:101C64002100111A362E372E3B2E720823009A00BB
:101C7400522E20006C080319402E412E522E6E085D
:101C8400D83E86008701720881006E08013E07393C
:101C9400F3007308EE002100111201302000EC0261
:101CA4002100111608008C3106248E318731A927B2
:101CB4008E318C3112248E318C311A248E3187313D
:101CC400F8278E318C31C3248E318C31D6248E3159
:101CD4008E31A6268E318C3122248E318C312B24E8
:101CE4008E318C3151248E318C3146248E31080052
:101CF400812E0130F2070130F3070030F43D730800
:101D04008400740885000008F500720886008701C5
:101D140001087506031D8F2E902E982E72088600DA
:101D240087010108031D972E982E7B2E72088600CA
:101D34008701730884007408850000080102F2001A
:101D4400F301031CF303080021009112B330EA00ED
:101D54000F30EB001112A030EC000D30ED004830D4
:101D640023009F0090309D0026309E00A0309B00F1
:101D740001309C000330F2000030F3008C315C240D
:101D84008E310230F2000C30F3008C3168248E3135
:101D94002100E401E5012000EE01ED010830EC0032
:101DA400FB01FA01EB012100911608002000A601B5
:101DB400A701E52E01302000A0070030A13D01302D
:101DC400A6070030A73D20088600210887000108E7
:101DD4000319ED2EEE2E062F2308F3002208F2003D
:101DE40020088600210887000108A400A501240812
:101DF400F4002508F5008D31F5258E317208730441
:101E04000319052F062FDC2E20002708A100260821
:101E1400A00008002000A601A701192F013020000E
:101E2400A0070030A13D0130A6070030A73D2008DF
:101E340086002108870001080319212F222F3A2F39
:101E44002308F3002208F2002008860021088700F6
:101E54000108A400A5012408F4002508F5008D312B
:101E6400F5258F3172087304031D392F3A2F102F73
:101E740020002708A1002608A00008000030200048
:101E8400A3000030A2000030A1000030A000721CAA
:101E94004C2F4D2F562F76082000A0077708A13D20
:101EA4007808A23D7908A33D0130F635F70DF80D09
:101EB400F90D890B572F0130F536F40CF30CF20CA5
:101EC400890B5E2F7508740473047204031D6B2F51
:101ED4006C2F492F20002308F5002208F400210864
:101EE400F3002008F20008002000C601C7010230F8
:101EF4002000C5000430C400BA30890B7F2FC40B06
:101F04007F2FC50B7F2F000022000D0E013920000A
:101F1400C4000130C406C40E22000D08200044068B
:101F2400EF39440622008D0001302000C60700303E
:101F3400C73D4708803AC40080304402031DA42FE3
:101F440014304602031CA72FA82F792F22000D1648
:101F540030302000BD009030BE008C318F248F3192
:101F640008007B35C03E860087010030C03FC13F7A
:101F740023009D1CBE2FBF2FD02F7B35C03E860073
:101F84008701011520005D085E040319CA2FCB2FB9
:101F9400D02F5E088A005D080A008F3123001D1DC2
:101FA400D42FD52FE62F7B35C03E860087018114C0
:101FB40020005F0860040319E02FE12FE62F60087A
:101FC4008A005F080A008F3123001908F0007B089B
:101FD400013E0739F10071087A06031DF22FF32F31
:101FE400F42FFF2F7B08D03E860087017008810004
:101FF4007108FB0001302000EB070800A6340E3402
:102004000034003486340D3432340E343D340C3410
:1020140034340C34003400340034003400340034DC
:10202400003400340034003400340034003400340C
:1020340000340034003400340034003400340034FC
:102044000034003400340034003400345C340C3484
:1020540068340C340034003400340034533479349C
:102064007334743465346D34203469346E346934B3
:102074007434693461346C3469347A34613474345A
:1020840069346F346E3420346834613473342034EA
:102094006234653465346E34203463346F346D34A3
:1020A40070346C3465347434653464342E342134BF
:1020B40021340D340A34003443340934533448345D
:1020C40054340934253464340934483441344C34A8
:1020D4000934253464340D340A3400344334093467
:1020E400563445345234533449344F344E34203406
:1020F40031342E3430340D340A340034433409344A
:102104005234473431340934253464340D340A34B8
:1021140000344334093452344734323409342534D6
:1021240064340D340A3400344334093452344734AB
:1021340033340934253464340D340A3400344334DC
:1021440009345234473434340934253464340D3476
:102154000A3400344334093443344F3441340934A9
:10216400253464340D340A34003443340934483497
:1021740041344C340934253464340D340A34003485
:10218400433409344C3444345034093425346434ED
:102194000D340A3400345234473431340034523468
:1021A40047343234003452344734333400345234F4
:1021B40047343434003443344F34413400344834E5
:1021C40041344C3400344C344434503400345634A8
:1021D40045345234003453344834543400342F34A6
:0221E4000034C5
:020000040001F9
:04000E00E43FFF3E8E
:00000001FF
