:0400000080313128F2
:100008007E14803100308600003087000B1F0D28D9
:100018000E282F282100111E122813281F2820001F
:10002800111E172818281F2821006D088A006C083F
:100038000A0080312F282100911E232824282F28E8
:100048002000911E282829282F2821006B088A00C3
:100058006A080A0080317E10090080313328C430D4
:100068008400263085002C30FE000130FF008C31E2
:100078002A248031FA01FB015B30840000308500BE
:100088001430FE000030FF008C312A248031A0306B
:100098008400003085004630FE000030FF008C31BF
:1000A8002A2480317E10200080315A288D31F8258D
:1000B80080318E31492680318C31792480318731E5
:1000C800EC2780318B31C02380318B31C8238031BC
:1000D8008B31D02380318B31D82380318B31E12390
:1000E80080318C31072480318B170B1785317D25A2
:1000F800803151302000D5005130D6005130D70022
:10010800D801C4308600263087005130C03FC43043
:10011800860026308700413151308100C430860086
:1001280026308700423151308100C43086002630A5
:10013800870043318101C430A0002630A1002C3053
:10014800A2000130A3008F3119278031C430F2009A
:100158002630F3008D3110258031003073020330D2
:10016800031972020318B928BA28BB287D28C4309D
:1001780086002630870001082000D500C43086009C
:100188002630870041310108D600C4308600263069
:10019800870042310108D700D8015530F200E53018
:1001A800F3009030F4008E311D26803172087304FC
:1001B800031DDF28E028E3282000D0017A295530E4
:1001C800F200ED30F3009030F4008E311D268031BE
:1001D80072087304031DF128F228F6280130200064
:1001E800D0007A295530F200E130F3009030F40065
:1001F8008E311D26803172087304031D04290529D8
:10020800092902302000D0007A295530F200DD306B
:10021800F3009030F4008E311D268031720873048B
:10022800031D172918291C2903302000D0007A291A
:100238005530F200CD30F3009030F4008E311D2699
:10024800803172087304031D2A292B292F290430B1
:100258002000D0007A295530F200D130F3009030D8
:10026800F4008E311D26803172087304031D3D2968
:100278003E29422905302000D0007A295530F20065
:10028800D530F3009030F4008E311D26803172088D
:100298007304031D50295129552906302000D00028
:1002A8007A295530F200D930F3009030F4008E31BD
:1002B8001D26803172087304031D63296429682987
:1002C80007302000D0007A295530F200E930F300D9
:1002D8009030F4008E311D26803172087304031D9E
:1002E800762977297D2808302000D000C430A8005E
:1002F8002630A900F130AA009030AB0087314127A1
:100308008031672C0030A800A900F130AA00903095
:10031800AB0087314127803120002908DA002808FE
:10032800D90059085A0403199A299B29A5295A085A
:10033800F9005908F80086310A268031780820002B
:10034800E9006908031DA929AA29AD2922008D11F0
:10035800B4296903031DB129B229B42922008D15D6
:10036800C2302000BD009030BE006908C800C90135
:100378004808BF004908C0008C31452480317D28D9
:100388000030A800A900F130AA009030AB008731F6
:100398004127803120002908DA002808D9005908A7
:1003A8005A040319D829D929E3295A08F900590800
:1003B800F80086310A26803178082000E8006808AD
:1003C800031DE729E829372A0030F200F3008C31B1
:1003D800B624803134302000C800F130890BF2296E
:1003E800C80BF229003222008D140D103430200081
:1003F800C800F130890BFE29C80BFE2900322030D5
:10040800F2000330F3008C31B624803149302000EB
:10041800C800B930890B0E2AC80B0E2AE030F2004A
:100428000130F3008C31B624803115302000C8002B
:10043800C630890B1D2AC80B1D2A0000F030F200B7
:100448000030F3008C31B62480314E302000C800D3
:10045800EB30890B2D2AC80B2D2A20000D0C890C96
:100468000139EA008B2A6803031D3B2A3C2A8B2AA0
:100478000030F200F3008C31B62480313430200093
:10048800C800F130890B462AC80B462A00322200E0
:100498008D100D1434302000C800F130890B522A19
:1004A800C80B522A00322030F2000330F3008C319E
:1004B800B624803159302000C8004E30890B622A9A
:1004C800C80B622A00008030F2000230F3008C3141
:1004D800B624803120302000C8002930890B722AC8
:1004E800C80B722A00324030F2000130F3008C3120
:1004F800B62480313A302000C8002330890B822A84
:10050800C80B822A20000D0C890C0139EA005E30E4
:10051800BD009030BE006808C800C9014808BF0087
:100528004908C0006A08CA00CB014A08C1004B0844
:10053800C2008C31452480317D280D0C890C01398D
:10054800EA00B730BD009030BE006A08C800C90193
:100558004808BF004908C0008C31452480317D28F7
:100568000030A800A900F130AA009030AB00873114
:100578004127803120002908DA002808D9005908C5
:100588005A040319C82AC92A262B5A08F9005908F7
:10059800F80086310A26803178082000D1007908D1
:1005A800D200890D893B8909D300D4005408031D62
:1005B800E62A5308031DE62A01305202031CE52AE5
:1005C800E62AEF2A00302000D4000030D3000030A3
:1005D800D200FF30D10020005408F5005308F40081
:1005E8005208F3005108F2000030F9000030F8001A
:1005F8000130F7002230F6008E31E3268031720890
:100608002000C8007308C9007408CA007508CB0028
:100618000830CB36CA0CC90CC80C890B0D2B1E3000
:100628004807D1000030493DD20000304A3DD30090
:1006380000304B3DD4005208F3005108F2008C31D1
:10064800CB248031AC302000BD009030BE0054086F
:10065800C2005308C1005208C0005108BF008C31C5
:10066800452480317D280030A800A900F130AA0077
:100678009030AB0087314127803120002908DA000B
:100688002808D90059085A0403194B2B4C2B712BF5
:100698005A08F9005908F80086310A268031780886
:1006A8002000CC004C08C800C9014808F2004908DD
:1006B800F300C830F4000030F5008D31B6258031E4
:1006C80073082000CC004C08C800C9014808F20093
:1006D8004908F3008C31E224803180302000BD00CD
:1006E8009030BE004C08C800C9014808BF0049083E
:1006F800C0008C31452480317D280030A800A90035
:10070800F130AA009030AB008731412780312000BA
:100718002908DA002808D90059085A040319952B22
:10072800962BBB2B5A08F9005908F80086310A267F
:10073800803178082000CD004D08C800C90148085C
:10074800F2004908F300C830F4000030F5008D319C
:10075800B625803173082000CD004D08C800C901B6
:100768004808F2004908F3008C31F92480318B30B5
:100778002000BD009030BE004D08C800C9014808DF
:10078800BF004908C0008C31452480317D280030E5
:10079800A800A900F130AA009030AB0087314127AA
:1007A800803120002908DA002808D90059085A049D
:1007B8000319DF2BE02B052C5A08F9005908F8001B
:1007C80086310A26803178082000CE004E08C800FD
:1007D800C9014808F2004908F300C830F4000030A5
:1007E800F5008D31B625803173082000CE004E0803
:1007F800C800C9014808F2004908F3008C318C246C
:10080800803196302000BD009030BE004E08C800F0
:10081800C9014808BF004908C0008C31452480310F
:100828007D280030A800A900F130AA009030AB0064
:1008380087314127803120002908DA002808D900AB
:1008480059085A040319292C2A2C4F2C5A08F90044
:100858005908F80086310A26803178082000CF0030
:100868004F08C800C9014808F2004908F300C83019
:10087800F4000030F5008D31B62580317308200072
:10088800CF004F08C800C9014808F2004908F30022
:100898008C31A1248031A1302000BD009030BE00F1
:1008A8004F08C800C9014808BF004908C0008C317A
:1008B800452480317D287030BD009030BE008C31D9
:1008C800452480317D2820005008C800C901490806
:1008D800003A0319702C7D284808003A0319862924
:1008E800013A0319C429033A0319A12A013A031941
:1008F800B42A073A0319372B013A0319812B033A13
:100908000319CB2B013A0319152C0F3A03195F2C45
:100918007D28803131282000270886008701403F44
:10092800A900413FAA00290884002A08850012006E
:10093800253A031DA02CA12C622D270886008701CB
:100948000130810741310318810A2100E001E101EA
:1009580000302000E700FF302100E200FF30E30014
:100968002000270886008701403FAE00413FAF00C6
:100978002E0884002F0885001200643A0319C52C3C
:10098800C62CD02C2E0884002F0885001200693A46
:10099800031DCF2CD02C582D28088600870101086C
:1009A8008400850102308107003FB000013FB1009B
:1009B8002E08013EA90000302F3DAA002708860016
:1009C80087012908C03F2A08C13F2030B400B11B65
:1009D800EE2CF02C0130F12C0030AD000130B402C7
:1009E8003408A03E860087010A30F2000030F30088
:1009F8003108F5003008F40087319B2784317308EB
:100A0800F9007208F8008C31552484317808303E9A
:100A180081000A30F2000030F30020003108F500B0
:100A28003008F4008631E626843173082000B100CE
:100A38007208B000300831040319232D242D292D04
:100A48003408031D282D292DF22C340803192D2DC7
:100A58002E2D512D2D080319322D332D512D0130F6
:100A6800B4023408A03E860087012D308100512D44
:100A78003408A03E860087010108A900AA012908B8
:100A8800F5002A08F6002608F8002508F700863140
:100A98008826843101302000B40720303406031D35
:100AA800562D572D3C2D7C2D2000270886008701C8
:100AB8000130810741310318810A7C2D27088600FF
:100AC8008701403FA900413FAA00290884002A085D
:100AD80085000008AB00AC012B08F5002C08F600D7
:100AE8002608F8002508F700863188268431582D15
:100AF80008000030F200F3008C31B6248531343020
:100B08002000C400F130890B872DC40B872D0032DB
:100B180022008D140D1034302000C400F130890BF0
:100B2800932DC40B932D00322030F2000330F300D4
:100B38008C31B624853159302000C4004E30890BE1
:100B4800A32DC40BA32D00008030F2000230F30067
:100B58008C31B624853120302000C4002930890B1F
:100B6800B32DC40BB32D00324030F2000130F30036
:100B78008C31B62485313A302000C4002330890BEB
:100B8800C32DC40BC32D2000C601C70102302000AD
:100B9800C5000430C400BA30890BD02DC40BD02D49
:100BA800C50BD02D000022000D0E01392000C40015
:100BB8000130C406C40E22000D0820004406EF3997
:100BC800440622008D0001302000C6070030C73DD2
:100BD8004708803AC40080304402031DF52D3230A6
:100BE8004602031CF82DF92DCA2D0030F200F3003F
:100BF8008C31B624853122000D1630302000BD001E
:100C08009030BE008C314524853108002000A301B6
:100C1800A401A201132E0130F8070030F93D78082D
:100C28008600790887002030010603191C2E1D2E26
:100C38000F2E7808860079088700F7300107200012
:100C4800A00005302002031C2A2E2B2E0F2E780818
:100C58008600790887002D300106031D342E352EB5
:100C68003C2E0130A2000130F8070030F93D652E16
:100C780078088600790887002B300106031D452E69
:100C8800462E652E372E78088600790887002408B6
:100C9800F3002308F2000A30F4000030F5008D312B
:100CA800B625863173082000A10001087202A00051
:100CB800031CA1032008303EA3000030213DA400FE
:100CC800372E7808860079088700D0300107A00001
:100CD8000A302002031C712E722E472E2208031D93
:100CE800762E772E832E2309A0002409A100A00ABE
:100CF8000319A10A2008F8002108F900872E240802
:100D0800F9002308F80008007708780403198D2EE5
:100D18008E2E942E77087804031D932E942E992EE8
:100D280075088C3136248631E52E770886007808D8
:100D380087004931160001040319A32EA42EC52EDD
:100D480077088600780887004931403F2000A000D6
:100D5800413FA10077088600780887004231403F6C
:100D6800A200413FA3002308803AA4002108803A4A
:100D78002402031DC12E200822020318C42EC52EEA
:100D8800E52E7708860078088700423177088400C6
:100D980078088500003F2000A000013FA100403FE7
:100DA80020078400413F213D8500750880007708B1
:100DB80086007808870042310130810741310318E5
:100DC800810A0800F701F31FEA2EEB2EF22EF20932
:100DD800F309F20A0319F30A0130F700F51FF52E9B
:100DE800F62EFD2EF409F509F40A0319F50A013067
:100DF800F706F801F901720873040319042F052F87
:100E0800322F0130F6000F2F0130F235F30D890B28
:100E1800092F0130F607F31F122F132F082F013067
:100E2800F835F90D890B142F73087502031D1E2F51
:100E380072087402031C212F222F272F7208F40234
:100E48007308F53B78140130F336F20C890B282F20
:100E58000130F602031D312F322F132F77080319A3
:100E6800362F372F3C2FF809F909F80A0319F90A20
:100E78007908F3007808F2000800200028082904FF
:100E8800031D472F482F552F5C08A9005B08A800B1
:100E980028082904031D512F522F552FA801A901F5
:100EA8009A2F2908A1002808A0002B08A3002A08C7
:100EB800A2008E31AF26873120002008A80721081C
:100EC800A93D28088600290887000108031D6D2F01
:100ED8006E2F732FDB01DC01A801A9019A2F2908C5
:100EE800A1002808A0002B08A3002A08A2008E3120
:100EF8007B268731200020082807DB002108293DB0
:100F0800DC005B0886005C088700010803198D2F48
:100F18008E2F982F5B0886005C08870081010130BE
:100F2800DB070030DC3D9A2FDB01DC010800F7010C
:100F3800F51F9F2FA02FA72FF409F509F40A03190D
:100F4800F50A0130F700F31FAA2FAB2FB02FF209D3
:100F5800F309F20A0319F30A720873040319B52F87
:100F6800B62FDD2F0130F600C02F0130F235F30D1A
:100F7800890BBA2F0130F607F31FC32FC42FB92FDF
:100F880073087502031DCA2F72087402031CCD2F43
:100F9800CE2FD22F7208F4027308F53B0130F336D6
:100FA800F20C890BD32F0130F602031DDC2FDD2F45
:100FB800C42F77080319E12FE22FE72FF409F50969
:100FC800F40A0319F50A7508F3007408F20008001A
:100FD80001302800970096019801C73094009301CA
:100FE80000302100E6000030E700200014108030B7
:080FF800280095000800080024
:1017600023001D121D160800783021009B009D01EA
:101770009A01080073082000E6007208E5000800DE
:101780008F302500930092019101FC309E050800E6
:101790008F302500970096019501F3309E050800D3
:1017A0008F3025009B009A019901CF309E050800DB
:1017B00080302C00960095019401FC3025009F0597
:1017C000080080302C00990098019701F330250023
:1017D0009F05080020006C08031DEF2BF12B013042
:1017E000F22B0030080020006B08031DF82BFA2BA9
:1017F0000130FB2B003008008B1021001717003040
:10180000F2000030F3008B31BA238B3108008030B6
:101810002C009C009B019A0125001F08CF3910382D
:101820009F000800720873040319172C182C1D2C34
:1018300073082000E0007208DF00080072087304DB
:101840000319232C242C292C73082000DE00720895
:10185000DD0008006400800101310130FE0200302B
:10186000FF3B7F087E04031D2B2C0034F4008B31DA
:10187000EA238C31003A03193E2C3F2C372C740894
:10188000F2008D31D5258C3108003F302000C30097
:101890000030B500B6003E08B8003D08B700433040
:1018A000B9008D317A258C310800F91B582C592C40
:1018B0005A2C662C78092000A0007909A100A00A02
:1018C0000319A10A2008F8002108F90008008B314B
:1018D000F3238C31003A03196E2C6F2C672C8D3159
:1018E00029258C31F600F7017608F4007708F50019
:1018F0000800013029009700960198014F309400AC
:10190000930100302100E8000030E9002000911030
:1019100080302900950008007308F5007208F40073
:10192000F536F40CF536F40C74082C0095007208AA
:101930000339F4000630F435890B9B2C74089400AD
:1019400008007308F5007208F400F536F40CF5365B
:10195000F40C74082C00980072080339F400063067
:10196000F435890BB02C7408970008007308F50053
:101970007208F400F536F40CF536F40C74082C00FB
:101980009B0072080339F4000630F435890BC52C2E
:1019900074089A0008007308F5007208F400FF301C
:1019A000F4050330F5052500131ED72CD82CDD2CAB
:1019B0000630F435F50D890BD92C750892007408A2
:1019C000910008007308F5007208F400FF30F40578
:1019D0000330F5052500171EEE2CEF2CF42C0630F5
:1019E000F435F50D890BF02C7508960074089500F8
:1019F00008007308F5007208F400FF30F4050330A6
:101A0000F50525001B1E052D062D0B2D0630F43582
:101A1000F50D890B072D75089A00740899000800C8
:101A20007308F5007208F400192D0130F207003038
:101A3000F33D72088600730887000108031D212DFD
:101A4000222D152D74087202F2007508733BF30005
:101A500008007A08D03E860087010108F3007A0862
:101A6000013E0739F2007208FA00210091122000AD
:101A70006B0803193C2D3D2D3F2D0130EB02210059
:101A8000911673080800083020006C020318492DD5
:101A90004A2D5B2D6D08D83E860087010108230082
:101AA0009A0020006D08013E0739F0007008ED0033
:101AB0000130EC075D2D2100111208007308F900B8
:101AC0007208F8006D2D7808860079088700740880
:101AD00081000130F8070030F93D0130F602003096
:101AE000F73B760A031D782D770A031D782D792D93
:101AF000632D080020003808BC003708BB008B2D80
:101B00003608A6003508A5003B30A7003908A80014
:101B100084318F248D3120003B0884003C088500EF
:101B20001200031D942D952D802DB501B6010800DE
:101B3000720884007308850000087406031DA12D37
:101B4000A22DA32DB52D7308F7007208F600F20A36
:101B50000319F30A76088400770885001200031D34
:101B6000B22DB32D982DF201F3010800F601F70113
:101B7000721CBB2DBC2DC02D7408F6077508F73DEF
:101B80000130F435F50D890BC12D0130F336F20C1F
:101B9000890BC62D72087304031DCF2DD02DB82DCF
:101BA0007708F3007608F20008002100111AD92DF9
:101BB000DA2DDE2D720823009A00F52D20006C0826
:101BC0000319E32DE42DF52D6E08D83E860087011C
:101BD000720881006E08013E0739F3007308EE00B9
:101BE0002100111201302000EC0221001116080022
:101BF0008B31B4238D318F31B1278D318B31C0239F
:101C00008D318B31C8238D318B31D0238D318C3187
:101C100079248D318731EC278D318E3149268D31F4
:101C20008B31D8238D318B31E1238D318C310724D9
:101C30008D318B31FC238D310800242E0130F207C9
:101C40000130F3070030F43D730884007408850008
:101C50000008F50072088600870101087506031D5B
:101C6000322E332E3B2E7208860087010108031D99
:101C70003A2E3B2E1E2E72088600870173088400C0
:101C80007408850000080102F200F301031CF3034D
:101C90000800210091126430EA000F30EB001112AD
:101CA0004330EC000D30ED00483023009F009030B1
:101CB0009D0026309E00A0309B0001309C00FF302C
:101CC000F2000730F3008C3112248E31B030F20074
:101CD0000B30F3008C311E248E312100E401E5012C
:101CE0002000EE01ED010830EC00FB01FA01EB01F0
:101CF0002100911608002000A601A701882E0130BE
:101D00002000A0070030A13D0130A6070030A73D0C
:101D1000200886002108870001080319902E912EC3
:101D2000A92E2308F3002208F200200886002108CB
:101D300087000108A400A5012408F4002508F50087
:101D40008D3198258E31720873040319A82EA92E9F
:101D50007F2E20002708A1002608A00008002000F0
:101D6000A601A701BC2E01302000A0070030A13D34
:101D70000130A6070030A73D200886002108870013
:101D800001080319C42EC52EDD2E2308F3002208F6
:101D9000F20020088600210887000108A400A501A0
:101DA0002408F4002508F5008D3198258E3172083D
:101DB0007304031DDC2EDD2EB32E20002708A100A6
:101DC0002608A000080000302000A3000030A20078
:101DD0000030A1000030A000721CEF2EF02EF92E72
:101DE00076082000A0077708A13D7808A23D790871
:101DF000A33D0130F635F70DF80DF90D890BFA2EDC
:101E00000130F536F40CF30CF20C890B012F750838
:101E1000740473047204031D0E2F0F2FEC2E200088
:101E20002308F5002208F4002108F3002008F2003E
:101E300008002000A701A8012108F3002008F200F3
:101E40000030F400F5002308F7002208F6008D3179
:101E50005E258F31512F8C3167248F31740820001B
:101E6000A6000D3026060319362F372F3D2F0A30D6
:101E70002606031D3C2F3D2F452F270820078600EF
:101E80002808213D87008101632F2708200786004D
:101E90002808213D8700260881000130A70700306F
:101EA000A83D20002208FF3EA400FF30233DA500EE
:101EB00025082802031D5E2F24082702031C612F1A
:101EC000622F2B2F3D2F08007B35C03E86008701F7
:101ED0000030C03FC13F23009D1C6F2F702F812F0A
:101EE0007B35C03E86008701011520005D085E0439
:101EF00003197B2F7C2F812F5E088A005D080A0062
:101F00008F3123001D1D852F862F972F7B35C03ED7
:101F100086008701811420005F0860040319912F57
:101F2000922F972F60088A005F080A008F312300E4
:101F30001908F0007B08013E0739F10071087A06A4
:101F4000031DA32FA42FA52FB02F7B08D03E860002
:101F50008701700881007108FB0001302000EB0749
:101F6000080022008C018D018E01FF3021008C00C1
:101F7000E4308D0080308E00083090003F30230028
:101F80008C0020308D008E01FF3024008C00E0306A
:101F90008D008E01083090002100971325008C01E0
:101FA0008D018E01FF3026008C00E0308D008E0107
:101FB000FF3027008C00E0308D008E01083090004B
:101FC00017303C00BD0019303D00A3001A30A400BA
:101FD0001B30A5002430A6001730A2001630A10047
:101FE0001530A00027009101920193019401950101
:101FF00096019701980199019D019E019F0108009A
:1020000049340E340034003429340D34D5340D34C1
:10201000F3340B34EA340B3400340034003400342D
:102020000034003400340034003400340034003410
:102030000034003400340034003400340034003400
:1020400000340034003400340034003400340034F0
:1020500012340C341E340C34003400340034003498
:10206000533479347334743465346D3420346934C2
:102070006E3469347434693461346C3469347A345C
:102080006134743469346F346E34203468346134AC
:10209000733420346234653465346E3420346334F0
:1020A0006F346D3470346C34653474346534643436
:1020B0002E34213421340D340A34003443340934AD
:1020C000533448345434093425346434093448349E
:1020D00041344C340934253464340D340A3400342A
:1020E00043340934563445345234533449344F342C
:1020F0004E34203431342E3430340D340A3400342C
:102100004334093452344734313409342534643487
:102110000D340A34003443340934523447343234F1
:102120000934253464340D340A340034433409341A
:102130005234473433340934253464340D340A348A
:1021400000344334093452344734343409342534A8
:1021500064340D340A3400344334093443344F3486
:1021600041340934253464340D340A3400344334A2
:102170000934483441344C340934253464340D3442
:102180000A340034433409344C3444345034093470
:10219000253464340D340A34003452344734313435
:1021A00000345234473432340034523447343334F8
:1021B0000034523447343434003443344F344134DF
:1021C0000034483441344C3400344C3444345034BA
:1021D0000034563445345234003453344834543483
:0621E00000342F3400342E
:020000040001F9
:04000E00E43FFF3E8E
:00000001FF
