:100000008A11FA2FFF1B0C2883137F18831700080F
:10001000840A0319FF0A080000308A000408840AD1
:10002000820700344334093456344534523453344F
:1000300049344F344E34203431342E3430340D347E
:100040000A3400344334093452344534413444349E
:1000500059340D340A340034433409345734543499
:10006000423431340D340A340034433409345234C8
:100070005034533431340D340A34003443340934A9
:1000800057345434423432340D340A340034433457
:10009000093452345034533432340D340A34003479
:1000A0004334093457345434423433340D340A342D
:1000B00000344334093452345034533433340D341F
:1000C0000A340034433409344F34533443340D3448
:1000D0000A340034433409344E34543444340D3437
:1000E0000A340034433409344E3444344F340D342C
:1000F0000A340034573454344234313400345234E6
:10010000503453343134003457345434423432345C
:10011000003452345034533432340034573454346D
:100120004234333400345234503453343334003492
:1001300057345434423400344F345334433400344D
:100140004E345434443400344E3444344F34003448
:10015000563445345234003452345034533400341D
:0C01600053345434533400342F34003432
:1001760083120313861683160313EA01EB01CC28B8
:100186000000013083160313EA070318EB0A003058
:10019600EB076B08803A83120313A400831603133C
:1001A6005E08803A831203132402031DDE28831699
:1001B60003135D086A02031CE128E228C3288312A0
:1001C6000313861283160313EA01EB01F3280000DA
:1001D600013083160313EA070318EB0A0030EB0716
:1001E6006B08803A83120313A400831603135E0878
:1001F600803A831203132402031D05298316031371
:100206005D086A02031C08290929EA2801308316B9
:100216000313E6070318E70A0030E7076708803A82
:1002260083120313A400831603136908803A83120A
:1002360003132402031D2329831603136808660289
:10024600031C26292729BB282430F1008A15C3223E
:100256008A11FF2BCE30F9000030FA007830FB000F
:100266008A154E248A1179087A0403193B293C29F8
:10027600452A831603136908803AFF0080307F02FF
:10028600031D472901306802031C4A294B29BD2951
:1002960083160313E601E701A62983120313051546
:1002A60083160313EA01EB0161290000013083166E
:1002B6000313EA070318EB0A0030EB076B08803AD2
:1002C60083120313A400831603136008803A831273
:1002D60003132402031D7329831603135F086A029E
:1002E600031C7629772958298312031305118316CF
:1002F6000313EA01EB01882900000130831603137A
:10030600EA070318EB0A0030EB076B08803A831202
:100316000313A400831603136008803A83120313A1
:100326002402031D9A29831603135F086A02031C1D
:100336009D299E297F29013083160313E60703189A
:10034600E70A0030E7076708803A83120313A40020
:10035600831603136908803A831203132402031DCC
:10036600B8298316031368086602031CBB29BC2937
:1003760050293F2AFF30F000FF30F10083160313A7
:100386006908F3006808F2008A15EF228A117108DD
:1003960083160313E9007008E800E601E701292A3D
:1003A60083120313851583160313EA01EB01E4296F
:1003B6000000013083160313EA070318EB0A003026
:1003C600EB076B08803A83120313A400831603130A
:1003D6006008803A831203132402031DF62983164C
:1003E60003135F086A02031CF929FA29DB29831221
:1003F6000313851183160313EA01EB010B2A000090
:10040600013083160313EA070318EB0A0030EB07E3
:100416006B08803A83120313A40083160313600843
:10042600803A831203132402031D1D2A8316031325
:100436005F086A02031C202A212A022A0130831639
:100446000313E6070318E70A0030E7076708803A50
:1004560083120313A400831603136908803A8312D8
:1004660003132402031D3B2A83160313680866023E
:10047600031C3E2A3F2AD3293630F1008A15C322AF
:100486008A11FF2BCE30F9000030FA008230FB00D3
:100496008A154E248A1179087A040319532A542A94
:1004A600F52F831603136908803AFF0080307F0218
:1004B600031D5F2A01306802031C622A632AD52ABB
:1004C60083160313E601E701BE2A831203130514FC
:1004D60083160313EA01EB01792A00000130831623
:1004E6000313EA070318EB0A0030EB076B08803AA0
:1004F60083120313A400831603136508803A83123C
:1005060003132402031D8B2A8316031364086A024D
:10051600031C8E2A8F2A702A831203130510831652
:100526000313EA01EB01A02A00000130831603132E
:10053600EA070318EB0A0030EB076B08803A8312D0
:100546000313A400831603136508803A831203136A
:100556002402031DB22A8316031364086A02031CCD
:10056600B52AB62A972A013083160313E60703181D
:10057600E70A0030E7076708803A83120313A400EE
:10058600831603136908803A831203132402031D9A
:10059600D02A8316031368086602031CD32AD42ABA
:1005A600682A572BFF30F000FF30F1008316031343
:1005B6006908F3006808F2008A15EF228A117108AB
:1005C60083160313E9007008E800E601E701412BF2
:1005D60083120313851483160313EA01EB01FC2A25
:1005E6000000013083160313EA070318EB0A0030F4
:1005F600EB076B08803A83120313A40083160313D8
:100606006508803A831203132402031D0E2B8316FA
:10061600031364086A02031C112B122BF32A83129C
:100626000313851083160313EA01EB01232B000045
:10063600013083160313EA070318EB0A0030EB07B1
:100646006B08803A83120313A4008316031365080C
:10065600803A831203132402031D352B83160313DA
:1006660064086A02031C382B392B1A2B01308316B7
:100676000313E6070318E70A0030E7076708803A1E
:1006860083120313A400831603136908803A8312A6
:1006960003132402031D532B8316031368086602F3
:1006A600031C562B572BEB2A4830F1008A15C32220
:1006B6008A11FF2BFC01A330FD008A15BE238A1187
:1006C60083160313E300FC01A330FD008A15BE2345
:1006D6008A1183160313E300FC01A330FD008A157B
:1006E600BE238A1183160313E300630803197C2BC8
:1006F6007D2B8D2B6308F6006308FF39031D003040
:10070600F7008A1557258A11770883160313D70031
:100716007608D600C830F9000030FA006930FB00D0
:100726008A154E248A1179087A0403199B2B9C2B6F
:10073600BF2B831603135708F1005608F00055081F
:10074600F3005408F2008A15F4248A1171088316FE
:100756000313DE007008DD005D085E04031DB42B84
:10076600B52BB92B0130DD000030DE001B30F10067
:100776008A15C3228A11FF2BC830F9000030FA000F
:100786007330FB008A154E248A1179087A040319FE
:10079600CD2BCE2BF12B831603135708F1005608E9
:1007A600F0005508F3005408F2008A15F4248A1163
:1007B600710883160313E0007008DF005F08600409
:1007C600031DE62BE72BEB2B0130DF000030E000AA
:1007D6002D30F1008A15C3228A11FF2BC830F9008B
:1007E6000030FA007D30FB008A154E248A11790804
:1007F6007A040319FF2B012C8A15132F8316031372
:100806005708F1005608F0005508F3005408F200A6
:100816008A15F4248A11710883160313E5007008FB
:10082600E40064086504031D192C1A2C1E2C0130E3
:10083600E4000030E5003F30F1008A15C3228A113A
:10084600FF2BFC01A330FD008A15BE238A118316F7
:100856000313E300FC01A330FD008A15BE238A11B1
:1008660083160313E300FC01A330FD008A15BE23A3
:100876008A1183160313E300FC01A330FD008A15D9
:10088600BE238A1183160313E300FC01A330FD0087
:100896008A15BE238A1183160313E300630803191E
:1008A600552C562C662C6308F6006308FF39031D89
:1008B6000030F7008A1557258A1177088316031327
:1008C600E9007608E8006908803AFF0080307F0278
:1008D600031D6F2C01306802031C722C732C562DDD
:1008E60083160313E601E701CE2C831203130514C6
:1008F60083160313EA01EB01892C000001308316ED
:100906000313EA070318EB0A0030EB076B08803A7B
:1009160083120313A400831603136508803A831217
:1009260003132402031D9B2C8316031364086A0217
:10093600031C9E2C9F2C802C8312031305108316F8
:100946000313EA01EB01B02C0000013083160313F8
:10095600EA070318EB0A0030EB076B08803A8312AC
:100966000313A400831603136508803A8312031346
:100976002402031DC22C8316031364086A02031C97
:10098600C52CC62CA72C013083160313E6070318C3
:10099600E70A0030E7076708803A83120313A400CA
:1009A600831603136908803A831203132402031D76
:1009B600E02C8316031368086602031CE32CE42C60
:1009C600782C83160313E601E7013F2D83120313E8
:1009D600851483160313EA01EB01FA2C000001309B
:1009E60083160313EA070318EB0A0030EB076B08BC
:1009F600803A83120313A400831603136508803A12
:100A0600831203132402031D0C2D8316031364089B
:100A16006A02031C0F2D102DF12C8312031385106F
:100A260083160313EA01EB01212D00000130831622
:100A36000313EA070318EB0A0030EB076B08803A4A
:100A460083120313A400831603136508803A8312E6
:100A560003132402031D332D8316031364086A024D
:100A6600031C362D372D182D013083160313E60788
:100A76000318E70A0030E7076708803A8312031372
:100A8600A400831603136908803A83120313240211
:100A9600031D512D8316031368086602031C542D8B
:100AA600552DE92C492EFF30F000FF30F10083165A
:100AB60003136908F3006808F2008A15EF228A1109
:100AC600710883160313E9007008E800E601E701E0
:100AD600C22D83120313851483160313EA01EB0157
:100AE6007D2D0000013083160313EA070318EB0A75
:100AF6000030EB076B08803A83120313A4008316B9
:100B060003136508803A831203132402031D8F2DF5
:100B16008316031364086A02031C922D932D742D09
:100B260083120313851083160313EA01EB01A42D28
:100B36000000013083160313EA070318EB0A00309E
:100B4600EB076B08803A83120313A4008316031382
:100B56006508803A831203132402031DB62D8316FB
:100B6600031364086A02031CB92DBA2D9B2D0130AC
:100B760083160313E6070318E70A0030E70767083A
:100B8600803A83120313A400831603136908803A7C
:100B9600831203132402031DD42D8316031368083E
:100BA6006602031CD72DD82D6C2D83160313E60180
:100BB600E701332E83120313051483160313EA0188
:100BC600EB01EE2D0000013083160313EA0703182C
:100BD600EB0A0030EB076B08803A83120313A4007C
:100BE600831603136508803A831203132402031D38
:100BF600002E8316031364086A02031C032E042EB8
:100C0600E52D83120313051083160313EA01EB0186
:100C1600152E0000013083160313EA070318EB0AAA
:100C26000030EB076B08803A83120313A400831687
:100C360003136508803A831203132402031D272E2B
:100C46008316031364086A02031C2A2E2B2E0C2E0D
:100C5600013083160313E6070318E70A0030E70797
:100C66006708803A83120313A400831603136908E6
:100C7600803A831203132402031D452E83160313A1
:100C860068086602031C482E492EDD2D5130F100FE
:100C96008A15C3228A11FF2B1030E8002730E9009D
:100CA600E601E701B32E831203130514831603131B
:100CB600EA01EB01672E0000013083160313EA07F1
:100CC6000318EB0A0030EB076B08803A8312031314
:100CD600A400831603136508803A831203132402C3
:100CE600031D792E8316031364086A02031C7C2EE7
:100CF6007D2E5E2E83120313051083160313EA015D
:100D0600EB018E2E0000013083160313EA07031849
:100D1600EB0A0030EB076B08803A83120313A4003A
:100D2600831603136508803A831203132402031DF6
:100D3600A02E8316031364086A02031CA32EA42E96
:100D4600852E831203130618A92EAA2EAB2EC92EA2
:100D5600013083160313E6070318E70A0030E70796
:100D66006708803A83120313A400831603136908E5
:100D7600803A831203132402031DC52E8316031320
:100D860068086602031CC82EC92E562E5930F1007B
:100D96008A15C3228A11FF2BFC01A330FD008A1598
:100DA600BE238A1183160313E30063080319DC2E9E
:100DB600DD2EED2E6308F6006308FF39031D0030B3
:100DC600F7008A1557258A11770883160313E90059
:100DD6007608E800E601E70183120313051483167B
:100DE6000313EA01EB01002F000001308316031301
:100DF600EA070318EB0A0030EB076B08803A831208
:100E06000313A400831603136508803A83120313A1
:100E16002402031D122F8316031364086A02031C9F
:100E2600152F162FF72E831203130510831603139F
:100E3600EA01EB01272F0000013083160313EA07AE
:100E46000318EB0A0030EB076B08803A8312031392
:100E5600A400831603136508803A83120313240241
:100E6600031D392F8316031364086A02031C3C2FE3
:100E76003D2F1E2F831203130618422F432F442F94
:100E8600592F013083160313E6070318E70A0030CB
:100E9600E7076708803AFF00A7307F02031D552F3A
:100EA60010306602031C582F592FEF2E831603139A
:100EB600E601E701B42F8312031385148316031387
:100EC600EA01EB016F2F0000013083160313EA07D6
:100ED6000318EB0A0030EB076B08803A8312031302
:100EE600A400831603136508803A831203132402B1
:100EF600031D812F8316031364086A02031C842FC3
:100F0600852F662F83120313851083160313EA01B8
:100F1600EB01962F0000013083160313EA0703182E
:100F2600EB0A0030EB076B08803A83120313A40028
:100F3600831603136508803A831203132402031DE4
:100F4600A82F8316031364086A02031CAB2FAC2F69
:100F56008D2F013083160313E6070318E70A0030C6
:100F6600E7076708803A83120313A4008316031366
:100F76006908803A831203132402031DC62F8316C1
:100F8600031368086602031CC92FCA2F5E2F61303F
:100F9600F1008A15C3228A11FF2B1130F1008A1540
:100FA600C3228A11FF2B0130F1008A15C3228A1150
:100FB600FF2B831603135808003A0319F82F013A3A
:100FC60003195D2B033A0319242C013A03194F2EFA
:100FD600073A0319CF2E013A0319D62F033A0319FC
:100FE600D02FFF2BFF2B8A1100288A150B2E831278
:0A0FF6000313A60183018A15ED2EF6
:101508007808F2008A15A0248A15080083120313AC
:101518008C1E8F2A902A8A2A1A080800F000831243
:1015280003130C1E982A992A932A70089900080018
:101538008A158A228A15F10071088A1592228A155D
:101548007108080019308316031399002430980095
:1015580090308312031398000800F100F0013A302C
:1015680071020318B82AB92AC12A30307102031C43
:10157800BE2ABF2AC12A0130F000700C0800723060
:10158800F200CA2A73088A1592228A150130F107D7
:10159800FF30710784008A110C208A15F300730844
:1015A800031DD72AD82AC62A08007008F200DE2AA6
:1015B8000130F207720884008A110C208A15003A5B
:1015C800031DE72AE82ADC2A70087202F000F101FC
:1015D800F01BF1030800F401F501701CF42AF52A48
:1015E800FB2A7208F4070318F50A7308F507013097
:1015F8000310F20DF30DFF3E031DFC2A013003100A
:10160800F10CF00CFF3E031D032B70087104031D41
:101618000E2B0F2BF12A7508F1007408F000080052
:10162800192B0130F0070130F107710884008A1185
:101638000C208A15F2007008840083130008F30058
:1016480072087302F4007408031D2B2B2C2B332B08
:10165800700884000008031D322B332B152B7408E7
:10166800F000F101F01BF103080071088312031365
:10167800FF00700884008A1102208A157206031D73
:10168800462B472B482B5D2B7108F5007008F4009A
:10169800F00A0319F10A7508FF00740884008A111A
:1016A80002208A15003A031D5A2B5B2B392BF001B7
:1016B800F1010800FA01FB01692B0130F60701303E
:1016C800FA070318FB0A0030FB0776088400831327
:1016D80000080319702B712B892B7708F000003054
:1016E800031D8030F100760884000008F800F90135
:1016F8007808F2007908F3008A1539238A157008EA
:1017080071040319882B892B612B7B08F7007A0851
:10171800F6000800FA01FB01992B0130F6070130A9
:10172800FA070318FB0A0030FB07760884008313C6
:1017380000080319A02BA12BB92B7708F000003063
:10174800031D8030F100760884000008F800F901D4
:101758007808F2007908F3008A1539238A15700889
:101768007104031DB82BB92B912B7B08F7007A085D
:10177800F60008007C08031DC22BC32BC72B83125D
:1017880003132608FC007C08031DCB2BCC2BCE2B87
:101798000030002C7C08F6007D08F7008A158E239F
:1017A8008A157608FC077C08840083130008031D4B
:1017B800DE2BDF2BE42B83120313A6010030002C51
:1017C8007C08F6007D08F7008A155E238A157608DE
:1017D8007C0783120313A6002608840083130008DD
:1017E8000319F72BF82BFE2B260884008001013003
:1017F800A607FF2BA6017C0808003D2C740883125D
:101808000313FF00730884008A1102208A15003A26
:1018180003190F2C102C222C750884008A110C2017
:101828008A15F8007408FF00730884008A110220E2
:101838008A1578060319212C222C352C7408FF00F0
:10184800730884008A1102208A15F800750884003C
:101858008A110C208A157802F300F401031CF403A2
:101868004D2C0130F3070318F40A0030F407013057
:10187800F5070130F6020030031CF703F702760A79
:10188800031D4A2C770A031D4A2C4B2C022CF3010A
:10189800F4010800892C7908F3007A08F4007B0821
:1018A800F5007B08F0008A15D9228A157108F7001F
:1018B8007008F6008A1501248A1573087404031D3C
:1018C800662C672C682C9F2C013083120313A00010
:1018D80020087907F0007A08A1000318A10AA01BC4
:1018E800A1032108F1007B0884008A110C208A15C5
:1018F800A200A3012208F2002308F3008A15392365
:101908008A157008F9007108FA0079087A04031931
:101918008E2C8F2C9D2C7A0883120313FF007908D4
:1019280084008A1102208A15003A031D9C2C9D2CE4
:101938004F2CF901FA0108007208F700D72C720839
:101948007706031DA82CA92CAA2CD72C20308A1581
:1019580092228A1508308A1592228A150130F702D8
:10196800D72C08308A1592228A1520308A1592229F
:101978008A1508308A1592228A150130F7027708ED
:101988007202031CC82CC92CB52CD72C77088400EC
:10199800831380017208F32C770884007508831379
:1019A80080000130F7078A159C228A15F300F4019C
:1019B8007308F5007408F6007608003A0319E52C58
:1019C800D02C7508083A0319A32C023A0319CA2C1B
:1019D800073A0319CA2C183A0319C32CD02C08004B
:1019E800F501F11FF82CF92C002DF009F109F00A86
:1019F8000319F10A0130F500F31F032D042D0B2DF7
:101A0800F209F309F20A0319F30A0130F506F6019F
:101A1800F701700871040319122D132D482D013098
:101A2800F4001F2D01300310F00DF10DFF3E031DD2
:101A3800172D0130F407F11F222D232D162D01300B
:101A48000310F60DF70DFF3E031D242D71087302D8
:101A5800031D302D70087202031C332D342D3B2DCD
:101A68007008F2027108031CF303F30276140130C4
:101A78000310F10CF00CFF3E031D3C2D0130F40265
:101A8800031D472D482D232D750803194C2D4D2D69
:101A9800522DF609F709F60A0319F70A7708F10033
:101AA8007608F00008005E2D0130F6070318F70AE3
:101AB8000030F707770883120313FF0076088400C5
:101AC8008A1102208A15203A03196B2D6C2D582D86
:101AD8007708FF00760884008A1102208A15093ADF
:101AE8000319772D782D582DFB01FC01FA01770891
:101AF800FF00760884008A1102208A152D3A031DFA
:101B0800862D872D902D0130FA070130F60703182E
:101B1800F70A0030F707C12D7708FF007608840020
:101B28008A1102208A152B3A031D9B2D9C2DC12D4D
:101B3800892D7C08F1007B08F0000A30F2000030A3
:101B4800F3008A15EF228A15770883120313FF0022
:101B5800760884008A1102208A157007F800003080
:101B6800031801307107F9007808D03EFB007908A6
:101B78000318013EFF3EFC00892D7708FF00760818
:101B880084008A1102208A158A15B1228A15031841
:101B9800CE2DCF2D9D2D7A080319D32DD42DE02DD0
:101BA8007B09F8007C09F900F80A0319F90A780892
:101BB800F6007908F700E42D7C08F7007B08F600AA
:101BC8000800831603136108630783120313A40034
:101BD800240884000008FF00831603136108C83E28
:101BE80084007F0880000130E1070318E20A003012
:101BF800E2076108630783120313A4002408840022
:101C08000008031D082E092EE52D8A11DC2FFC0182
:101C1800A330FD008A15BE238A1583160313E3003B
:101C2800FC01A330FD008A15BE238A158316031311
:101C3800E300FC01A330FD008A15BE238A15831634
:101C48000313E300FC01A330FD008A15BE238A15A7
:101C580083160313E30063080319332E342E442E2E
:101C68006308F6006308FF39031D0030F7008A1582
:101C780057258A15770883160313E9007608E800C4
:101C8800CE30F9000030FA006E30FB008A154E2481
:101C98008A1579087A040319522E542E8A112D298F
:101CA800831603136908803AFF0080307F02031D02
:101CB8005F2E01306802031C622E632ED62E831617
:101CC8000313E601E701BE2E8312031306168316DB
:101CD8000313EA01EB01792E000001308316031388
:101CE800EA070318EB0A0030EB076B08803A831207
:101CF8000313A400831603135E08803A83120313A8
:101D08002402031D8B2E831603135D086A02031C2D
:101D18008E2E8F2E702E8312031306128316031332
:101D2800EA01EB01A02E0000013083160313EA0735
:101D38000318EB0A0030EB076B08803A8312031391
:101D4800A400831603135E08803A83120313240247
:101D5800031DB22E831603135D086A02031CB52EF9
:101D6800B62E972E013083160313E6070318E70AE9
:101D78000030E7076708803A83120313A40083162C
:101D880003136908803A831203132402031DD02E1B
:101D98008316031368086602031CD32ED42E682EFC
:101DA8008A112729FF30F000FF30F1008316031352
:101DB8006908F3006808F2008A15EF228A1571088D
:101DC80083160313E9007008E800E601E7018A11A9
:101DD80011298312031385018601831603138501D4
:101DE800033086000730831203139F008A15A6224A
:101DF8008A150A3083160313E8000030E9001A3008
:101E0800D4004F30D5001430DD000030DE0014302F
:101E1800DF000030E0001430E4000030E50051300D
:101E280083160313D9005130DA005130DB00DC018E
:101E38005130A0005130A1005130A2005130A30010
:101E4800A401A030F8008A1584228A15831603138A
:101E58002108D9002208DA002308DB00DC01240865
:101E680083120313A400A5012408F6002508F7002F
:101E78008A1557258A15053083160313D800D930DB
:101E8800F0009B30F1008A1514238A15700871043C
:101E9800031D4F2F502F542F83160313D801C42F1F
:101EA800D930F0008730F1008A1514238A1570089C
:101EB8007104031D602F612F662F013083160313F1
:101EC800D800C42FD930F0008B30F1008A151423C4
:101ED8008A1570087104031D722F732F782F023032
:101EE80083160313D800C42FD930F0008F30F100C7
:101EF8008A1514238A1570087104031D842F852FF1
:101F08008A2F033083160313D800C42FD930F0006A
:101F18009330F1008A1514238A1570087104031D83
:101F2800962F972F9C2F043083160313D800C42FA5
:101F3800D930F0009730F1008A1514238A157008FB
:101F48007104031DA82FA92FAE2F05308316031384
:101F5800D800C42FD930F0009F30F1008A1514231F
:101F68008A1570087104031DBA2FBB2FC02F0630C5
:101F780083160313D800C42F073083160313D80021
:101F8800A030FC00A330FD008A15BE238A158316F5
:101F98000313E300CE01CF01D001D101E101E20139
:101FA800ED2F831603136108630783120313A4003C
:101FB800240884000008FF00831603136108CE3E3E
:101FC80084007F0880000130E1070318E20A00302E
:101FD800E2076108630783120313A400240884003E
:101FE80083130008031DF92FFA2FD52F8316031327
:081FF800E101E2018A15FD2D53
:08400000FF3FFF3FFF3FFF3FC0
:02400E00783FF9
:00000001FF
