:100000008A11F52F00308A000408840A8207003420
:10001000013400340A34003464340034E8340334E6
:1000200010342734533479347334743465346D3474
:10003000203469346E3469347434693461346C3416
:1000400069347A346134743469346F346E342034F2
:1000500068346134733420346234653465346E340A
:10006000203463346F346D3470346C3465347434DC
:1000700065346434213421340D340A34003441347D
:100080004C34413452344D342134213420345334EF
:1000900068347534743474346534723420346134A3
:1000A00062346E346F3472346D3461346C3469345C
:1000B000743479342034643465347434653463348E
:1000C000743465346434213421340D340A340034FA
:1000D00044344F3420344E344F34543420344F346D
:1000E00050344534523441345434453420344C3443
:1000F0004134533445345234213421340D340A34DC
:1001000000344334093453344834543409342534E6
:1001100064340934483441344C340934253464346B
:100120000D340A34003443340934563445345234DF
:10013000533449344F344E34203433342E34303435
:100140000D340A34003443340934443443344634DF
:100150000934253464340D340A340034433409340A
:10016000483441344C340934253464340D340A3471
:100170000034433409344C34443450340934253485
:1001800064340D340A340034443443344634003487
:10019000483441344C3400344C344434503400340A
:1001A00056344534523400345334483454340034D3
:0401B0002F340034B4
:1003D00083120313050CF000F00C700C01390800B7
:1003E000F000831203130C1EF629F729F129700877
:1003F00099000800193083160313990024309800DF
:10040000903083120313980008000C3083120313FA
:100410009700920131308316031392008312031365
:1004200012150800F100F0013A3071020318192A80
:100430001A2A222A30307102031C1F2A202A222A5B
:100440000130F000700C0800831203138C1E292A5F
:100450002A2A242A981C2D2A2E2A302A18121816E5
:10046000181D332A342A352A1A081A080800700879
:1004700084008A1102208A117106031D402A412A34
:10048000432A7008512A0130F007FF3070078400BA
:100490008A1102208A11003A031D4F2A502A372A56
:1004A000003008008A11E8218A1183120313EC003E
:1004B0006C086D06B2003208031D5F2A602A712A9B
:1004C0003830A4008A11BB258A11613083120313CE
:1004D000A4008A11BB258A1183120313051400306E
:1004E000732A051001300800F401F501701C792A07
:1004F0007A2A802A7208F4070318F50A7308F507A8
:1005000001300310F20DF30DFF3E031D812A01306F
:100510000310F10CF00CFF3E031D882A70087104D3
:10052000031D932A942A762A7508F1007408F000B6
:1005300008009E2A0130F0070130F107710884009D
:100540008A1102208A11F2007008840083130008C7
:10055000F30072087302F4007408031DB02AB12A74
:10056000B82A700884000008031DB72AB82A9A2AFE
:100570007408F000F101F01BF1030800F701F80125
:10058000C92A0130F3070130F7070318F80A0030D1
:10059000F80773088400831300080319D02AD12AAE
:1005A000E42A7408F000730884000008F500F601DE
:1005B0007508F1007608F2008A1137228A11003A94
:1005C0000319E32AE42AC12A7808F4007708F30023
:1005D0000800F701F801F42A0130F3070130F707AA
:1005E0000318F80A0030F807730884008313000822
:1005F0000319FB2AFC2A0F2B7408F00073088400EF
:100600000008F500F6017508F1007608F2008A117D
:1006100037228A11003A031D0E2B0F2BEC2A780883
:10062000F4007708F3000800831203132008210464
:1006300003191B2B1C2B492B0130FD00282B0130EB
:100640000310A00DA10DFF3E031D202B0130FD075F
:10065000A11F2B2B2C2B1F2B21082302031D322B18
:1006600020082202031C352B362B3C2B2008A2022B
:100670002108031CA303A30201300310A10CA00C4A
:10068000FF3E031D3D2B0130FD02031D482B492B6E
:100690002C2B2308A1002208A000080000308A119A
:1006A00089248A110D3083120313A600FB30A500A4
:1006B000A50B582BA60B582B000083120313061012
:1006C00086160D3083120313A600FB30A500A50B80
:1006D000672BA60B672B0000173083120313A600AD
:1006E0001230A500A50B722BA60B722B32308A118B
:1006F00089248A11043083120313A600E430A50074
:10070000A50B802BA60B802B1E308A1189248A1101
:10071000080000308A1189248A110D3083120313D6
:10072000A600FB30A500A50B932BA60B932B000076
:1007300083120313061486120D3083120313A600CE
:10074000FB30A500A50BA22BA60BA22B0000183096
:1007500083120313A6005E30A500A50BAD2BA60BDC
:10076000AD2BB22B50308A1189248A1107308312A5
:100770000313A6007C30A500A50BBC2BA60BBC2B3D
:10078000C12B28308A1189248A110800831203138F
:10079000B601B701413083120313B400EE30B30049
:1007A000B30BD02BB40BD02B8312031305080139E4
:1007B000FF000130FF0605087F06FE397F06850031
:1007C0000130B6070318B70A0030B7073708803A78
:1007D000FF0080307F02031DEF2B32303602031CF6
:1007E000F22BF32BCA2B8A1152228A118312031384
:1007F000B5003508031DFD2BFE2B032C0B30A40088
:100800008A11BB258A110800FA01FB0176087704DA
:1008100003190B2C0C2C412C0130FC00182C01303E
:100820000310F60DF70DFF3E031D102C0130FC07E1
:10083000F71F1B2C1C2C0F2C01300310FA0DFB0D85
:10084000FF3E031D1D2C77087902031D292C760815
:100850007802031C2C2C2D2C342C7608F8027708F7
:10086000031CF903F9027A1401300310F70CF60C9B
:10087000FF3E031D352C0130FC02031D402C412C92
:100880001C2C7B08F7007A08F60008007908031D85
:100890004A2C4B2C4F2C831203136A08F900790859
:1008A000031D532C542C562C0030882C7908F3004F
:1008B0007A08F4008A11E9228A117308F907790885
:1008C000840083130008031D662C672C6C2C831294
:1008D0000313EA010030882C7908F3007A08F40049
:1008E0008A11BE228A117308790783120313EA0062
:1008F0006A0884008313000803197F2C802C862C3F
:100900006A08840080010130EA07872CEA0179082F
:10091000080083120313A40065302402031C912CE9
:10092000922C942C6430A4006430F6000030F70060
:100930002408A000A1012008F0002108F100C73020
:10094000F2000030F3008A1174228A117108F90054
:100950007008F8008A1104248A117708831203139F
:10096000A3007608A2002308A1002208A00003101B
:10097000A10CA00C0310A10CA00C200895002208CB
:100980000339A00004300310A00DFF3E031DC32C4B
:100990001708CF39200497000800D02C0130F60743
:1009A000760884002030831300060319D82CD92C34
:1009B000CE2C76088400093000060319E02CE12CC7
:1009C000CE2CFB01FC01FA01760884002D300006D4
:1009D000031DEB2CEC2CF12C0130FA070130F6074B
:1009E0001B2D760884002B300006031DF82CF92CF3
:1009F0001B2D0130F6071B2D760884007C08F100C2
:100A00007B08F0000A30F2000030F3008A117422F3
:100A10008A11831300087007F800003003180130B2
:100A20007107F9007808D03EFB0079080318013EF1
:100A3000FF3EFC00F92C7608840000088A1112227F
:100A40008A110318242D252DFC2C7A080319292D31
:100A50002A2D362D7B09F8007C09F900F80A0319C4
:100A6000F90A7808F6007908F7003A2D7C08F700B3
:100A70007B08F6000800F601F70171080319412D03
:100A8000422DBA2D72087304031D472D482DA72D42
:100A9000BA2D8A1124228A11F8000D307806031924
:100AA000522D532D592D0A307806031D582D592DDE
:100AB000692D0D308A11F0218A110A308A11F02136
:100AC0008A1176087107F40074088400831380018A
:100AD000BA2D0830780603196E2D6F2D752D7F30D5
:100AE0007806031D742D752D8E2D76087704031955
:100AF0007A2D7B2D8E2D0130F6020030031CF7037A
:100B0000F70208308A11F0218A1120308A11F02171
:100B10008A1108308A11F0218A11A72D203078021D
:100B20000318932D942D952DA72D76087107F400A9
:100B3000740884007808831380000130F6070318D6
:100B4000F70A0030F70778088A11F0218A11720835
:100B5000FF3EF40073080318013EFF3EF5007508E0
:100B60007702031DB52D74087602031CB82DB92D2C
:100B7000492D612D0800253083120313AC00582E37
:100B8000253031060319C52DC62DCB2D31088A110C
:100B9000F0218A11582EAD010130A407FF3024073F
:100BA00084008A1102208A11B100003A0319682ECC
:100BB000643A0319DF2D0D3A0319DF2D582E2C0846
:100BC000840083130008AF00840A0008B0000230DC
:100BD000AC07B01FEC2DED2DF42D0330AD04AF09A3
:100BE000B009AF0A0319B00A0130B1003108A900F9
:100BF0002907013E84008A1102208A11AA008A1165
:100C000002208A11AB002B083002031D092E2A088E
:100C10002F0203180C2E0D2E0E2E162E0130B107AA
:100C200005303106031D152E162EF62D2D0803391D
:100C300003191B2E1C2E202E2D308A11F0218A1113
:100C4000831203133108AE004F2E0A30A00000308B
:100C5000A1002E08A9002907013E84008A11022064
:100C60008A11F6008A1102208A11F7003008F90073
:100C70002F08F8008A1104248A11770883120313BD
:100C8000A3007608A2008A1114238A118312031389
:100C90002008303EB10031088A11F0218A11FF305E
:100CA00083120313AE072E0A031D572E582E252E2E
:100CB000013083120313A407FF30240784008A1134
:100CC00002208A11B1003108031D672E682EC02D45
:100CD00008000730831203139F00083083160313A4
:100CE00085000230860083120313850186018A1174
:100CF000FA218A118A1105228A118A11C6238A11C2
:100D0000513083120313E5005130E6005130E70003
:100D1000E8015130BC005130BD005130BE005130AF
:100D2000BF00C0013C30F1002830F2000030F30079
:100D30008A113B258A11831203133D08E5003E0802
:100D4000E6003F08E700E8014030F6008A11CD24B4
:100D50008A116530F000C930F1008A1199228A1198
:100D600070087104031DB52EB62EBA2E831203131C
:100D7000E401012F6530F000C530F1008A1199229D
:100D80008A1170087104031DC62EC72ECC2E0130A7
:100D900083120313E400012F6530F000BD30F10031
:100DA0008A1199228A1170087104031DD82ED92E38
:100DB000DE2E023083120313E400012F6530F000B1
:100DC000CD30F1008A1199228A1170087104031D37
:100DD000EA2EEB2EF02E033083120313E400012FD2
:100DE0006530F000C130F1008A1199228A11700833
:100DF0007104031DFC2EFD2E802E0430831203137C
:100E0000E4003C30F900D130FA008A1146248A11FE
:100E1000E02F8C30A4008A11BB258A11802EF901A5
:100E2000D130FA008A1146248A1183120313E90093
:100E3000690803191C2F1D2F262F6908F6008A1137
:100E4000CD248A11760883120313EF006F08031D67
:100E50002A2F2B2F2D2F0511332F6F03031D312F19
:100E6000322F332F0515B230A4006F08B800B90136
:100E70003808A5003908A6008A11BB258A11802EE2
:100E8000F901D130FA008A1146248A118312031322
:100E9000E900690803194D2F4E2F572F6908F600F6
:100EA0008A11CD248A11760883120313EE006E088E
:100EB000031D5B2F5C2F5E2F8510642F6E03031DB7
:100EC000622F632F642F85149C30A4006E08B80035
:100ED000B9013808A5003908A6008A11BB258A1176
:100EE000802EF901D130FA008A1146248A1183122A
:100EF0000313E900690803197E2F7F2F882F6908E3
:100F0000F6008A11CD248A11760883120313ED00AE
:100F10006D08031D8C2F8D2F912F8A114E238A115E
:100F2000992F6D03031D952F962F992F8A118923D1
:100F30008A118A1152228A118A11E8218A11831298
:100F40000313EC007A30A4006D08B800B90138082A
:100F5000A5003908A6006C08BA00BB013A08A70032
:100F60003B08A8008A11BB258A11802EF901D130D7
:100F7000FA008A1146248A1183120313E9006908D2
:100F80000319C32FC42FCD2F6908F6008A11CD2471
:100F90008A11760883120313EC008A11E8218A1162
:100FA00083120313EC00A730A4006C08B800B90149
:100FB0003808A5003908A6008A11BB258A11802EA1
:100FC000831203136408003A0319092F013A031925
:100FD0000F2F033A0319402F013A0319712F073AD3
:100FE0000319B62F802E8A11002883120313EA01F9
:100FF000EB01EC01ED01EE01EF0183018A11692E95
:08400000FF3FFF3FFF3FFF3FC0
:02400E00783FF9
:00000001FF
