:040000008A11FA2F38
:1000060038287A08F4007B08F5007C08F6007C089E
:100016008A1557258A117108F8007008F7008A15A5
:1000260090268A1174087504031D1A281B281C289B
:100036004E287A08013EF0007B080318013E003E78
:10004600F1007C0884008A150A208A1183120313A2
:10005600A000A1012008F2002108F3008A159525C9
:100066008A117008FA007108FB007A087B040319EC
:100076003D283E284C287B0883120313FF007A088C
:1000860084008A1500208A11003A031D4B284C284B
:100096000428FA01FB01080056280130F607031868
:1000A600F70A0030F707770883120313FF00760874
:1000B60084008A1500208A11203A031963286428CF
:1000C60050287708FF00760884008A1500208A11D8
:1000D600093A03196F2870285028FB01FC01FA0120
:1000E6007708FF00760884008A1500208A112D3AC9
:1000F600031D7E287F288A280130FF007F08FA0723
:100106000130F6070318F70A0030F707BB2877080F
:10011600FF00760884008A1500208A112B3A031DF9
:1001260095289628BB2883287C08F1007B08F000D8
:100136000A30F2000030F3008A1570258A1177081C
:1001460083120313FF00760884008A1500208A11A3
:100156007007F8000030031801307107F9007808BD
:10016600D03EFB0079080318013EFF3EFC008328C1
:100176007708FF00760884008A1500208A118A1500
:1001860045258A110318C828C92897287A0803190B
:10019600CD28CE28DA287B09F8007C09F900F80A70
:1001A6000319F90A7808F6007908F700DE287C08B2
:1001B600F7007B08F6000800831203138501860109
:1001C6008316031385010330860007308312031359
:1001D6009F008A153A258A110A3083120313E1001B
:1001E6000030E2001430E3000030E400CB01CC0123
:1001F6001A30CD004F30CE00513083120313DA008F
:100206005130DB005130DC00DD015130A3005130AC
:10021600A4005130A5005130A600A70123308A154D
:1002260018258A11831203132408DA002508DB0037
:100236002608DC00DD012708F6000030031D8030AB
:10024600F7008A114F208A11770883120313CC0016
:100256007608CB000530D9006F30F0005A308A1589
:10026600BA258A1170087104031D3A293B293F29D2
:1002760083120313D901A9295B30F0005A308A157D
:10028600BA258A1170087104031D4A294B29502981
:1002960083120313D901D90AA9295F30F0005A3015
:1002A6008A15BA258A1170087104031D5B295C2919
:1002B6006129023083120313D900A9296330F000A3
:1002C6005A308A15BA258A1170087104031D6C29E3
:1002D6006D297229033083120313D900A9296730C7
:1002E600F0005A308A15BA258A1170087104031D68
:1002F6007D297E298329043083120313D900A92975
:100306006B30F0005A308A15BA258A1170087104CC
:10031600031D8E298F299429053083120313D900D2
:10032600A9297330F0005A308A15BA258A11700847
:100336007104031D9F29A029A529063083120313E2
:10034600D900A929073083120313D9007730FD009D
:1003560023308A154A268A1183120313DE00D1013F
:10036600D201D301D401D701D801CB2957085E07A2
:10037600A200220884000008FF005708513E8400AE
:100386007F0880000130D7070318D80A0030D80745
:1003960057085E07A2002208840083130008031D85
:1003A600D529D629B9295130F10010308A153627BA
:1003B6008A11DE2F7730FD0000308A154A268A1111
:1003C60083120313DE007730FD0000308A154A26BB
:1003D6008A1183120313DE007730FD0000308A1580
:1003E6004A268A1183120313DE007730FD0000309F
:1003F6008A154A268A1183120313DE005E08031942
:10040600052A062A132A5E08F6000030F7008A112C
:100416004F208A11770883120313E2007608E10061
:100426005130FA000030FB004C30FC008A110320EA
:100436008A117A087B040319212A222AEE2A8312BA
:1004460003136208803AFF0080307F02031D2D2AC5
:1004560001306102031C302A312A872A83120313D2
:10046600DF01E001782A831203130616E501E6018F
:10047600452A0000013083120313E5070318E60A34
:100486000030E6076608803AA2006408803A220235
:10049600031D4F2A63086502031C522A532A3C2A6D
:1004A600831203130612E501E601622A00000130F9
:1004B60083120313E5070318E60A0030E607660809
:1004C600803AA2006408803A2202031D6C2A63085F
:1004D6006502031C6F2A702A592A013083120313FE
:1004E600DF070318E00A0030E0076008803AA20040
:1004F6006208803A2202031D822A61085F02031CF9
:10050600852A862A362AFF28FF30F000FF30F100C0
:10051600831203136208F3006108F2008A1570253E
:100526008A11710883120313E2007008E100DF01EB
:10053600E001DF2A831203138616E501E601AC2AE1
:100546000000013083120313E5070318E60A0030A2
:10055600E6076608803AA2006408803A2202031D74
:10056600B62A63086502031CB92ABA2AA32A83128B
:1005760003138612E501E601C92A00000130831241
:100586000313E5070318E60A0030E6076608803A13
:10059600A2006408803A2202031DD32A630865027A
:1005A600031CD62AD72AC02A013083120313DF0779
:1005B6000318E00A0030E0076008803AA2006208EB
:1005C600803A2202031DE92A61085F02031CEC2A15
:1005D600ED2A9D2AFF285130FA000030FB005130E9
:1005E600FC008A1103208A117A087B040319FC2A6D
:1005F600FD2AC92B831203136208803AFF0080305C
:100606007F02031D082B01306102031C0B2B0C2BF0
:10061600622B83120313DF01E001532B83120313B2
:100626000515E501E601202B0000013083120313B6
:10063600E5070318E60A0030E6076608803AA200D6
:100646006408803A2202031D2A2B63086502031CF4
:100656002D2B2E2B172B831203130511E501E60113
:100666003D2B0000013083120313E5070318E60A49
:100676000030E6076608803AA2006408803A220243
:10068600031D472B63086502031C4A2B4B2B342B97
:10069600013083120313DF070318E00A0030E00776
:1006A6006008803AA2006208803A2202031D5D2B90
:1006B60061085F02031C602B612B112BFF28FF30A2
:1006C600F000FF30F100831203136208F3006108A3
:1006D600F2008A1570258A11710883120313E2004D
:1006E6007008E100DF01E001BA2B831203138515C0
:1006F600E501E601872B0000013083120313E507AD
:100706000318E60A0030E6076608803AA200640885
:10071600803A2202031D912B63086502031C942B69
:10072600952B7E2B831203138511E501E601A42B7D
:100736000000013083120313E5070318E60A0030B0
:10074600E6076608803AA2006408803A2202031D82
:10075600AE2B63086502031CB12BB22B9B2B013019
:1007660083120313DF070318E00A0030E00760086E
:10077600803AA2006208803A2202031DC42B610857
:100786005F02031CC72BC82B782BFF285130FA00B9
:100796000030FB005630FC008A1103208A117A08CB
:1007A6007B040319D72BD82BF72F83120313620868
:1007B600803AFF0080307F02031DE32B0130610287
:1007C600031CE62BE72B3D2C83120313DF01E0010C
:1007D6002E2C831203130514E501E601FB2B000002
:1007E600013083120313E5070318E60A0030E60713
:1007F6006608803AA2006408803A2202031D052C8E
:1008060063086502031C082C092CF22B83120313C0
:100816000510E501E601182C0000013083120313D0
:10082600E5070318E60A0030E6076608803AA200E4
:100836006408803A2202031D222C63086502031C09
:10084600252C262C0F2C013083120313DF070318E7
:10085600E00A0030E0076008803AA2006208803AA9
:100866002202031D382C61085F02031C3B2C3C2C22
:10087600EC2BFF28FF30F000FF30F100831203134A
:100886006208F3006108F2008A1570258A11710862
:1008960083120313E2007008E100DF01E001952CEA
:1008A600831203138514E501E601622C0000013072
:1008B60083120313E5070318E60A0030E607660805
:1008C600803AA2006408803A2202031D6C2C630859
:1008D6006502031C6F2C702C592C83120313851090
:1008E600E501E6017F2C0000013083120313E507C2
:1008F6000318E60A0030E6076608803AA200640894
:10090600803A2202031D892C63086502031C8C2C85
:100916008D2C762C013083120313DF070318E00AAF
:100926000030E0076008803AA2006208803A22029E
:10093600031D9F2C61085F02031CA22CA32C532CC1
:10094600FF287730FD0000308A154A268A11831267
:100956000313DE007730FD0000308A154A268A111F
:1009660083120313DE007730FD0000308A154A2615
:100976008A1183120313DE005E080319C32CC42CEC
:10098600D12C5E08F6000030F7008A114F208A113C
:10099600770883120313D0007608CF005008F100C1
:1009A6004F08F0004E08F3004D08F2008A1599270B
:1009B6008A11710883120313E4007008E3006308C8
:1009C6006404031DE72CE82CEC2C0130E300003016
:1009D600E40025308A1536278A11FF287730FD0076
:1009E60000308A154A268A1183120313DE007730F7
:1009F600FD0000308A154A268A1183120313DE0091
:100A06007730FD0000308A154A268A1183120313B7
:100A1600DE007730FD0000308A154A268A118312DF
:100A26000313DE007730FD0000308A154A268A114E
:100A360083120313DE005E080319222D232D302DA9
:100A46005E08F6000030F7008A114F208A117708F9
:100A560083120313E2007608E1006208803AFF0081
:100A660080307F02031D392D01306102031C3C2DAD
:100A76003D2DE82D83120313DF01E001842D83123F
:100A860003130514E501E601512D00000130831220
:100A96000313E5070318E60A0030E6076608803AFE
:100AA600A2006408803A2202031D5B2D63086502DA
:100AB600031C5E2D5F2D482D831203130510E501DF
:100AC600E6016E2D0000013083120313E5070318BB
:100AD600E60A0030E6076608803AA2006408803A13
:100AE6002202031D782D63086502031C7B2D7C2DD5
:100AF600652D013083120313DF070318E00A003067
:100B0600E0076008803AA2006208803A2202031DCC
:100B16008E2D61085F02031C912D922D422D8312AA
:100B26000313DF01E001D92D831203138514E501B8
:100B3600E601A62D0000013083120313E507031812
:100B4600E60A0030E6076608803AA2006408803AA2
:100B56002202031DB02D63086502031CB32DB42DBC
:100B66009D2D831203138510E501E601C32D0000B8
:100B7600013083120313E5070318E60A0030E6077F
:100B86006608803AA2006408803A2202031DCD2D31
:100B960063086502031CD02DD12DBA2D01308312B6
:100BA6000313DF070318E00A0030E0076008803A05
:100BB600A2006208803A2202031DE32D61085F024B
:100BC600031CE62DE72D972DA32EFF30F000FF30F6
:100BD600F100831203136208F3006108F2008A151C
:100BE60070258A11710883120313E2007008E10070
:100BF600DF01E001402E831203138514E501E601AF
:100C06000D2E0000013083120313E5070318E60AD0
:100C16000030E6076608803AA2006408803A22029D
:100C2600031D172E63086502031C1A2E1B2E042EA5
:100C3600831203138510E501E6012A2E0000013018
:100C460083120313E5070318E60A0030E607660871
:100C5600803AA2006408803A2202031D342E6308FB
:100C66006502031C372E382E212E01308312031302
:100C7600DF070318E00A0030E0076008803AA200A8
:100C86006208803A2202031D4A2E61085F02031C95
:100C96004D2E4E2EFE2D83120313DF01E001952EFD
:100CA600831203130514E501E601622E00000130EC
:100CB60083120313E5070318E60A0030E607660801
:100CC600803AA2006408803A2202031D6C2E630853
:100CD6006502031C6F2E702E592E83120313051006
:100CE600E501E6017F2E0000013083120313E507BC
:100CF6000318E60A0030E6076608803AA200640890
:100D0600803A2202031D892E63086502031C8C2E7D
:100D16008D2E762E013083120313DF070318E00AA7
:100D26000030E0076008803AA2006208803A22029A
:100D3600031D9F2E61085F02031CA22EA32E532EB5
:100D46002D308A1536278A11FF281030E10027300A
:100D5600E200DF01E001F62E831203130514E5011C
:100D6600E601BE2E0000013083120313E5070318C7
:100D7600E60A0030E6076608803AA2006408803A70
:100D86002202031DC82E63086502031CCB2ECC2E3F
:100D9600B52E831203130510E501E601DB2E0000D4
:100DA600013083120313E5070318E60A0030E6074D
:100DB6006608803AA2006408803A2202031DE52EE6
:100DC60063086502031CE82EE92ED22E8312031354
:100DD6000618EE2EEF2EF02E042F0130DF07031833
:100DE600E00A0030E0076008803AA2006208803A14
:100DF6002202031D002F61085F02031C032F042F2C
:100E0600AF2E35308A1536278A11FF287730FD0038
:100E160000308A154A268A1183120313DE005E0803
:100E26000319162F172F242F5E08F6000030F7003F
:100E36008A114F208A11770883120313E20076087D
:100E4600E100DF01E001831203130514E501E60169
:100E5600352F0000013083120313E5070318E60A55
:100E66000030E6076608803AA2006408803A22024B
:100E7600031D3F2F63086502031C422F432F2C2FAF
:100E8600831203130510E501E601522F000001301D
:100E960083120313E5070318E60A0030E60766081F
:100EA600803AA2006408803A2202031D5C2F630880
:100EB6006502031C5F2F602F492F83120313061848
:100EC600652F662F672F7A2F0130DF070318E00A98
:100ED6000030E0076008803AFF00A7307F02031D5C
:100EE600762F10305F02031C792F7A2F262F83125C
:100EF6000313DF01E001C12F831203138514E501FB
:100F0600E6018E2F0000013083120313E507031854
:100F1600E60A0030E6076608803AA2006408803ACE
:100F26002202031D982F63086502031C9B2F9C2F2A
:100F3600852F831203138510E501E601AB2F000010
:100F4600013083120313E5070318E60A0030E607AB
:100F56006608803AA2006408803A2202031DB52F73
:100F660063086502031CB82FB92FA22F0130831224
:100F76000313DF070318E00A0030E0076008803A31
:100F8600A2006208803A2202031DCB2F61085F028D
:100F9600031CCE2FCF2F7F2F3D308A1536278A117F
:100FA600FF281B308A1536278A11FF2801308A153B
:100FB60036278A11FF28831203135908003A0319AA
:100FC600DD29013A0319A42C033A0319F12C013A3D
:100FD6000319A82E073A0319092F013A0319D92F25
:100FE600033A0319D42FFF28FF288A1100288312F9
:100FF6000313E70183018A11DF28FF1B0A288313E5
:101006007F1883170008840A0319FF0A08000830AE
:101016008A000408840A82070034433409345634AB
:1010260045345234533449344F344E3420343134F9
:1010360030340D340A34003474346D347034203452
:101046003D342034253473340D340A3400344334AB
:101056000934523445344134443459340D340A3455
:101066000034433409345734543442340D340A348A
:101076000034433409344F34533443340D340A3482
:101086000034433409344E34543444340D340A3471
:101096000034433409344E3444344F340D340A3466
:1010A600003428346E3475346C346C34293400348E
:1010B600523450345334313400345234503453346F
:1010C60032340034523450345334333400345734C9
:1010D6005434423400344F345334433400344E34A1
:1010E6005434443400344E3444344F34003456348B
:1010F600453452340034523450345334003453346B
:0A1106005434533400342F34003405
:101A3000F80078088A15DF268A1508008312031338
:101A40008C1E232D242D1E2D1A080800F000831251
:101A500003130C1E2C2D2D2D272D70089900080026
:101A60008A151E258A15F10071088A1526258A1502
:101A70007108080019308316031399002430980068
:101A800090308312031398000800F100F0013A30FF
:101A9000710203184C2D4D2D552D30307102031C51
:101AA000522D532D552DF001F00A700C0800F20054
:101AB0007208F3005F2D0130FF007F08F307730801
:101AC00084008A150A208A15003A031D682D692DA5
:101AD0005B2D72087302F000F101F01BF1030800A6
:101AE000F401F501701C752D762D7C2D7208F4071C
:101AF0000318F50A7308F50701300310F20DF30D12
:101B0000FF3E031D7D2D01300310F10CF00CFF3E54
:101B1000031D842D70087104031D8F2D902D722DCF
:101B20007508F1007408F0000800710883120313AF
:101B3000FF00700884008A1500208A157206031DB4
:101B4000A22DA32DA42DB92D7108F5007008F40065
:101B5000F00A0319F10A7508FF00740884008A1559
:101B600000208A15003A031DB62DB72D952DF001E2
:101B7000F1010800F500C42D0130FF007F08F507D2
:101B80000130FF007F08F007700884008A150A20E2
:101B90008A15F2007508840083130008F3007208A8
:101BA0007302F4007408031DD62DD72DDE2D7508A1
:101BB00084000008031DDD2DDE2DBC2D7408F0000F
:101BC000F101F01BF1030800FC00FA01FB01F22D0A
:101BD0000130FF007F08FC070130FA070318FB0AF9
:101BE0000030FB077C088400831300080319F92DDB
:101BF000FA2D122E7608F0000030031D8030F1001F
:101C00007C0884000008F800F9017808F2007908DF
:101C1000F3008A1595258A15700871040319112E91
:101C2000122EE82D7B08F7007A08F6000800FC0069
:101C3000FA01FB01252E0130FF007F08FC0701306F
:101C4000FA070318FB0A0030FB077C0884008313A3
:101C5000000803192C2E2D2E452E7608F00000309A
:101C6000031D8030F1007C0884000008F800F901B1
:101C70007808F2007908F3008A1595258A1570080E
:101C80007104031D442E452E1B2E7B08F7007A0895
:101C9000F600080083120313A0002008031D512E34
:101CA000522E542E6708A0002008031D582E592ECE
:101CB0005B2E00308F2E7D08F60020088A1517262F
:101CC0008A157608FF007F0883120313A0072008F7
:101CD000840083130008031D6E2E6F2E722EE70101
:101CE00000308F2E7D08F60020088A15E4258A151D
:101CF0007608831203132007E70067088400831324
:101D000000080319842E852E8D2E6708840080011B
:101D10000130FF007F08E7078E2EE701200808004A
:101D2000CE2E750883120313FF00740884008A15F1
:101D300000208A15003A03199E2E9F2EB12E760898
:101D400084008A150A208A15F9007508FF007408B6
:101D500084008A1500208A1579060319B02EB12E49
:101D6000C42E7508FF00740884008A1500208A15A7
:101D7000F900760884008A150A208A157902F40091
:101D8000F501031CF503DE2E0130F4070318F50AF4
:101D90000030F5070130FF007F08F6070130F70239
:101DA0000030031CF803F802770A031DDB2E780AC3
:101DB000031DDB2EDC2E912EF401F5010800F60048
:101DC0007608F700192F76087706031DE82EE92E0E
:101DD000EA2E192F20308A1526258A1508308A15F3
:101DE00026258A150130F702192F08308A15262575
:101DF0008A1520308A1526258A1508308A15262549
:101E00008A150130F70277087602031C082F092F84
:101E1000F52E192F77088400831380017608352F5B
:101E2000770884007408831380000130FF007F0866
:101E3000F7078A1530258A15F200F3017208F400BD
:101E40007308F5007508003A0319272F102F74083E
:101E5000083A0319E32E023A03190A2F073A031925
:101E60000A2F183A0319032F102F0800F6007130BB
:101E7000F2008A2F2530730603193F2F402F452F7C
:101E800073088A1526258A158A2F7A2F72088400EE
:101E90000008F4000030F5000130FF007F08F20771
:101EA00074087504031D552F562F6B2F4530F40011
:101EB0008030F5006B2F7508FF00740884008A15C8
:101EC00000208A158A1526258A150130F407031883
:101ED000F50A0030F507750883120313FF00740834
:101EE00084008A1500208A15003A031D782F792F67
:101EF0005B2F8A2F0130F607FF30760784008A15A2
:101F00000A208A15F300003A0319982F733A03192F
:101F1000462F8A2F0130F607FF30760784008A1596
:101F20000A208A15F3007308031D972F982F3A2F64
:101F30000800F501F11F9D2F9E2FA52FF009F10933
:101F4000F00A0319F10AF501F50AF31FA82FA92FCA
:101F5000B22FF209F309F20A0319F30A0130FF0064
:101F60007F08F506F601F701700871040319B92F0F
:101F7000BA2FF12FF401F40AC82F01300310F00D2D
:101F8000F10DFF3E031DBE2F0130FF007F08F40757
:101F9000F11FCB2FCC2FBD2F01300310F60DF70D05
:101FA000FF3E031DCD2F71087302031DD92F70084A
:101FB0007202031CDC2FDD2FE42F7008F20271087F
:101FC000031CF303F302761401300310F10CF00C40
:101FD000FF3E031DE52F0130F402031DF02FF12F0A
:101FE000CC2F75080319F52FF62FFB2FF609F709EB
:101FF000F60A0319F70A7708F1007608F0000800DE
:08400000FF3FFF3FFF3FFF3FC0
:02400E00783FF9
:00000001FF
