:100000008A11FD2F00308A000408840A8207003418
:10001000013400340A34003464340034E8340334E6
:1000200010342734253464342C342034253464349B
:100030002C342034253464342C3420342534643476
:060040000D340A34003407
:100B5600F000831203130C1EB12DB22DAC2D7008BC
:100B66009900080019308316031399002430980061
:100B7600903083120313980008007708780403194D
:100B8600C52DC62DF52DFB01FB0AD42D0130031012
:100B9600F70DF80DFF3E031DCA2D0130FF007F083B
:100BA600FB07F81FD72DD82DC92D78087A02031D0B
:100BB600DE2D77087902031CE12DE22DE82D77085A
:100BC600F9027808031CFA03FA0201300310F80C44
:100BD600F70CFF3E031DE92D0130FB02031DF42D2A
:100BE600F52DD82D7A08F8007908F7000800F401E9
:100BF600F501700871040319012E022E392EF60133
:100C0600F60A102E01300310F00DF10DFF3E031D04
:100C1600062E0130FF007F08F607F11F132E142E53
:100C2600052E01300310F40DF50DFF3E031D152EA4
:100C360071087302031D212E70087202031C242EF4
:100C4600252E2C2E7008F2027108031CF303F30202
:100C5600741401300310F10CF00CFF3E031D2D2E11
:100C66000130F602031D382E392E142E7508F100B8
:100C76007408F000080083120313AE002030AB00A6
:100C8600E22E253031060319492E4A2E4F2E310801
:100C96008A11AB258A11E22EAC010130AE07FF3076
:100CA6002E0784008A1102208A11B100003A031926
:100CB600F22E643A0319632E0D3A0319632EE22EBF
:100CC6002B08840083130008AF00840A0008B000D4
:100CD6000230FF007F08AB07B01F722E732E7C2EEA
:100CE6000330FF007F08AC04AF09B009AF0A03194F
:100CF600B00AB101B10A3108A8002807013E8400F4
:100D06008A1102208A11A9008A1102208A11AA00DA
:100D16002A083002031D912E29082F020318942E4B
:100D2600952E962EA02E0130FF007F08B1070530C4
:100D36003106031D9F2EA02E7E2E2C080339031983
:100D4600A52EA62EAA2E2D308A11AB258A11831226
:100D560003133108AD00D72E0A30F7000030F80033
:100D66002D08A8002807013E84008A1102208A1156
:100D7600F0008A1102208A11F1003008F3002F08D2
:100D8600F2008A11FA258A117108FA007008F90032
:100D96008A11C0258A117708303E83120313B100E9
:100DA60031088A11AB258A11FF30FF007F088312B4
:100DB6000313AD072D0A031DE12EE22EAF2E0130DF
:100DC60083120313AE07FF302E0784008A11022018
:100DD6008A11B1003108031DF12EF22E442E0800AF
:100DE60083120313850186010330831603138500DE
:100DF600023086000730831203139F008A11B5253F
:100E06008A1183120313B801B901BA01BB01B601F5
:100E1600B7010130BC000030BD000330831203135C
:100E2600B4008A30B3005530B200B20B182FB30BA2
:100E3600182FB40B182F0000831203130616033065
:100E460083120313B4008A30B3005530B200B20BDC
:100E56002A2FB30B2A2FB40B2A2F00008312031359
:100E6600061238083904031D392F3A2F542F3A0831
:100E76003B04031D3F2F402F542F051C432F442FA7
:100E86004A2F3C08B6070318B70A3D08B707851C62
:100E96004D2F4E2F542F3C08B6023D08031CB703B6
:100EA600B70238033904031D592F5A2F742F3A08F5
:100EB6003B04031D5F2F602F742F0518632F642FCB
:100EC6006A2F3C08B6023D08031CB703B702851C0F
:100ED6006D2F6E2F742F3C08B6070318B70A3D080E
:100EE600B70738083904031D792F7A2F942F3A0350
:100EF6003B04031D7F2F802F942F051C832F842FE7
:100F06008A2F3C08B6023D08031CB703B7028518B2
:100F16008D2F8E2F942F3C08B6070318B70A3D086D
:100F2600B70738033904031D992F9A2FB42F3A03B4
:100F36003B04031D9F2FA02FB42F0518A32FA42F0A
:100F4600AA2F3C08B6070318B70A3D08B707851845
:100F5600AD2FAE2FB42F3C08B6023D08031CB703D5
:100F6600B702031005180314003003180130B2004D
:100F7600B3013208B8003308B9000310851803140A
:100F8600003003180130B200B3013208BA0033084A
:100F9600BB003908A1003808A00003100518031487
:100FA600003003180130B200B3013208A200330842
:100FB600A3003B08A5003A08A400031085180314F3
:100FC600003003180130B400B5013408A600350816
:100FD600A7000B308A113E268A11831203133708A5
:100FE600A1003608A00017308A113E268A11102F5C
:0A0FF6008A11002883018A11F32EEE
:08400000FF3FFF3FFF3FFF3FC0
:02400E00783FF9
:00000001FF
