:100000008A11FA2FFF1B0C2883137F18831700080F
:10001000840A0319FF0A080000308A000408840AD1
:1000200082070034013400340A340034643400346C
:10003000E83403341034273464346934733474344A
:1000400020343D342034253464340A3400342834D8
:100050006E3475346C346C342934003443340D34CC
:100060000A340034253473340A3400345734543499
:10007000423400344F345334433400345234503417
:08008000533400342F34003426
:10009200F80078088A1134228A11080083120313A7
:1000A2008C1E542855284F281A080800F000831285
:1000B20003130C1E5D285E2858287008990008005A
:1000C2008A114F208A11F10071088A1157208A1172
:1000D20071080800F20072088A1192208A110A300F
:1000E2008A1157208A1108001930831603139900C8
:1000F2002430980090308312031398000800F10016
:10010200F0013A307102031887288828902830308D
:100112007102031C8D288E289028F001F00A700CC1
:100122000800F100A028710884008A110C208A11AD
:100132008A1157208A110130FF007F08F1077108E8
:1001420084008A110C208A11003A031DA928AA28CA
:1001520094280800F200720884008A110C208A1187
:100162007006031DB528B628B8287208C6280130C3
:10017200F207FF30720784008A110C208A11003ABC
:10018200031DC428C528AC2800300800F401F5017D
:10019200701CCC28CD28D3287208F4070318F50A5E
:1001A2007308F50701300310F20DF30DFF3E031D36
:1001B200D42801300310F10CF00CFF3E031DDB28A4
:1001C20070087104031DE628E728C9287508F100A4
:1001D2007408F0000800F500F6280130FF007F08DF
:1001E200F5070130FF007F08F007700884008A11CC
:1001F2000C208A11F2007508840083130008F300B2
:1002020072087302F4007408031D082909291029D1
:10021200750884000008031D0F291029EE287408B0
:10022200F000F101F01BF1030800F900F701F801F9
:1002320024290130FF007F08F9070130F70703186E
:10024200F80A0030F80779088400831300080319BC
:100252002B292C293E29790884000008F500F60193
:100262007508F0007608F10073088A11AB208A1134
:10027200003A03193D293E291A297808F400770823
:10028200F3000800F900F701F80151290130FF00DD
:100292007F08F9070130F7070318F80A0030F8075A
:1002A20079088400831300080319582959296B29F6
:1002B200790884000008F500F6017508F000760858
:1002C200F10073088A11AB208A11003A031D6A29D2
:1002D2006B2947297808F4007708F30008007708AB
:1002E2007804031975297629A529FB01FB0A8429BB
:1002F20001300310F70DF80DFF3E031D7A2901307E
:10030200FF007F08FB07F81F8729882979297808C9
:100312007A02031D8E2977087902031C91299229FA
:1003220098297708F9027808031CFA03FA020130C7
:100332000310F80CF70CFF3E031D99290130FB0254
:10034200031DA429A52988297A08F8007908F7004D
:100352000800F401F501700871040319B129B229EA
:10036200E929F601F60AC02901300310F00DF10D5A
:10037200FF3E031DB6290130FF007F08F607F11F7B
:10038200C329C429B52901300310F40DF50DFF3E30
:10039200031DC52971087302031DD1297008720259
:1003A200031CD429D529DC297008F2027108031C28
:1003B200F303F302741401300310F10CF00CFF3E4E
:1003C200031DDD290130F602031DE829E929C429AC
:1003D2007508F1007408F0000800FB007B08031D9B
:1003E200F329F429F829831203136708FB007B0819
:1003F200031DFC29FD29FF290030332A7A08F30066
:100402007B088A1143218A117308FF007F08FB07CA
:100412007B08840083130008031D102A112A162A60
:1004220083120313E7010030332A7A08F3007B08B2
:100432008A1116218A1173087B0783120313E700BE
:1004420067088400831300080319282A292A312AFD
:100452006708840080010130FF007F08E707322A25
:10046200E7017B080800F6007608F7006E2A760896
:100472007706031D3D2A3E2A3F2A6E2A20308A1122
:1004820057208A1108308A1157208A110130F70249
:100492006E2A08308A1157208A1120308A1157207B
:1004A2008A1108308A1157208A110130F702770821
:1004B2007602031C5D2A5E2A4A2A6E2A7708840085
:1004C2008313800176088A2A7708840074088313CC
:1004D20080000130FF007F08F7078A1161208A112E
:1004E200F200F3017208F4007308F5007508003A8F
:1004F20003197C2A652A7408083A0319382A023A31
:1005020003195F2A073A03195F2A183A0319582A6E
:10051200652A0800F501F11F8F2A902A972AF0090F
:10052200F109F00A0319F10AF501F50AF31F9A2AF3
:100532009B2AA42AF209F309F20A0319F30A0130E9
:10054200FF007F08F506F601F70170087104031930
:10055200AB2AAC2AE32AF401F40ABA2A01300310C6
:10056200F00DF10DFF3E031DB02A0130FF007F08A0
:10057200F407F11FBD2ABE2AAF2A01300310F60D7F
:10058200F70DFF3E031DBF2A71087302031DCB2A1C
:1005920070087202031CCE2ACF2AD62A7008F202F1
:1005A2007108031CF303F302761401300310F10CFB
:1005B200F00CFF3E031DD72A0130F402031DE22A8C
:1005C200E32ABE2A75080319E72AE82AED2AF60962
:1005D200F709F60A0319F70A7708F1007608F0001E
:1005E2000800FD00F82A0130FF007F08FD077D08A2
:1005F20084002030831300060319002B012BF42AF8
:100602007D088400093000060319082B092BF42AFF
:10061200FB01FC01FA017D0884002D300006031D58
:10062200132B142B1D2B0130FF007F08FA0701301A
:10063200FF007F08FD07492B7D0884002B30000650
:10064200031D242B252B492B0130FF007F08FD07BA
:10065200492B7D0884007C08F1007B08F0000A30F9
:10066200F2000030F3008A11C7208A1183130008B8
:100672007007F8000030031801307107F90078089C
:10068200D03EFB0079080318013EFF3EFC00252BFB
:100692007D08840000088A1180208A110318522BD9
:1006A200532B2A2B7A080319572B582B642B7B09BF
:1006B200F8007C09F900F80A0319F90A7808F6002B
:1006C2007908F700682B7C08F7007B08F600080021
:1006D20083120313A8007C30A500442C25302B067E
:1006E2000319742B752B7A2B2B088A1157208A1128
:1006F200442CA301B02B250884000008A60000307A
:10070200A7000130FF007F08A50726082704031D64
:100712008B2B8C2BA32B1630A6008030A700A32B8B
:100722002708FF00260884008A1102208A118A11F4
:1007320057208A11013083120313A6070318A70A50
:100742000030A7072708FF00260884008A1102202C
:100752008A11003A031DAE2BAF2B912B442C013092
:10076200A807FF30280784008A110C208A11AB00E9
:10077200003A0319542C643A0319C62B0D3A031993
:10078200C62B1A3A03197C2B442C25088400000836
:10079200A900840A0008AA000230FF007F08A5070A
:1007A200AA1FD42BD52BDE2B0330FF007F08A30416
:1007B200A909AA09A90A0319AA0AAB01AB0A2B08BB
:1007C200A0002007013E84008A110C208A11A1009A
:1007D2008A110C208A11A20022082A02031DF32B7F
:1007E200210829020318F62BF72BF82B022C0130D3
:1007F200FF007F08AB0705302B06031D012C022CDE
:10080200E02B230803390319072C082C0C2C2D305C
:100812008A1157208A11831203132B08A400392C42
:100822000A30F7000030F8002408A0002007013E3B
:1008320084008A110C208A11F0008A110C208A117E
:10084200F1002A08F3002908F2008A11AA218A116C
:100852007108FA007008F9008A1170218A1177086C
:10086200303E83120313AB002B088A1157208A11E2
:10087200FF30FF007F0883120313A407240A031D1D
:10088200432C442C112C013083120313A807FF3090
:10089200280784008A110C208A11AB002B08031D43
:1008A200532C542C6F2B08008312031385018601ED
:1008B2008316031385010230860007308312031367
:1008C2009F008A1175208A110A3083120313E100F6
:1008D2000030E2003230E3000030E4001A30D5008C
:1008E2004F30D600513083120313DA005130DB004F
:1008F2005130DC00DD015130AD005130AE005130DD
:10090200AF00B0012D308A1149208A112D30FC0030
:1009120021308A1169238A11831203132E08DA0007
:100922002F08DB003008DC00DD010330D9002D3058
:10093200F0005A308A11EC208A1170087104031DEC
:10094200A32CA42CA82C83120313D901C92C253063
:10095200F0005A308A11EC208A1170087104031DCC
:10096200B32CB42CB92C83120313D901D90AC92C84
:100972002930F0005A308A11EC208A117008710473
:10098200031DC42CC52CC92C023083120313D900B9
:100992003130FA002D308A11EE218A11E82F3130E0
:1009A200FA0000308A11EE218A1183120313E0004B
:1009B2003130FA0000308A11EE218A1183120313BA
:1009C200E0003130FA0000308A11EE218A118312E0
:1009D2000313E0003130FA0000308A11EE218A114F
:1009E20083120313E00060080319F82CF92C032D7D
:1009F20060088A11F2228A11770883120313E20037
:100A02007608E1006208FD006108FC000B308A11E3
:100A120069238A11831203136208803AFF0080302F
:100A22007F02031D162D01306102031C192D1A2DA0
:100A3200702D83120313DE01DF01612D8312031374
:100A42000514E501E6012E2D000001308312031387
:100A5200E5070318E60A0030E6076608803AAC00AC
:100A62006408803A2C02031D382D63086502031CBA
:100A72003B2D3C2D252D831203130510E501E601C4
:100A82004B2D0000013083120313E5070318E60A19
:100A92000030E6076608803AAC006408803A2C020F
:100AA200031D552D63086502031C582D592D422D37
:100AB200013083120313DE070318DF0A0030DF0759
:100AC2005F08803AAC006208803A2C02031D6B2D4D
:100AD20061085E02031C6E2D6F2D1F2DD62DFF3077
:100AE200F000FF30F100831203136208F300610883
:100AF200F2008A11C7208A11710883120313E200DF
:100B02007008E100DE01DF01C82D83120313851492
:100B1200E501E601952D0000013083120313E5077C
:100B22000318E60A0030E6076608803AAC0064085B
:100B3200803A2C02031D9F2D63086502031CA22D1F
:100B4200A32D8C2D831203138510E501E601B22D2E
:100B52000000013083120313E5070318E60A003090
:100B6200E6076608803AAC006408803A2C02031D4E
:100B7200BC2D63086502031CBF2DC02DA92D0130B9
:100B820083120313DE070318DF0A0030DF075F0852
:100B9200803AAC006208803A2C02031DD22D610813
:100BA2005E02031CD52DD62D862D2B308A116B208B
:100BB2008A111D308A1169238A11732C3130FA008F
:100BC20000308A11EE218A1183120313E0003130C2
:100BD200FA0000308A11EE218A1183120313E00019
:100BE2003130FA0000308A11EE218A118312031388
:100BF200E00060080319FE2DFF2D092E60088A11FE
:100C0200F2228A11770883120313D8007608D700DC
:100C12005808F1005708F0005608F3005508F20092
:100C22008A118B228A11710883120313E40070085F
:100C3200E30063086404031D1F2E202E732C013071
:100C4200E3000030E400732C3130FA0000308A11E6
:100C5200EE218A1183120313E0003130FA000030D2
:100C62008A11EE218A1183120313E0003130FA0057
:100C720000308A11EE218A1183120313E000313011
:100C8200FA0000308A11EE218A1183120313E00068
:100C92003130FA0000308A11EE218A1183120313D7
:100CA200E00060080319562E572E612E60088A1143
:100CB200F2228A11770883120313E2007608E10018
:100CC2006208FD006108FC000B308A1169238A1159
:100CD200831203136208803AFF0080307F02031DF3
:100CE200742E01306102031C772E782E232F83127B
:100CF2000313DE01DF01BF2E831203130514E50186
:100D0200E6018C2E0000013083120313E50703185D
:100D1200E60A0030E6076608803AAC006408803ACA
:100D22002C02031D962E63086502031C992E9A2E2F
:100D3200832E831203130510E501E601A92E00009C
:100D4200013083120313E5070318E60A0030E607B1
:100D52006608803AAC006408803A2C02031DB32E68
:100D620063086502031CB62EB72EA02E0130831233
:100D72000313DE070318DF0A0030DF075F08803A3B
:100D8200AC006208803A2C02031DC92E61085E0283
:100D9200031CCC2ECD2E7D2E83120313DE01DF0128
:100DA200142F831203138514E501E601E12E0000DE
:100DB200013083120313E5070318E60A0030E60741
:100DC2006608803AAC006408803A2C02031DEB2EC0
:100DD20063086502031CEE2EEF2ED82E8312031336
:100DE2008510E501E601FE2E000001308312031397
:100DF200E5070318E60A0030E6076608803AAC0009
:100E02006408803A2C02031D082F63086502031C44
:100E12000B2F0C2FF52E013083120313DE0703185C
:100E2200DF0A0030DF075F08803AAC006208803AD0
:100E32002C02031D1E2F61085E02031C212F222F8C
:100E4200D22EDE2FFF30F000FF30F10083120313A9
:100E52006208F3006108F2008A11C7208A11710842
:100E620083120313E2007008E100DE01DF017B2F31
:100E7200831203138514E501E601482F00000130B7
:100E820083120313E5070318E60A0030E607660833
:100E9200803AAC006408803A2C02031D522F63088A
:100EA2006502031C552F562F3F2F83120313851003
:100EB200E501E601652F0000013083120313E50707
:100EC2000318E60A0030E6076608803AAC006408B8
:100ED200803A2C02031D6F2F63086502031C722FD8
:100EE200732F5C2F013083120313DE070318DF0A0E
:100EF2000030DF075F08803AAC006208803A2C02BB
:100F0200031D852F61085E02031C882F892F392F4C
:100F120083120313DE01DF01D02F831203130514A2
:100F2200E501E6019D2F0000013083120313E5075E
:100F32000318E60A0030E6076608803AAC00640847
:100F4200803A2C02031DA72F63086502031CAA2FF7
:100F5200AB2F942F831203130510E501E601BA2F7C
:100F62000000013083120313E5070318E60A00307C
:100F7200E6076608803AAC006408803A2C02031D3A
:100F8200C42F63086502031CC72FC82FB12F01307D
:100F920083120313DE070318DF0A0030DF075F083E
:100FA200803AAC006208803A2C02031DDA2F6108F5
:100FB2005E02031CDD2FDE2F8E2F2B308A116B2059
:100FC2008A111D308A1169238A11732C732C8312A2
:100FD20003135908003A0319D02C013A0319DF2DE3
:100FE200033A0319252E013A0319E72F732C8A11AC
:0E0FF200002883120313E70183018A11552C96
:08400000FF3FFF3FFF3FFF3FC0
:02400E00783FF9
:00000001FF
