:0400000080311D2806
:100008007E14803100308600003087000B1F0D28D9
:100018000E281B282100111F122813281B28200036
:10002800111F172818281B288231582280317E106A
:10003800090080311F28FB01FC017E10200080315F
:1000480025288131402180318131E8218031823178
:100058004322803182313922803182312F2280310E
:1000680082311922803182310E2280318131FB2187
:1000780080318B170B17003081315F218031710877
:100088002000A7007008A600013081315F2180316F
:100098007108F8007008F700023081315F21803163
:1000A80071082000A5007008A400033081315F2189
:1000B800803171082000A3007008A200043081314B
:1000C8005F21803171082000A1007008A0000D0890
:1000D8000139F4000D0C0139F5000D0C890C0139BA
:1000E800F6007403031D79287A2882282708F1006E
:1000F8002608F0008131A721803188280030F000DF
:10010800F1008131A72180317503031D8C288D28CA
:10011800B2287608031D91289228B2287808F100A1
:100128007708F00081319021803120002508F10006
:100138002408F00081317921803120002308F10062
:100148002208F0008131D321803120002108F100FC
:100158002008F0008131BE2180313F287503031D3E
:10016800B628B728D9287603031DBB28BC28D92868
:100178007808F1007708F000813190218031780803
:10018800F1007708F0008131792180317808F10099
:100198007708F0008131D32180317808F1007708A1
:1001A800F0008131BE2180313F280030F000F1009D
:1001B8008131902180310030F000F10081317921C6
:1001C80080310030F000F1008131D32180310030DE
:1001D800F000F1008131BE2180313F2880311D2897
:1001E80022008C018D018E01FF3021008C00FF3030
:1001F8008D00E0308E00083090003F3023008C00E6
:1002080038308D00E0308E00D03024008C00F8307B
:100218008D00E0308E0008309000210097132500F3
:100228008C018D018E01D03026008C00F8308D00B5
:10023800E0308E00D03027008C00F8308D00E030A0
:100248008E000830900019303D00A1001A30A0003F
:100258001730A2001630A3001530A4002700910122
:1002680092019301940195019601970198019901D2
:100278009D019E019F01080082314D22813180310C
:10028800F42081318131FB21813182314322813156
:1002980082313922813182312F2281318131E82125
:1002A800813182311922813182310E2281318231AC
:1002B800242281310800F3007308F200F20DF20DD8
:1002C8002900100872060339720690000630890B5F
:1002D8006B29003229009014901873297429702909
:1002E8000F08F1000E08F00008007108F30070080C
:1002F800F200FF30F2050330F30525001B1E8529A7
:1003080086298B290630F235F30D890B8729730866
:100318009A007208990008007108F3007008F2004A
:10032800FF30F2050330F3052500171E9C299D298F
:10033800A2290630F235F30D890B9E297308960021
:100348007208950008007108F3007008F200FF3089
:10035800F2050330F3052500131EB329B429B92982
:100368000630F235F30D890BB5297308920072082F
:10037800910008007108F3007008F200F336F20CDF
:10038800F336F20C72082C00980070080339F2005A
:100398000630F235890BCD297208970008007108DC
:1003A800F3007008F200F336F20CF336F20C720820
:1003B8002C00950070080339F2000630F235890BDD
:1003C800E229720894000800013029009700A03043
:1003D80096009801FF309400930100302000A80097
:1003E8000030A9009110C7302900950008002900A5
:1003F800101001309000C03091008F018E019201E1
:10040800FB01FC0120001113210011130130290008
:100418009000080080302C0099007F309800C03090
:100428009700F33025009F05080080302C009600C7
:100438007F309500C0309400FC3025009F050800EF
:100448008B10210017170030F0000030F1008231C6
:100458005322823108008F3025009B0001309A001A
:10046800FF309900CF309E0508008F302500970097
:1004780001309600FF309500F3309E0508008F305C
:100488002500930001309200FF309100FC309E055A
:100498000800783021009B009D019A01080071082E
:0E04A800FA007008F900080020001113080087
:020000040001F9
:04000E00E43FFF3E8E
:00000001FF
