:08000000803102288731E42F52
:10001200F401F501701C0E280F2813287208F4074A
:100022007308F53D0130F235F30D890B14280130C8
:10003200F136F00C890B192870087104031D22286F
:1000420023280B287508F1007408F000080020002E
:1000520022082304031D2E282F2833286A08A30010
:100062006908A20022082304031D382839283C28E5
:10007200A201A30181282308F8002208F70025081D
:10008200FA002408F9008E31FE268031770820001C
:10009200A2077808A33D22088600230887000108EA
:1000A200031D542855285A28E901EA01A201A30197
:1000B20081282308F8002208F7002508FA002408FE
:1000C200F9008E31CA268031770820002207E90024
:1000D2007808233DEA00690886006A08870001085B
:1000E2000319742875287F28690886006A08870022
:1000F20081010130E9070030EA3D8128E901EA0186
:1001020008007308F9007208F800CA287908730613
:10011200031D8D2878087206031D902891289228C5
:10012200CA2820308E310C26803108308E310C26C0
:1001320080310130F8020030F93BCA2808308E3194
:100142000C26803120308E310C26803108308E31E1
:100152000C2680310130F8020030F93B7908730235
:10016200031DB52878087202031CB828B9289F28F5
:10017200CA2878088600790887008101E62878086D
:10018200860079088700760881000130F807003080
:10019200F93D8E3116268031F400F5017408F6001F
:1001A2007508F7007708003A0319D828C02876089E
:1001B200083A03198728023A0319BA28073A031999
:1001C200BA28183A0319AF28C0280800EC280130D1
:1001D200F6070030F73D7608860077088700203062
:1001E20001060319F528F628E8287608860077081C
:1001F2008700093001060319FF280029E82820009A
:10020200A101A201A00176088600770887002D309F
:100212000106031D0D290E2917290130F80078085F
:10022200A0070130F6070030F73D43297608860023
:10023200770887002B300106031D20292129432935
:10024200122976088600770887000108F800F9016C
:1002520020002208F1002108F0000A30F2000030EC
:10026200F30080310920803178087007FA0079089C
:10027200713DFB007A08D03E2000A100FF307B3D9B
:10028200A2001229760886007708870001088E31BD
:100292003E26803103184E294F29222920002008AA
:1002A20003195429552961292109F8002209F90065
:1002B200F80A0319F90A7808F6007908F70065299F
:1002C2002208F7002108F600080022302000AA00C8
:1002D2003F2A25302F0603196F29702975292F0807
:1002E2008E310C2681313F2AA801A4292A088600D2
:1002F2008701403FAB00413FAC000230A40024081C
:10030200AA072B082C04031D872988299A2956300D
:10031200AB009030AC009A292B0884002C08850091
:1003220000088E310C26813101302000AB070030ED
:10033200AC3D2B0884002C0885001200031DA22965
:10034200A3298D293F2A2108A5002008A400A00A7C
:100352000319A10A24088400250885000008AF00BB
:10036200003A0319522A643A0319BE290D3A0319B5
:10037200BE291A3A031977293F2A2A0886008701DB
:10038200403FAD00413FAE000230A4002408AA075E
:10039200AE1FCC29CD29D6290330A4002408A804F5
:1003A200AD09AE09AD0A0319AE0AAF01AF0A2F08B3
:1003B200A400A501A435A50D003024078400103047
:1003C200253D80388500003FA600013FA700270891
:1003D2002E02031DEE2926082D020318F129F22907
:1003E200F329FD290130A4002408AF0705302F06A8
:1003F200031DFC29FD29D829280803390319022ADB
:10040200032A072A2D308E310C26813120002F0835
:10041200A900352A0A30F8000030F9002908A400A2
:10042200A501A435A50D0030240784001030253D18
:1004320080388500003FF000013FF1002E08F300F4
:100442002D08F2008F316A2781317108FB00700894
:10045200FA008E31962681317808303E2000AF00B6
:100462002F088E310C268131FF302000A400240891
:10047200A907290A031D3E2A3F2A0B2A2000210828
:10048200A5002008A400A00A0319A10A24088400D8
:10049200250885000008AF002F08031D512A522AA3
:1004A2006A2908002C302000D0000130D10014301D
:1004B200D2000030D300C401C501C601C7018E318C
:1004C2002C26823114303D00900001303C00A40003
:1004D20000302000A3000030A2002530A1008030AF
:1004E200A0008F313227823151302000E300513099
:1004F200E4005130E500E601C43086002230870076
:100502005130C03FC5308600223087005130810013
:10051200C63086002230870051308100C430860008
:100522002230870043318101C430FA002230FB00BF
:100532008E310426823161302000A0009030A1006B
:10054200C430A2002230A300813166218231C4303E
:10055200860022308700413101082000E300C430C8
:1005620086002230870042310108E400C430860050
:100572002230870043310108E500E6010D30E20038
:100582006330F0000030F1009930F2009030F30057
:100592008E316E26823170087104031DD12AD22A4F
:1005A200D62A08302000E200E62B6330F00000304B
:1005B200F1006530F2009030F3008E316E26823108
:1005C20070087104031DE62AE72AEA2A2000E201E4
:1005D200E62B6330F0000030F1006D30F200903015
:1005E200F3008E316E26823170087104031DFA2ADF
:1005F200FB2AFF2A2000E201E20AE62B6330F00028
:100602000030F1007530F2009030F3008E316E262A
:10061200823170087104031D0F2B102B142B023032
:100622002000E200E62B6330F0000030F100693078
:10063200F2009030F3008E316E2682317008710420
:10064200031D242B252B292B03302000E200E62B4F
:100652006330F0000030F1007130F2009030F300AE
:100662008E316E26823170087104031D392B3A2BAC
:100672003E2B04302000E200E62B6330F000003015
:10068200F1007930F2009030F3008E316E26823123
:1006920070087104031D4E2B4F2B532B0530200085
:1006A200E200E62B6330F0000030F1007D30F20012
:1006B2009030F3008E316E26823170087104031D72
:1006C200632B642B682B06302000E200E62B63309C
:1006D200F0000030F1008D30F2009030F3008E31E6
:1006E2006E26823170087104031D782B792B7D2BC5
:1006F20007302000E200E62B6330F0000030F1000A
:100702008130F2009030F3008E316E268231700813
:100712007104031D8D2B8E2B922B09302000E200D9
:10072200E62B6330F0000030F1009130F20090309F
:10073200F3008E316E26823170087104031DA22BE4
:10074200A32BA72B0A302000E200E62B6330F00037
:100752000030F1008930F2009030F3008E316E26C5
:10076200823170087104031DB72BB82BBC2B0B30E0
:100772002000E200E62B6330F0000030F10085300B
:10078200F2009030F3008E316E26823170087104CF
:10079200031DCC2BCD2BD12B0C302000E200E62BFD
:1007A2006330F0000030F1009530F2009030F30039
:1007B2008E316E26823170087104031DE12BE22B0B
:1007C200E62B0D302000E200E62BC4302000A20010
:1007D2002230A3009D30A4009030A5008031282053
:1007E200823120002308E8002208E700B92FD40153
:1007F200D501132C20005508B1005408B000B035C3
:10080200B10D6C30B2002030B300300832078600E0
:100812003108333D87000030C03FC13F0130D4076B
:100822000030D53D5508803AB0005108803A300278
:10083200031D1D2C50085402031C202C212CFB2BC1
:100842002000E001E1017D2C00302000A200A30085
:100852009D30A4009030A5008031282082312000F4
:100862002308E8002208E7006708680403193A2C05
:100872003B2C732C6808F7006708F6008031E720EC
:10088200823120006108B1006008B000B035B10DBE
:100892006C30B2002030B3003008320786003108D5
:1008A200333D87007608C03F7708C13F5D30A00026
:1008B2009030A1006108B1006008B000B035B10D00
:1008C2006C30B2002030B3003008320786003108A5
:1008D200333D8700403FA200413FA30081316621A2
:1008E2008231782C6108C5006008C4008B2C01306D
:1008F2002000E0070030E13D6108803AB000510875
:10090200803A3002031D872C50086002031C8A2C97
:100912008B2C252C1E302000A0009030A1008131AC
:1009220066218231752AD601D701A32C20005635C3
:10093200A03E860087010030C03FC13F0130D6078C
:100942000030D73D5708803AB0005308803A300251
:10095200031DAD2C52085602031CB02CB12C972C4F
:100962002000DE01DF01E52C00302000A200A30000
:100972009D30A4009030A5008031282082312000D3
:100982002308E8002208E700670868040319CA2C54
:10099200CB2CDC2C6808F7006708F6008031E720D2
:1009A200823120005E35A03E860087017608C03F76
:1009B2007708C13FE12C5F08C7005E08C600F32C30
:1009C2000130DE070030DF3D5F08803AB000530897
:1009D200803A3002031DEF2C52085E02031CF22CF7
:1009E200F32CB52C2E302000A0009030A1008131D4
:1009F20066218231752A3E30A0009030A1008131FB
:100A020066218231752A0030A200A3009D30A40025
:100A12009030A50080312820823120002308E80090
:100A22002208E700670868040319182D192D252DDF
:100A32006808F7006708F6008031E72082317708FE
:100A42002000B5007608B4000030A200A3009D305B
:100A5200A4009030A5008031282082312000230894
:100A6200E8002208E700670868040319392D3A2DC7
:100A7200462D6808F7006708F6008031E7208231CA
:100A820077082000B7007608B6002630A000903024
:100A9200A100813166218231752A0030A200A300B3
:100AA2009D30A4009030A5008031282082312000A2
:100AB2002308E8002208E700670868040319622D8A
:100AC200632D6F2D6808F7006708F6008031E72074
:100AD200823177082000B9007608B8000030A20001
:100AE200A3009D30A4009030A500803128208231DF
:100AF20020002308E8002208E700670868040319B9
:100B0200832D842D902D6808F7006708F600803148
:100B1200E720823177082000BB007608BA00363021
:100B2200A0009030A100813166218231752A003007
:100B3200A200A3009D30A4009030A500803128209F
:100B4200823120002308E8002208E70067086804D1
:100B52000319AC2DAD2DB92D6808F7006708F60012
:100B62008031E720823177082000BD007608BC0082
:100B72000030A200A3009D30A4009030A500803177
:100B82002820823120002308E8002208E7006708B5
:100B920068040319CD2DCE2DDA2D6808F7006708F9
:100BA200F6008031E720823177082000BF00760806
:100BB200BE004630A0009030A10081316621823112
:100BC200752A0030A200A3009D30A4009030A50039
:100BD20080312820823120002308E8002208E70023
:100BE200670868040319F62DF72D032E6808F7002D
:100BF2006708F6008031E720823177082000C100C3
:100C02007608C0000030A200A3009D30A4009030FE
:100C1200A50080312820823120002308E800220824
:100C2200E700670868040319172E182E242E680897
:100C3200F7006708F6008031E7208231770820004C
:100C4200C3007608C2004E30A0009030A10081316E
:100C520066218231752AD801D9015908803AB0003B
:100C620080303002031D372E06305802031C3A2E04
:100C72003B2E3C2EA12F00302000A200A3009D306D
:100C8200A4009030A5008031282082312000230862
:100C9200E8002208E7006808F1006708F000663003
:100CA200F2009030F3008E316E26823170087104AA
:100CB200031D5C2E5D2E8C2E2000DA01DB017D2EC1
:100CC20020005B08B1005A08B000B035B10D6C309D
:100CD200B2002030B3003008320786003108333DBD
:100CE20087000108220099003830890B762E0130E6
:100CF2002000DA070030DB3D5B08803AB00045088F
:100D0200803A3002031D872E44085A02031C8A2EA1
:100D12008B2E612E9B2F20006808F1006708F000DF
:100D22006E30F2009030F3008E316E268231700800
:100D32007104031D9D2E9E2EC22E2000DC01DD01BA
:100D4200B22E20005C35A03E8600870101082200F9
:100D520099003830890BAB2E01302000DC070030BF
:100D6200DD3D5D08803AB0004708803A3002031D3D
:100D7200BC2E46085C02031CBF2EC02EA22E9B2F47
:100D82009B2F20006808F1006708F0006A30F2002B
:100D92009030F3008E316E26823170087104031D8B
:100DA200D32ED42EFB2E20003608220099002000DC
:100DB200C801C901EA2E0B302000B0006230890B55
:100DC200E02EB00BE02E000001302000C8070030FA
:100DD200C93D4908803AB0003508803A3002031D07
:100DE200F42E34084802031CF72EF82EDC2E2200C3
:100DF20099019B2F20006808F1006708F00072300B
:100E0200F2009030F3008E316E2682317008710448
:100E1200031D0C2F0D2F322F20003A0822009900BB
:100E22002000CA01CB01232F0B302000B00062301A
:100E3200890B192FB00B192F000001302000CA07AF
:100E42000030CB3D4B08803AB0003908803A30027E
:100E5200031D2D2F38084A02031C302F312F152F66
:100E6200F82E20006808F1006708F0007A30F200DE
:100E72009030F3008E316E26823170087104031DAA
:100E8200432F442F692F20003E08220099002000A2
:100E9200CC01CD015A2F0B302000B0006230890BFB
:100EA200502FB00B502F000001302000CC07003033
:100EB200CD3D4D08803AB0003D08803A3002031D16
:100EC200642F3C084C02031C672F682F4C2FF82E0E
:100ED20020006808F1006708F0007E30F2009030D0
:100EE200F3008E316E26823170087104031D7A2F51
:100EF2007B2FC12E20004208220099002000CE0143
:100F0200CF018C2F3530890B842F00000130200057
:100F1200CE070030CF3D4F08803AB0004108803AFA
:100F22003002031D962F40084E02031C992F9A2F60
:100F3200832FF82E01302000D8070030D93D2E2E05
:100F420015302000A0009030A1008131662182314D
:100F5200752AC83022009900752A22009901752A43
:100F62000A30A0009030A100813166218231752AB9
:100F72006208003A0319F82B013A0319942C033A38
:100F82000319FC2C013A0319042D073A03194E2DBB
:100F9200013A0319982D033A0319E22D013A031974
:100FA2002C2E0F3A0319752A013A0319752A023AAF
:100FB2000319AA2F073A0319AE2F013A0319B12FC9
:100FC200752A803102286C308400203085008430FC
:100FD200FE000330FF008E31202687312000E90118
:100FE200EA01A0308400003085001430FE00003099
:0E0FF200FF008E312026873120008231532AE5
:101BF8002000911E002E012EFC2D2300190808003C
:101C08007B08F3007A08F200803182208E310800C8
:101C1800F0002000111E112E122E0D2E7008230028
:101C28009A0008008D31FC258E31F10071088E3143
:101C38000C268E31710808006400800101310130E2
:101C4800FE020030FF3B7F087E04031D212E003476
:101C580070302100990023008C018E010230210090
:101C68008C008E0120008C018E019030220098009B
:101C780099010800F100F0013A3071020318452E6D
:101C8800462E4E2E30307102031C4B2E4C2E4E2EFB
:101C9800F001F00A700C08007008840071088500D3
:101CA80000087206031D592E5A2E5B2E6D2E7108E0
:101CB800F5007008F400F00A0319F10A74088400AA
:101CC800750885001200031D6A2E6B2E502EF00138
:101CD800F1010800772E0130F0070030F13D0130A6
:101CE800F2070030F33D700886007108870072081B
:101CF80084007308850000080102F4007408031DBD
:101D0800862E872E902E700886007108870001089D
:101D1800031D8F2E902E6F2E7408F000F101F01B1A
:101D2800F10308007808790403199B2E9C2EC52E10
:101D3800FD01FD0AA82E0130F835F90D890BA02EFA
:101D48000130FC007C08FD07F91FAB2EAC2E9F2E3E
:101D580079087B02031DB22E78087A02031CB52E7F
:101D6800B62EBA2E7808FA027908FB3B0130F9360C
:101D7800F80C890BBB2E0130FD02031DC42EC52EA5
:101D8800AC2E7B08F9007A08F80008002000A001B2
:101D9800A101D72E0130F7070030F83D01302000AF
:101DA800A0070030A13D7708860078088700010861
:101DB8000319DF2EE02EF82E7A08F1007908F000DA
:101DC80077088600780887000108FB00FC017B087B
:101DD800F2007C08F3008E3150268E3170087104B1
:101DE8000319F72EF82ECE2E20002108F80020081F
:101DF800F70008002000A001A1010B2F0130F70710
:101E08000030F83D01302000A0070030A13D7708E0
:101E180086007808870001080319132F142F2C2F28
:101E28007A08F1007908F0007708860078088700BA
:101E38000108FB00FC017B08F2007C08F3008E31EE
:101E480050268E3170087104031D2B2F2C2F022F62
:101E580020002108F8002008F7000800243023009B
:101E68009E009F1590309D0020002308F300220853
:101E7800F2002108F1002008F0000130F700E830F6
:101E8800F6004830F5000030F4008F31A6278F3176
:101E980070082000A4007108A5007208A600730845
:101EA800A7000230A736A60CA50CA40C890B562F48
:101EB8002408FF3EA800FF30253DA900290823007B
:101EC8009C002000280823009B000800F501F6016B
:101ED800700871040319712F722FA12FF701F70AE7
:101EE8007E2F0130F035F10D890B762F0130F4008B
:101EF8007408F707F11F812F822F752F0130F535F0
:101F0800F60D890B832F71087302031D8D2F70083E
:101F18007202031C902F912F962F7008F2027108FD
:101F2800F33B75140130F136F00C890B972F013013
:101F3800F702031DA02FA12F822F7608F100750844
:101F4800F00008000030FC000030FB000030FA0010
:101F58000030F90073087204710470040319B52F76
:101F6800B62FF72FFD01FD0AC42F0130F035F10D12
:101F7800F20DF30D890BBA2F0130F8007808FD0730
:101F8800F31FC72FC82FB92F0130F935FA0DFB0DF4
:101F9800FC0D890BC92F73087702031DDD2F72080A
:101FA8007602031DDD2F71087502031DDD2F7008F1
:101FB8007402031CE02FE12FEA2F7008F402710865
:101FC800F53B7208F63B7308F73B79140130F3369A
:101FD800F20CF10CF00C890BEB2F0130FD02031D04
:101FE800F62FF72FC82F7C08F3007B08F2007A0839
:101FF800F1007908F0000800013400340A34003494
:1020080064340034E8340334103427345634453407
:102018005234533449344F344E342034313430340C
:1020280000345F345F345F3450345F344F344B34A2
:102038000A34003453344134313420344F344B346F
:102048000A34003453344634313420344F344B345A
:102058000A34003453344134323420344F344B344E
:102068000A34003453344634323420344F344B3439
:102078000A34003453344134333420344F344B342D
:102088000A34003453344634333420344F344B3418
:102098000A34003453344634343420344F344B3407
:1020A8000A34003428346E3475346C346C34293472
:1020B8000034253464340A340034253473340A3443
:1020C80000345334413431340034533446343134D9
:1020D80000345334413432340034533446343234C7
:1020E80000345334413433340034533446343334B5
:1020F800003453344634343400344C34503445348A
:1021080000344C344F34463400344C344F344E345D
:1021180000344C344534503400344C344434523454
:10212800003456344534523400344C344434533437
:0621380000342F340034D6
:020000040001F9
:08000000FF3FFF3FFF3FFF3F00
:04000E00840FFB1B45
:00000001FF
