:0400000080313128F2
:1000060008007E14803100308600003087000B1F08
:100016000D280E282F282100111E122813281F280C
:100026002000111E172818281F28210043088A00BF
:1000360042080A0080312F282100911E23282428F7
:100046002F282000911E282829282F282100410822
:100056008A0040080A0080317E100900803133286A
:10006600C4308400263085002C30FE000130FF00AD
:100076008A31F1228031FA01FB01623084000030BE
:1000860085000E30FE000030FF008A31F1228031FB
:10009600A0308400003085001C30FE000030FF00D8
:1000A6008A31F122803120308400013085003030E1
:1000B600FE000030FF008A31F12280317E102000E0
:1000C600803165288B31402380318C31DC248031AE
:1000D6008B319D2380318B170B178D31B1258031E4
:1000E60051302300C5005130C6005130C700C80149
:1000F600C4308600263087005130C03FC4308600A9
:1001060026308700413151308100C43086002630C8
:100116008700423151308100C43086002630870086
:1001260043318101C4302000A0002630A1002C30CC
:10013600A2000130A3008E3195268031C430F20032
:100146002630F3008B318423803100307302033074
:10015600031972020318B028B128B2287328C430D4
:10016600860026308700413101082300C500C430CF
:1001760086002630870042310108C600C43086005A
:100186002630870043310108C700C801C530F20098
:10019600A430F3009130F4008C31AD248031720824
:1001A6007304031DD728D828DB282300C401982907
:1001B600C530F200A830F3009130F4008C31AD2444
:1001C600803172087304031DE928EA28EE280130FD
:1001D6002300C4009829C530F200AC30F3009130FA
:1001E600F4008C31AD24803172087304031DFC28A1
:1001F600FD28012902302300C4009829C530F200E9
:10020600B030F3009130F4008C31AD2480317208A7
:100216007304031D0F291029142903302300C40079
:100226009829C530F200B430F3009130F4008C31D7
:10023600AD24803172087304031D2229232927293E
:1002460004302300C4009829C530F200B830F3000A
:100256009130F4008C31AD24803172087304031D93
:10026600352936293A2905302300C4009829C53096
:10027600F200C430F3009130F4008C31AD248031AB
:1002860072087304031D482949294D2906302300A5
:10029600C4009829C530F200C030F3009130F40054
:1002A6008C31AD24803172087304031D5B295C29EF
:1002B600602907302300C4009829C530F200BC30FD
:1002C600F3009130F4008C31AD2480317208730450
:1002D600031D6E296F29732908302300C40098294D
:1002E600C530F200CC30F3009130F4008C31AD24EF
:1002F600803172087304031D8129822986290930F9
:100306002300C4009829C530F200C830F3009130AC
:10031600F4008C31AD24803172087304031D9429D6
:10032600952998290A302300C400C4302000A8006B
:100336002630A900D030AA009130AB008E31EF26CE
:100346008031742D00302000A800A900D030AA000A
:100356009130AB008E31EF26803120002908230032
:10036600CA00200028082300C90049084A040319C6
:10037600BD29BE29CA294A08F9004908F80086316C
:10038600DE26803179082300AD007808AC00003005
:100396002000A800A900D030AA009130AB008E3111
:1003A600EF268031200029082300CA0020002808F3
:1003B6002300C90049084A040319E229E329EF2961
:1003C6004A08F9004908F8008631DE2680317908A6
:1003D6002300AF007808AE005C302000D7009130D3
:1003E600D8008B310C238031732800302000A80000
:1003F600A900D030AA009130AB008E31EF268031B3
:10040600200029082300CA00200028082300C9006C
:1004160049084A040319102A112A1D2A4A08F90014
:100426004908F8008631DE26803179082300B100BC
:100436007808B00000302000A800A900D030AA003B
:100446009130AB008E31EF26803120002908230041
:10045600CA00200028082300C90049084A040319D5
:10046600352A362A422A4A08F9004908F800863110
:10047600DE26803179082300B3007808B2006430A4
:100486002000D7009130D8008B310C23803173289F
:1004960000302000A800A900D030AA009130AB009F
:1004A6008E31EF268031200029082300CA00200063
:1004B60028082300C90049084A040319632A642A44
:1004C600702A4A08F9004908F8008631DE2680318C
:1004D60079082300B5007808B40000302000A80091
:1004E600A900D030AA009130AB008E31EF268031C2
:1004F600200029082300CA00200028082300C9007C
:1005060049084A040319882A892A952A4A08F900BB
:100516004908F8008631DE26803179082300B700C5
:100526007808B6006C302000D7009130D8008B31A7
:100536000C238031732800302000A800A900D03099
:10054600AA009130AB008E31EF26803120002908B9
:100556002300CA00200028082300C90049084A04CD
:100566000319B62AB72AC32A4A08F9004908F80027
:100576008631DE26803179082300B9007808B80074
:1005860000302000A800A900D030AA009130AB00AE
:100596008E31EF268031200029082300CA00200072
:1005A60028082300C90049084A040319DB2ADC2A63
:1005B600E82A4A08F9004908F8008631DE26803123
:1005C60079082300BB007808BA0074302000D700F1
:1005D6009130D8008B310C238031732800302000F5
:1005E600A800A900D030AA009130AB008E31EF26CA
:1005F6008031200029082300CA0020002808230093
:10060600C90049084A040319092B0A2B162B4A0864
:10061600F9004908F8008631DE2680317908230082
:10062600BD007808BC0000302000A800A900D0302A
:10063600AA009130AB008E31EF26803120002908C8
:100646002300CA00200028082300C90049084A04DC
:1006560003192E2B2F2B3B2B4A08F9004908F800CB
:100666008631DE26803179082300BF007808BE0077
:100676007C302000D7009130D8008B310C2380319C
:10068600732800302000A800A900D030AA009130BD
:10069600AB008E31EF268031200029082300CA00E6
:1006A600200028082300C90049084A0403195C2BC6
:1006B6005D2B692B4A08F9004908F8008631DE26C9
:1006C600803179082300C1007808C000003020007E
:1006D600A800A900D030AA009130AB008E31EF26D9
:1006E6008031200029082300CA00200028082300A2
:1006F600C90049084A040319812B822B8E2B4A080C
:10070600F9004908F8008631DE2680317908230091
:10071600C3007808C20084302000D7009130D8008A
:100726008B310C23803173288A31A1228031013A22
:10073600031D9E2B9F2B9E2C23002E0822008C002F
:100746000E153530890BA52B000022000E11230053
:10075600A001A101B62B1430890BAF2B0130230069
:10076600A0070030A13D2108803A2100C4002300E3
:100776002D08803A21004402031DC42B23002C08B7
:100786002002031CC72BC82BAE2B230032082200E5
:100796008C000E153530890BCE2B000022000E1171
:1007A6002300A201A301DF2B1430890BD82B0130C3
:1007B6002300A2070030A33D2308803A2100C4008D
:1007C60023003108803A21004402031DED2B23004B
:1007D60030082202031CF02BF12BD72B23003608FE
:1007E60022008C000E153530890BF72B00002200F5
:1007F6000E112300A401A501082C1430890B012C2D
:1008060001302300A4070030A53D2508803A2100C9
:10081600C40023003508803A21004402031D162C2B
:10082600230034082402031C192C1A2C002C230044
:100836003A0822008C000E153530890B202C00005A
:1008460022000E112300A601A701312C1430890BBA
:100856002A2C01302300A6070030A73D2708803A3E
:100866002100C40023003908803A21004402031DF8
:100876003F2C230038082602031C422C432C292C2B
:1008860023003E0822008C000E153530890B492CBA
:10089600000022000E112300A801A9015A2C1430D1
:1008A600890B532C01302300A8070030A93D2908E5
:1008B600803A2100C40023003D08803A210044020A
:1008C600031D682C23003C082802031C6B2C6C2C8F
:1008D600522C2300420822008C000E153530890B5D
:1008E600722C000022000E112300AA01AB01832CFA
:1008F6001430890B7C2C01302300AA070030AB3D55
:100906002B08803A2100C40023004108803A2100C8
:100916004402031D912C230040082A02031C942C38
:10092600952C7B2C9C302000D7009130D8008B3141
:100936000C23803173288A31A1228031003A031DAD
:10094600A52CA62C73285E302000D7009030D80046
:100956008B310C23803173288B31532380319430B3
:100966002000D7009130D8008B310C2380317328BA
:100976008B316B2380318C302000D7009130D8002A
:100986008B310C238031732881302000D7009030C2
:10099600D80023002D082000DA0023002C082000B0
:1009A600D90023002F082000DC0023002E08200099
:1009B600DB008B310C238031A0302000D700903033
:1009C600D800230031082000DA0023003008200078
:1009D600D900230033082000DC0023003208200061
:1009E600DB008B310C238031BF302000D7009030E4
:1009F600D800230035082000DA0023003408200040
:100A0600D900230037082000DC0023003608200028
:100A1600DB008B310C238031DE302000D700903094
:100A2600D800230039082000DA0023003808200007
:100A3600D90023003B082000DC0023003A082000F0
:100A4600DB008B310C238031FD302000D700903045
:100A5600D80023003D082000DA0023003C082000CF
:100A6600D90023003F082000DC0023003E082000B8
:100A7600DB008B310C2380311C302000D7009130F5
:100A8600D800230041082000DA0023004008200097
:100A9600D900230043082000DC0023004208200080
:100AA600DB008B310C2380313B302000D7009130A6
:100AB600D8006B082100C400C50144082000D900F5
:100AC600210045082000DA008B310C238031732881
:100AD6004C302000D7009130D8008B310C23803168
:100AE6007328230044082100C400C5014508003AC4
:100AF60003197E2D73284408003A0319A529013AE3
:100B06000319F829033A03194B2A013A03199E2AB5
:100B1600073A0319F12A013A0319442B033A031938
:100B2600972B013A0319AF2C0F3A0319BB2C013A44
:100B36000319C72C033A03196B2D7328803131280A
:100B46002000430886008701403FC500413FC6009C
:100B560045088400460885001200253A031DB42D79
:100B6600B52D272E430886008701013081074131C4
:100B76000318810AE401E5010030EA00FF30210094
:100B8600B000FF30B10020004308F8004408F90027
:100B96008F31A427853179082000E5007808E40024
:100BA600E51FD62DD72DDD2D6A14E409E509E40AE3
:100BB6000319E50A430886008701403FCD00413FFF
:100BC600CE004D0884004E0885001200643A0319D1
:100BD600ED2DEE2DF82D4D0884004E0885001200EF
:100BE600693A031DF72DF82D1D2E4408860087014E
:100BF60001088400850102308107003FC900013FDA
:100C0600CA004D08013EC50000304E3DC6004308EF
:100C1600860087014508C03F4608C13F4208B50027
:100C26004108B4004A08B7004908B6008631422692
:100C36008531412E20004308860087010130810757
:100C460041310318810A412E430886008701403F3F
:100C5600C500413FC60045088400460885000008D7
:100C6600C700C8014708F5004808F6004208F80022
:100C76004108F70087315C2785311D2E08000130B9
:100C86002000BB00B71B482E4A2E01304B2E0030E9
:100C9600BE006508BD006408BC003E080319542E5A
:100CA600552E692EFF30BC07FF30BD3D3E08031DA3
:100CB6005D2E5E2E632E2B30B9000030BA00672EF3
:100CC6002D30B9000030BA003908BE001F30BF0011
:100CD6000030C0002200CF01A42EFF30BF07FF3036
:100CE600C03D3F08303E8600013087000A30F200E2
:100CF6000030F3003708F5003608F4008E3144263C
:100D060086317308F9007208F8008B311C2386318E
:100D16007808303E81002000BB01FF30BC07FF3061
:100D2600BD3D0A30F2000030F3003708F500360802
:100D3600F4008F314927863173082000B700720806
:100D4600B60020004008803AB80080303802031D03
:100D5600AE2E01303F02031CB12EB22EBE2E200055
:100D660036083704031DB82EB92E702E3B08031D16
:100D7600BD2EBE2E702E20003E080319C32EC42E93
:100D8600CF2EFF30BF07FF30C03D3F08303E860004
:100D9600013087003E0881003508AE003408AD00FA
:100DA6003F08303EAF003D08B1003C08B000873137
:100DB600BA27863108002000A301A401A201E72E6C
:100DC6000130F8070030F93D780886007908870079
:100DD600203001060319F02EF12EE32E7808860046
:100DE60079088700F73001072000A00005302002AF
:100DF600031CFE2EFF2EE32E780886007908870056
:100E06002D300106031D082F092F102F0130A200D7
:100E16000130F8070030F93D392F78088600790847
:100E260087002B300106031D192F1A2F392F0B2F80
:100E360078088600790887002408F3002308F20062
:100E46000A30F4000030F5008C31462486317308F0
:100E56002000A10001087202A000031CA1032008C3
:100E6600303EA3000030213DA4000B2F78088600F9
:100E760079088700D0300107A0000A302002031C41
:100E8600452F462F1B2F2208031D4A2F4B2F572F66
:100E96002309A0002409A100A00A0319A10A200819
:100EA600F8002108F9005B2F2408F9002308F80050
:100EB6000800770878040319612F622F682F7708D6
:100EC6007804031D672F682F6D2F75088A31FD2260
:100ED6008731B92F770886007808870049311600D0
:100EE60001040319772F782F992F77088600780841
:100EF60087004931403F2000A000413FA10077080C
:100F06008600780887004231403FA200413FA30097
:100F16002308803AA4002108803A2402031D952F55
:100F2600200822020318982F992FB92F77088600D8
:100F36007808870042317708840078088500003FEA
:100F46002000A000013FA100403F20078400413F50
:100F5600213D85007508800077088600780887009F
:100F660042310130810741310318810A080020000F
:100F76006A1CBE2FBF2FC82F2F08A5002E08A7005A
:100F86002D08A6008C31892487312000B11FCC2F73
:100F9600CD2FCF2FB001B101B201B301E32F203025
:100FA600F5000030F60020002E08F8002D08F700A6
:100FB60087315C27873101302000B2070030B33D0E
:100FC6003308803AF9003108803A7902031DED2F83
:100FD60030083202031CF02FF12FD22F20006A189E
:100FE600F52FF62FFF2F2F08A5002E08A7002D0896
:0A0FF600A6008C3189248731080021
:1015420020006B08080023001D121D160800093038
:101552002500930092019101080073082000E90020
:101562007208E800080078302100990022009601F4
:1015720021009801080020006D08031DC12AC32A1A
:101582000130C42A0030080020006C08031DCA2A5A
:10159200CC2A0130CD2A003008008B10210015170B
:1015A2000030F2000030F3008A31AE228A310800A6
:1015B200720873040319DE2ADF2AE42A7308210061
:1015C200B5007208B4000800720873040319EA2A0D
:1015D200EB2AF02A73082100B3007208B200080057
:1015E2006400800101310130FE020030FF3B7F08C0
:1015F2007E04031DF22A0034F4008A31BC228A31AF
:10160200003A0319052B062BFE2A7408F2008C31CE
:1016120065248A31080059302000DD000030CF00F7
:10162200D0005808D2005708D1005D30D3008C3169
:101632000A248B310800F91B1F2B202B212B2D2B69
:1016420078092000A0007909A100A00A0319A10AC3
:101652002008F8002108F90008008A31C5228B31E0
:10166200003A0319352B362B2E2B8B31B7238B31B6
:10167200F600F7017608F4007708F50008008A31D1
:10168200B4228B318D3176258B318A31A8228B3170
:101692008B319D238B318C31DC248B318A31CE22EC
:1016A2008B31080022008E140630F2003030890B94
:1016B200582BF20B582B003222000E141530F20078
:1016C200C630890B622BF20B622B003201302000F4
:1016D200EB00080022000E100630F2003030890BB9
:1016E200702BF20B702B003222008E100630F200AB
:1016F2003030890B7A2BF20B7A2B003222008C01CC
:101702002000EB0108007308F5007208F4008D2B2D
:101712000130F2070030F33D72088600730887003B
:101722000108031D952B962B892B74087202F20077
:101732007508733BF300080020001810FF30970073
:10174200603096001708E7001608E600990100309D
:101752002100BE000030BF000030BC000030BD00E0
:101762002000111091130530980008007A08203EDD
:101772008600013087000108F3007A08013E07392C
:10178200F2007208FA002100911220006C0803197D
:10179200CB2BCC2BCE2B0130EC02210091167308FF
:1017A2000800083020006D020318D82BD92BEB2B30
:1017B2006E08283E860001308700010823009A0047
:1017C20020006E08013E0739F0007008EE0001307B
:1017D200ED07ED2B2100111208007308F9007208C1
:1017E200F800FD2B780886007908870074088100CC
:1017F2000130F8070030F93D0130F6020030F73BC6
:10180200760A031D082C770A031D082C092CF32BDA
:10181200080020005208D6005108D5001B2C5008A1
:10182200C2004F08C1005530C3005308C4008531BF
:10183200A3258C312000550884005608850012002B
:10184200031D242C252C102CCF01D0010800720876
:1018520084007308850000087406031D312C322CA5
:10186200332C452C7308F7007208F600F20A0319AC
:10187200F30A76088400770885001200031D422CC3
:10188200432C282CF201F3010800F601F701721C27
:101892004B2C4C2C502C7408F6077508F73D013080
:1018A200F435F50D890B512C0130F336F20C890B0E
:1018B200562C72087304031D5F2C602C482C770889
:1018C200F3007608F20008002100111A692C6A2C34
:1018D2006E2C720823009A00862C20006D080319D2
:1018E200732C742C862C6F08283E860001308700EA
:1018F200720881006F08013E0739F3007308EF0098
:101902002100111201302000ED0221001116080001
:101912002000AB01AC01A02C2A08A800A9012808CC
:10192200F5002908F6002708F8002608F700873195
:101932005C278C3101302000AB070030AC3D25081C
:101942002B078600013087000108AA002A08031D20
:10195200AB2CAC2C8D2C0800B42C0130F2070130DA
:10196200F3070030F43D7308840074088500000812
:10197200F500720886000130870001087506031D14
:10198200C32CC42CCD2C72088600013087000108BC
:10199200031DCC2CCD2CAE2C7208860001308700A2
:1019A200730884007408850000080102F200F30144
:1019B200031CF303080021009112F630C0000D3021
:1019C200C1001112D230C2000B30C30048302300D4
:1019D2009F0090309D0026309E00A0309B00013079
:1019E2009C000330F2000030F3008A31D9228C319E
:1019F200A430F2000A30F3008A31E5228C31210052
:101A0200BA01BB012000EF01EE010830ED00FB013D
:101A1200FA01EC012100911608002000A601A7019D
:101A22001B2D01302000A0070030A13D0130A60788
:101A32000030A73D2008860021088700010803190D
:101A4200232D242D3C2D2308F3002208F200200828
:101A52008600210887000108A400A5012408F400DB
:101A62002508F5008C3128248D317208730403197E
:101A72003B2D3C2D122D20002708A1002608A00096
:101A820008002000A601A7014F2D01302000A00769
:101A92000030A13D0130A6070030A73D2008860096
:101AA2002108870001080319572D582D702D23088E
:101AB200F3002208F20020088600210887000108AE
:101AC200A400A5012408F4002508F5008C3128247F
:101AD2008D3172087304031D6F2D702D462D200069
:101AE2002708A1002608A000080022008C018D0111
:101AF2008E0121008C01DF308D00B8308E0008305D
:101B0200900023008C015F308D0038308E0024005D
:101B12008C01DF308D0038308E00083090002100BB
:101B2200951325008C018D018E0126008C018D01FB
:101B32008E0127008C018D0138308E000830900014
:101B420022009D01270091019201930194019501C8
:101B520096019701980199019D019E019F0108003C
:101B620022000E108E108C018D122000E001E10186
:101B720002302000DF000430DE00BA30890BBF2DB6
:101B8200DE0BBF2DDF0BBF2D000022000D0E20004B
:101B9200DE005E0C0139DE000130DE06DE0EDE0DF7
:101BA20022000D0820005E06DF395E0622008D004D
:101BB20001302000E0070030E13D6108803ADE009C
:101BC20080305E02031DE72D14306002031CEA2DF3
:101BD200EB2DB92D22008D1630302000D700903029
:101BE200D8008B310C238D3108007B35A03E860056
:101BF20087010030C03FC13F23009D1C012E022EF1
:101C0200132E7B35A03E8600870101152100320884
:101C1200330403190D2E0E2E132E33088A003208B8
:101C22000A008E3123001D1D172E182E292E7B35FA
:101C3200A03E86008701811421003408350403196F
:101C4200232E242E292E35088A0034080A008E31CC
:101C520023001908F0007B08013E0739F1007108E2
:101C62007A06031D352E362E372E432E7B08203E54
:101C7200860001308700700881007108FB00013086
:101C82002000EC070800F701F51F482E492E502EC0
:101C9200F409F509F40A0319F50A0130F700F31FF4
:101CA200532E542E592EF209F309F20A0319F30A9C
:101CB2007208730403195E2E5F2E862E0130F60021
:101CC200692E0130F235F30D890B632E0130F607D0
:101CD200F31F6C2E6D2E622E73087502031D732E78
:101CE20072087402031C762E772E7B2E7208F40281
:101CF2007308F53B0130F336F20C890B7C2E013070
:101D0200F602031D852E862E6D2E770803198A2E64
:101D12008B2E902EF409F509F40A0319F50A7508B9
:101D2200F3007408F20008002000A701A8012108AE
:101D3200F3002008F2000030F400F5002308F70059
:101D42002208F6008B31EE238E31D62E8B312E23D4
:101D52008E3174082000A60026088A31FD228E31B9
:101D62000D30200026060319B72EB82EBE2E0A30DB
:101D72002606031DBD2EBE2ECA2E2708200786006A
:101D82002808213D870081010A308A31FD228E31E7
:101D9200EE2E2708200786002808213D8700260806
:101DA20081000130A7070030A83D20002208FF3E35
:101DB200A400FF30233DA50025082802031DE32EC1
:101DC20024082702031CE62EE72EA72E2708200749
:101DD20086002808213D870081010800200028088C
:101DE2002904031DF52EF62E032F6308A9006208AD
:101DF200A80028082904031DFF2E002F032FA80185
:101E0200A901482F2908A1002808A0002B08A30037
:101E12002A08A2008D3142258E3120002008A80711
:101E22002108A93D28088600290887000108031D0A
:101E32001B2F1C2F212FE201E301A801A901482F2A
:101E42002908A1002808A0002B08A3002A08A20044
:101E52008D310E258E31200020082807E20021084E
:101E6200293DE30062088600630887000108031920
:101E72003B2F3C2F462F62088600630887008101B2
:101E82000130E2070030E33D482FE201E3010800A0
:101E9200F701F31F4D2F4E2F552FF209F309F20AC6
:101EA2000319F30A0130F700F51F582F592F602F3D
:101EB200F409F509F40A0319F50A0130F706F801E5
:101EC200F901720873040319672F682F952F0130E7
:101ED200F600722F0130F235F30D890B6C2F0130B1
:101EE200F607F31F752F762F6B2F0130F835F90D9A
:101EF200890B772F73087502031D812F72087402F4
:101F0200031C842F852F8A2F7208F4027308F53B75
:101F120078140130F336F20C890B8B2F0130F60264
:101F2200031D942F952F762F77080319992F9A2F37
:101F32009F2FF809F909F80A0319F90A7908F30039
:101F42007808F20008002000A401A50178088600A4
:101F52008701403FA000413FA100200884002108E2
:101F6200850012002A3A031DB72FB82FE72F7808F1
:101F7200860087010130810741310318810A7908FF
:101F82008600870101088400850102308107003F35
:101F9200A400013FA500FB2F2508F3002408F2004E
:101FA2000A30F4000030F5008C3146248F312000D5
:101FB20023087207A4000030733DA500780886004C
:101FC20087010130810741310318810A78088600B0
:101FD2008701403FA000413FA10020088400210862
:101FE20085000008D03EA3000A302302031CFA2F0A
:101FF200FB2FCD2F2508F9002408F8000800DC3457
:102002000C3400340034B7340B3465340C34C5342A
:102012000A34BC340A34003400340034003400344E
:10202200003400340034003400340034003400340E
:1020320000340034003400340034003400340034FE
:102042000034003400340034003400340034D93415
:102052000A34E5340A340034003400340034533492
:1020620079347334743465346D34203469346E34A5
:1020720069347434693461346C3469347A34613467
:10208200743469346F346E34203468346134733498
:1020920020346234653465346E34203463346F34F2
:1020A2006D3470346C3465347434653464342E3475
:1020B200213421340D340A34003443340934453494
:1020C2006D3469347334733469346F346E3420344C
:1020D20069347334203461346C347234653461345D
:1020E200643479342034643469347334613462344E
:1020F2006C34653464342E34213421340A3400348F
:10210200433409344634503431345F34543449341E
:102112004D34453409342534363464342034203483
:1021220020344634503431345F3441344D345034E9
:1021320009342534363464340D340A3400344334DB
:1021420009344634503432345F34543449344D34D3
:102152004534093425343634643420342034203470
:102162004634503432345F3441344D3450340934BF
:102172002534363464340D340A340034433409349B
:102182004634503433345F34543449344D34453456
:10219200093425343634643420342034203446342F
:1021A200503433345F3441344D345034093425349F
:1021B200363464340D340A3400344334093446343A
:1021C200503434345F34543449344D344534093452
:1021D20025343634643420342034203446345034A8
:1021E20034345F3441344D34503409342534363478
:1021F20064340D340A3400344334093446345034E0
:1022020035345F34543449344D344534093425343B
:102212003634643420342034203446345034353457
:102222005F3441344D345034093425343634643407
:102232000D340A34003443340934463450343634CD
:102242005F34543449344D344534093425343634FA
:1022520064342034203420344634503436345F34ED
:1022620041344D34503409342534363464340D3419
:102272000A3400344334093445344D344934533438
:10228200533449344F344E340934253436346434AB
:102292000D340A340034433409345634453452344C
:1022A200533449344F344E34203431342E343034A4
:1022B2000D340A340034433409345334463431344F
:1022C2000D340A340034433409345334463432343E
:1022D2000D340A340034433409345334463433342D
:1022E2000D340A340034433409345334463434341C
:1022F2000D340A340034433409345334463435340B
:102302000D340A34003443340934533446343634F9
:102312000D340A3400344334093454344F344634CF
:102322000D340A3400344334093454344F344E34B7
:102332000D340A34003443340934533450344F34A6
:102342000D340A34003453344634313400345334B7
:102352004634323400345334463433340034533444
:102362004634343400345334463435340034533430
:1023720046343634003454344F3446340034543402
:102382004F344E340034533450344F3400345634C6
:1023920045345234003456344534573400342F34E3
:0223A200003405
:020000040001F9
:04000E00E43FFF3E8E
:00000001FF
