:0400000080313F28E4
:100008007E14803100308600003087000B1F0D28D9
:100018000E283D282100111E122813281F28200011
:10002800111E172818281F2821006C088A006B0841
:100038000A0080313D282100911E232824283028D9
:100048002000911E28282928302821006A088A00C3
:1000580069080A0080313D282100911C3428352880
:100068003D282000911C39283A283D288B317D23D2
:1000780080317E10090080314128C4308400263048
:1000880085002C30FE000130FF008B317123803158
:10009800FA01FB0162308400003085000D30FE005B
:1000A8000030FF008B3171238031A0308400003094
:1000B80085002C30FE000030FF008B317123803129
:1000C80020308400013085002030FE000030FF0021
:1000D8008B31712380317E102000803173288B3161
:1000E800AB2380318D31892580318B170B178E31E9
:1000F8002326803151302100E1005130E200513097
:10010800E300E401C4308600263087005130C03F48
:10011800C430860026308700413151308100C43018
:10012800860026308700423151308100C430860075
:100138002630870043318101C4302000A0002630DA
:10014800A1002C30A2000130A3008F314C27803150
:10015800C430F2002630F3008C3120248031003086
:1001680073020330031972020318BB28BC28BD2888
:100178007E28C430860026308700413101082100DE
:10018800E100C43086002630870042310108E200D1
:10019800C43086002630870043310108E300E401BB
:1001A800E130F200A430F3009130F4008D312C25B9
:1001B800803172087304031DE228E328E628210031
:1001C800E001A329E130F200A830F3009130F400F7
:1001D8008D312C25803172087304031DF428F5280D
:1001E800F92801302100E000A329E130F200AC3009
:1001F800F3009130F4008D312C258031720873049E
:10020800031D072908290C2902302100E000A32931
:10021800E130F200B030F3009130F4008D312C253C
:10022800803172087304031D1A291B291F29033002
:100238002100E000A329E130F200B430F30091304E
:10024800F4008D312C25803172087304031D2D298B
:100258002E29322904302100E000A329E130F200E0
:10026800B830F3009130F4008D312C2580317208BC
:100278007304031D40294129452905302100E00068
:10028800A329E130F200C430F3009130F4008D313D
:100298002C25803172087304031D532954295829C9
:1002A80006302100E000A329E130F200C030F3005D
:1002B8009130F4008D312C25803172087304031DB0
:1002C800662967296B2907302100E000A329E1305E
:1002D800F200BC30F3009130F4008D312C258031D0
:1002E80072087304031D79297A297E2908302100B0
:1002F800E000A329E130F200CC30F3009130F400A3
:100308008D312C25803172087304031D8C298D29A9
:10031800912909302100E000A329E130F200C8301A
:10032800F3009130F4008D312C258031720873046C
:10033800031D9F29A029A3290A302100E000C43009
:100348002000A8002630A900D030AA009130AB00C8
:100358008F31A6278031C72C00302000A800A900C3
:10036800D030AA009130AB008F31A6278031200011
:1003780029082100E600200028082100E50065087A
:1003880066040319C829C929D5296608F90065082A
:10039800F80086313026803179082100CF007808AE
:1003A800CE0000302000A800A900D030AA0091306B
:1003B800AB008F31A6278031200029082100E600F4
:1003C800200028082100E500650866040319ED29C6
:1003D800EE29F8296608F9006508F8008631302604
:1003E800803178082100DA005C302000D700913095
:1003F800D8008B31BB2380317E2800302000A80034
:10040800A900D030AA009130AB008F31A6278031E7
:10041800200029082100E600200028082100E50026
:10042800650866040319192A1A2A262A6608F90093
:100438006508F80086313026803179082100D1001E
:100448007808D00000302000A800A900D030AA0009
:100458009130AB008F31A627803120002908210078
:10046800E600200028082100E50065086604031955
:100478003E2A3F2A492A6608F9006508F8008631AD
:100488003026803178082100DB0064302000D70056
:100498009130D8008B31BB2380317E28003020007A
:1004A800A800A900D030AA009130AB008F31A62750
:1004B8008031200029082100E600200028082100BA
:1004C800E5006508660403196A2A6B2A772A660814
:1004D800F9006508F8008631302680317908210056
:1004E800D3007808D20000302000A800A900D0303E
:1004F800AA009130AB008F31A6278031200029084F
:100508002100E600200028082100E50065086604AF
:1005180003198F2A902A9A2A6608F9006508F800B4
:1005280086313026803178082100DC006C302000CC
:10053800D7009130D8008B31BB2380317E28003022
:100548002000A800A900D030AA009130AB008F315C
:10055800A6278031200029082100E600200028086D
:100568002100E500650866040319BB2ABC2AC82ACD
:100578006608F9006508F800863130268031790868
:100588002100D5007808D40000302000A800A90078
:10059800D030AA009130AB008F31A62780312000DF
:1005A80029082100E600200028082100E500650848
:1005B80066040319E02AE12AEB2A6608F9006508AF
:1005C800F80086313026803178082100DD0074304B
:1005D8002000D7009130D8008B31BB2380317E2892
:1005E80000302000A800A900D030AA009130AB004C
:1005F8008F31A6278031200029082100E60020003D
:1006080028082100E5006508660403190C2B0D2B4A
:10061800192B6608F9006508F80086313026803104
:1006280079082100D7007808D60000302000A800FB
:10063800A900D030AA009130AB008F31A6278031B5
:10064800200029082100E600200028082100E500F4
:10065800650866040319312B322B3C2B6608F90018
:100668006508F80086313026803178082100DE00E0
:100678007C302000D7009130D8008B31BB238031EB
:100688007E2800302000A800A900D030AA009130B0
:10069800AB008F31A6278031200029082100E60011
:1006A800200028082100E5006508660403195D2B71
:1006B8005E2B6A2B6608F9006508F800863130263B
:1006C800803179082100D9007808D800003020004E
:1006D800A800A900D030AA009130AB008F31A6271E
:1006E8008031200029082100E60020002808210088
:1006F800E500650866040319822B832B8D2B660899
:10070800F9006508F8008631302680317808210024
:10071800DF0084302000D7009130D8008B31BB2314
:1007280080317E288B3127238031013A031D9D2B90
:100738009E2BDF2B21004F08F3004E08F2005A08C9
:100748008D315825803121005108F3005008F200FE
:100758005B088D315825803121005308F300520879
:10076800F2005C088D315825803121005508F300CE
:100778005408F2005D088D31582580312100570852
:10078800F3005608F2005E088D31582580312100AB
:100798005908F3005808F2005F088D315825803158
:1007A80022008C019C302000D7009130D8008B317A
:1007B800BB2380317E288B3127238031003A031DEB
:1007C800E62BE72B7E285E302000D7009030D8003B
:1007D8008B31BB2380317E288B31EF2380319430DD
:1007E8002000D7009130D8008B31BB2380317E2880
:1007F8008C31072480318C302000D7009130D8000C
:100808008B31BB2380317E2881302000D700903087
:10081800D80021004F082000DA0021004E082000EF
:10082800D90021005A08CC00CD014C082000DB007B
:1008380021004D082000DC008B31BB238031A03023
:100848002000D7009030D800210051082000DA009D
:10085800210050082000D90021005B08CC00CD0100
:100868004C082000DB0021004D082000DC008B3103
:10087800BB238031BF302000D7009030D800210042
:1008880053082000DA00210052082000D900210076
:100898005C08CC00CD014C082000DB0021004D088D
:1008A8002000DC008B31BB238031DE302000D700F4
:1008B8009030D800210055082000DA0021005408A3
:1008C8002000D90021005D08CC00CD014C08200093
:1008D800DB0021004D082000DC008B31BB23803178
:1008E800FD302000D7009030D800210057082000A4
:1008F800DA00210056082000D90021005E08CC004B
:10090800CD014C082000DB0021004D082000DC0050
:100918008B31BB2380311C302000D7009130D800A8
:10092800210059082000DA00210058082000D900C9
:1009380021005F08CC00CD014C082000DB0021001D
:100948004D082000DC008B31BB2380313B30200078
:10095800D7009130D8006A082100CC00CD014C089E
:100968002000D90021004D082000DA008B31BB237C
:1009780080317E284C302000D7009130D8008B3150
:10098800BB2380317E2821006008CC00CD014D08B2
:10099800003A0319D02C7E284C08003A0319B029D4
:1009A800013A0319012A033A0319522A013A031991
:1009B800A32A073A0319F42A013A0319452B033AE3
:1009C8000319962B013A0319F02B0F3A0319FC2B44
:1009D800013A0319082C033A0319BE2C7E288031EA
:1009E8003F282000430886008701403FC500413F5B
:1009F800C60045088400460885001200253A031DF4
:100A0800062D072D792D43088600870101308107BF
:100A180041310318810AE401E5010030E800FF30A4
:100A28002100C000FF30C10020004308F80044083E
:100A3800F90087310C27843179082000E50078080F
:100A4800E400E51F282D292D2F2D6814E409E50958
:100A5800E40A0319E50A430886008701403FCD00F0
:100A6800413FCE004D0884004E0885001200643ACC
:100A780003193F2D402D4A2D4D0884004E0885004E
:100A88001200693A031D492D4A2D6F2D440886002E
:100A9800870101088400850102308107003FC900F1
:100AA800013FCA004D08013EC50000304E3DC6005A
:100AB8004308860087014508C03F4608C13F4208F1
:100AC800B5004108B4004A08B7004908B6008531A6
:100AD80094258431932D2000430886008701013036
:100AE800810741310318810A932D43088600870145
:100AF800403FC500413FC6004508840046088500C0
:100B08000008C700C8014708F5004808F600420871
:100B1800F8004108F7008631AE2684316F2D0800B1
:100B280001302000BB00B71B9A2D9C2D01309D2D54
:100B38000030BE006508BD006408BC003E0803190B
:100B4800A62DA72DBB2DFF30BC07FF30BD3D3E08AD
:100B5800031DAF2DB02DB52D2B30B9000030BA00D4
:100B6800B92D2D30B9000030BA003908BE001F3049
:100B7800BF000030C0002200BF01F62DFF30BF07C4
:100B8800FF30C03D3F08203E8600013087000A3014
:100B9800F2000030F3003708F5003608F4008E3113
:100BA800FB2685317308F9007208F8008B31CB23D6
:100BB80085317808303E81002000BB01FF30BC073A
:100BC800FF30BD3D0A30F2000030F3003708F50071
:100BD8003608F40087316827853173082000B7008C
:100BE8007208B60020004008803AB8008030380209
:100BF800031D002E01303F02031C032E042E102E6D
:100C0800200036083704031D0A2E0B2EC22D3B0880
:100C1800031D0F2E102EC22D20003E080319152E7D
:100C2800162E212EFF30BF07FF30C03D3F08203E63
:100C38008600013087003E0881003508AE00340880
:100C4800AD003F08203EAF003D08B1003C08B000B1
:100C58008E316826853108002000A301A401A20175
:100C6800392E0130F8070030F93D780886007908F8
:100C78008700203001060319422E432E352E7808AE
:100C8800860079088700F73001072000A0000530AA
:100C98002002031C502E512E352E78088600790824
:100CA80087002D300106031D5A2E5B2E622E01305F
:100CB800A2000130F8070030F93D8B2E7808860035
:100CC800790887002B300106031D6B2E6C2E8B2EA6
:100CD8005D2E78088600790887002408F300230829
:100CE800F2000A30F4000030F5008C31C624863159
:100CF80073082000A10001087202A000031CA103D0
:100D08002008303EA3000030213DA4005D2E780865
:100D1800860079088700D0300107A0000A30200239
:100D2800031C972E982E6D2E2208031D9C2E9D2E97
:100D3800A92E2309A0002409A100A00A0319A10AC9
:100D48002008F8002108F900AD2E2408F90023082E
:100D5800F8000800770878040319B32EB42EBA2EC9
:100D680077087804031DB92EBA2EBF2E75088B316B
:100D78008C2386310B2F7708860078088700493145
:100D8800160001040319C92ECA2EEB2E7708860017
:100D9800780887004931403F2000A000413FA1006A
:100DA80077088600780887004231403FA200413F1B
:100DB800A3002308803AA4002108803A2402031DD6
:100DC800E72E200822020318EA2EEB2E0B2F7708B5
:100DD8008600780887004231770884007808850003
:100DE800003F2000A000013FA100403F20078400F1
:100DF800413F213D85007508800077088600780806
:100E0800870042310130810741310318810A080007
:100E18002000A401A501780886008701403FA000B2
:100E2800413FA100200884002108850012002A3AC9
:100E3800031D1F2F202F4F2F7808860087010130B0
:100E4800810741310318810A790886008701010862
:100E58008400850102308107003FA400013FA500FE
:100E6800632F2508F3002408F2000A30F40000304C
:100E7800F5008C31C6248731200023087207A400AE
:100E88000030733DA500780886008701013081078E
:100E980041310318810A780886008701403FA00085
:100EA800413FA10020088400210885000008D03EA9
:100EB800A3000A302302031C622F632F352F250855
:100EC800F9002408F8000800F701F31F6C2F6D2FB4
:100ED800742FF209F309F20A0319F30A0130F70033
:100EE800F51F772F782F7F2FF409F509F40A0319D6
:100EF800F50A0130F706F801F901720873040319BD
:100F0800862F872FB42F0130F600912F0130F2354C
:100F1800F30D890B8B2F0130F607F31F942F952FB4
:100F28008A2F0130F835F90D890B962F7308750251
:100F3800031DA02F72087402031CA32FA42FA92F2E
:100F48007208F4027308F53B78140130F336F20C9A
:100F5800890BAA2F0130F602031DB32FB42F952F4A
:100F680077080319B82FB92FBE2FF809F909F80A1D
:100F78000319F90A7908F3007808F200080022003A
:100F88008C018D018E0121008C01CF308D00B8308D
:100F98008E000830900023008C014F308D003830CF
:100FA8008E0024008C01CF308D0038308E00083040
:100FB80090002100951325008C018D018E012600DB
:100FC8008C018D018E0127008C018D0138308E0037
:100FD8000830900022009D012700910192019301A1
:100FE8009401950196019701980199019D019E012F
:080FF8009F0108000800080039
:10164E0020006A08080023001D121D1608007308EA
:10165E002000E7007208E6000800783021009900AB
:10166E002200960121009801080020006C08031D3D
:10167E00412B432B0130442B0030080020006B0817
:10168E00031D4A2B4C2B01304D2B003008008B10C4
:10169E00210015170030F2000030F3008B312E239D
:1016AE008B3108007208730403195E2B5F2B642BB9
:1016BE0073082100C5007208C40008007208730484
:1016CE0003196A2B6B2B702B73082100C300720851
:1016DE00C20008006400800101310130FE020030BA
:1016EE00FF3B7F087E04031D722B00342100670828
:1016FE0068040319832B842B892B68088A006708DA
:10170E000A008B31200091100800F4008B313C232D
:10171E008B31003A0319942B952B8D2B7408F20004
:10172E008C31E5248B310800273020009B009A0174
:10173E00FE302100E7000730E80020009110210064
:10174E00911420009C0108008B3134238B3187319A
:10175E00C3278B318B319B238B318D3189258B3177
:10176E008B314E238B31080059302000DD000030C4
:10177E00CF00D0005808D2005708D1005D30D300FA
:10178E008C318A248B310800F91BCE2BCF2BD02B1A
:10179E00DC2B78092000A0007909A100A00A03190A
:1017AE00A10A2008F8002108F90008008B31452312
:1017BE008B31003A0319E42BE52BDD2B8C313924C8
:1017CE008B31F600F7017608F4007708F500080073
:1017DE0022008E140630F2003030890BF42BF20BFF
:1017EE00F42B003222000E141530F200C630890B95
:1017FE00FE2BF20BFE2B003201302000EA00080017
:10180E0022000E100630F2003030890B0C2CF20B39
:10181E000C2C003222008E100630F2003030890B74
:10182E00162CF20B162C003222008C012000EA013D
:10183E0008007308F5007208F400292C0130F20735
:10184E000030F33D72088600730887000108031DFF
:10185E00312C322C252C74087202F2007508733B61
:10186E00F30008007A08B03E860087010108F300F5
:10187E007A08013E0739F2007208FA00210091122F
:10188E0020006B0803194C2C4D2C4F2C0130EB0211
:10189E002100911673080800083020006C0203180E
:1018AE00592C5A2C6B2C6D08B83E86008701010806
:1018BE0023009A0020006D08013E0739F0007008E1
:1018CE00ED000130EC076D2C210011120800730899
:1018DE00F9007208F8007D2C7808860079088700D8
:1018EE00740881000130F8070030F93D0130F6022E
:1018FE000030F73B760A031D882C770A031D882CCF
:10190E00892C732C080020005208D6005108D500EF
:10191E009B2C5008C2004F08C1005530C30053081D
:10192E00C4008431F5248C312000550884005608FB
:10193E0085001200031DA42CA52C902CCF01D001E4
:10194E000800720884007308850000087406031DE1
:10195E00B12CB22CB32CC52C7308F7007208F6000C
:10196E00F20A0319F30A760884007708850012003C
:10197E00031DC22CC32CA82CF201F3010800F601A2
:10198E00F701721CCB2CCC2CD02C7408F6077508E2
:10199E00F73D0130F435F50D890BD12C0130F336BE
:1019AE00F20C890BD62C72087304031DDF2CE02C6D
:1019BE00C82C7708F3007608F20008002100111AEF
:1019CE00E92CEA2CEE2C720823009A00052D20003B
:1019DE006C080319F32CF42C052D6E08B83E860006
:1019EE008701720881006E08013E0739F300730803
:1019FE00EE002100111201302000EC022100111620
:101A0E0008002000AB01AC011F2D2A08A800A90177
:101A1E002808F5002908F6002708F8002608F70020
:101A2E008631AE268D3101302000AB070030AC3D43
:101A3E0025082B078600013087000108AA002A0816
:101A4E00031D2A2D2B2D0C2D0800332D0130F207EE
:101A5E000130F3070030F43D7308840074088500EC
:101A6E000008F50072088600870101087506031D3F
:101A7E00412D422D4A2D7208860087010108031D53
:101A8E00492D4A2D2D2D720886008701730884007A
:101A9E007408850000080102F200F301031CF30331
:101AAE000800F60072087304031D5E2D5F2D632D72
:101ABE0022008C010E11882D760822008C000E1546
:101ACE007235F400730DF500F701F8017C2D00322C
:101ADE00003277087804031D752D762D782D22009F
:101AEE000E110130F7070030F83D75087802031D1E
:101AFE00822D74087702031C852D862D6E2D2200F3
:101B0E008C01080021009112AE30E9000E30EA007F
:101B1E0011125330EB000C30EC00483023009F00C4
:101B2E0090309D0026309E00A0309B0001309C001E
:101B3E00FF30F2000730F3008B3159238D312A30FC
:101B4E00F2000B30F3008B3165238D312100CA0179
:101B5E00CB012000EE01ED010830EC00FB01FA0193
:101B6E00EB012100911608002000A601A701C82D47
:101B7E0001302000A0070030A13D0130A607003043
:101B8E00A73D200886002108870001080319D02DE3
:101B9E00D12DE92D2308F3002208F200200886003B
:101BAE00210887000108A400A5012408F4002508D7
:101BBE00F5008C31A8248D31720873040319E82DB9
:101BCE00E92DBF2D20002708A1002608A00008003F
:101BDE002000A601A701FC2D01302000A007003037
:101BEE00A13D0130A6070030A73D20088600210840
:101BFE00870001080319042E052E1D2E2308F3005D
:101C0E002208F20020088600210887000108A4009F
:101C1E00A5012408F4002508F5008C31A8248D3187
:101C2E0072087304031D1C2E1D2EF32D2000270891
:101C3E00A1002608A000080022000E108E108C01B4
:101C4E008D122000E001E10102302000DF0004309F
:101C5E00DE00BA30890B312EDE0B312EDF0B312E2A
:101C6E00000022000D0E2000DE005E0C0139DE00A9
:101C7E000130DE06DE0EDE0D22000D0820005E06AF
:101C8E00DF395E0622008D0001302000E0070030B3
:101C9E00E13D6108803ADE0080305E02031D592E60
:101CAE0014306002031C5C2E5D2E2B2E22008D162E
:101CBE0030302000D7009030D8008B31BB238E31CE
:101CCE0008002000681C6C2E6D2E762E2F08A500A5
:101CDE002E08A7002D08A6008D3108258E31200074
:101CEE00B11F7A2E7B2E7D2EB001B101B201B30150
:101CFE00912E2030F5000030F60020002E08F8005E
:101D0E002D08F7008631AE268E3101302000B20745
:101D1E000030B33D3308803AF9003108803A790239
:101D2E00031D9B2E30083202031C9E2E9F2E802EEA
:101D3E0020006818A32EA42EAD2E2F08A5002E0865
:101D4E00A7002D08A6008D3108258E3108007B35A1
:101D5E00A03E860087010030C03FC13F23009D1C7E
:101D6E00B92EBA2ECB2E7B35A03E860087010115EB
:101D7E002100420843040319C52EC62ECB2E43085C
:101D8E008A0042080A008E3123001D1DCF2ED02E50
:101D9E00E12E7B35A03E8600870181142100440888
:101DAE0045040319DB2EDC2EE12E45088A0044087B
:101DBE000A008E3123001908F0007B08013E073916
:101DCE00F10071087A06031DED2EEE2EEF2EFA2E7F
:101DDE007B08B03E86008701700881007108FB0009
:101DEE0001302000EB070800F701F51FFF2E002F32
:101DFE00072FF409F509F40A0319F50A0130F70063
:101E0E00F31F0A2F0B2F102FF209F309F20A0319F1
:101E1E00F30A720873040319152F162F3D2F013084
:101E2E00F600202F0130F235F30D890B1A2F0130F9
:101E3E00F607F31F232F242F192F73087502031D86
:101E4E002A2F72087402031C2D2F2E2F322F720888
:101E5E00F4027308F53B0130F336F20C890B332F85
:101E6E000130F602031D3C2F3D2F242F7708031956
:101E7E00412F422F472FF409F509F40A0319F50AE9
:101E8E007508F3007408F20008002000A701A801ED
:101E9E002108F3002008F2000030F400F5002308BA
:101EAE00F7002208F6008C316E248F318D2F8B3186
:101EBE00DD238F3174082000A60026088B318C2379
:101ECE008F310D302000260603196E2F6F2F752FC0
:101EDE000A302606031D742F752F812F2708200721
:101EEE0086002808213D870081010A308B318C2322
:101EFE008F31A52F2708200786002808213D87004F
:101F0E00260881000130A7070030A83D20002208D6
:101F1E00FF3EA400FF30233DA50025082802031D27
:101F2E009A2F24082702031C9D2F9E2F5E2F270811
:101F3E00200786002808213D870081010800200027
:101F4E0028082904031DAC2FAD2FBA2F6308A90052
:101F5E006208A80028082904031DB62FB72FBA2F30
:101F6E00A801A901FF2F2908A1002808A0002B080D
:101F7E00A3002A08A2008D31EF258F312000200802
:101F8E00A8072108A93D280886002908870001080E
:101F9E00031DD22FD32FD82FE201E301A801A901EF
:101FAE00FF2F2908A1002808A0002B08A3002A084B
:101FBE00A2008D31BB258F31200020082807E200BA
:101FCE002108293DE30062088600630887000108A6
:101FDE000319F22FF32FFD2F620886006308870086
:101FEE0081010130E2070030E33DFF2FE201E30102
:101FFE00080089340D340034003439340C34E5349F
:10200E000C3445340B343C340B340034003400347F
:10201E000034003400340034003400340034003412
:10202E000034003400340034003400340034003402
:10203E0000340034003400340034003400340034F2
:10204E00003459340B3465340B340034003400340E
:10205E000034533479347334743465346D3420342D
:10206E0069346E3469347434693461346C3469346F
:10207E007A346134743469346F346E342034683495
:10208E006134733420346234653465346E342034F4
:10209E0063346F346D3470346C3465347434653439
:1020AE0064342E34213421340D340A340034433454
:1020BE00093445346D3469347334733469346F3490
:1020CE006E34203469347334203461346C34723499
:1020DE00653461346434793420346434693473344F
:1020EE00613462346C34653464342E3421342134DA
:1020FE000A340034433409344634503431345F34B6
:10210E00543449344D34453409342534363464342A
:10211E002034203420344634503431345F3441344A
:10212E004D34503409342534363464340D340A3485
:10213E000034433409344634503432345F3454342A
:10214E0049344D344534093425343634643420341E
:10215E00203420344634503432345F3441344D34DC
:10216E00503409342534363464340D340A34003492
:10217E00433409344634503433345F3454344934A0
:10218E004D34453409342534363464342034203407
:10219E0020344634503433345F3441344D3450346B
:1021AE0009342534363464340D340A34003443345F
:1021BE0009344634503434345F34543449344D3455
:1021CE0045340934253436346434203420342034F4
:1021DE004634503434345F3441344D345034093441
:1021EE002534363464340D340A340034433409341F
:1021FE004634503435345F34543449344D344534D8
:10220E0009342534363464342034203420344634B2
:10221E00503435345F3441344D3450340934253420
:10222E00363464340D340A340034433409344634BD
:10223E00503436345F34543449344D3445340934D3
:10224E00253436346434203420342034463450342B
:10225E0036345F3441344D345034093425343634F9
:10226E0064340D340A3400344334093445344D3467
:10227E0049345334533449344F344E3409342534AD
:10228E00363464340D340A3400344334093456344D
:10229E0045345234533449344F344E34203431346F
:1022AE002E3430340D340A3400344334093453346C
:1022BE00463431340D340A34003443340934533443
:1022CE00463432340D340A34003443340934533432
:1022DE00463433340D340A34003443340934533421
:1022EE00463434340D340A34003443340934533410
:1022FE00463435340D340A340034433409345334FF
:10230E00463436340D340A340034433409345434EC
:10231E004F3446340D340A340034433409345434C3
:10232E004F344E340D340A340034433409345334AC
:10233E0050344F340D340A3400345334463431346F
:10234E000034533446343234003453344634333448
:10235E000034533446343434003453344634353434
:10236E000034533446343634003454344F34463407
:10237E00003454344F344E340034533450344F34CC
:10238E0000345634453452340034563445345734C0
:06239E0000342F3400346E
:020000040001F9
:04000E00E43FFF3E8E
:00000001FF
