:100000008A11FA2FFF1B0C2883137F18831700080F
:10001000840A0319FF0A080000308A000408840AD1
:1000200082070034013400340A340034643400346C
:10003000E83403341034273464346934733474344A
:1000400020343D342034253464340A3400345634AA
:1000500045345234533449344F344E3420343134DF
:100060003034003444346534743465346334743467
:10007000653464340A34003444346534743465348B
:100080006334743465346434003428346E34753425
:100090006C346C34293400345334573420344F34A6
:1000A0004634463400345334573420344F344E34BD
:1000B00000344E34543444340A3400344E3444341E
:1000C0004F340A34003443340D340A3400342534B8
:1000D00073340A34003457345434423400344F34C7
:1000E0005334433400344E345434443400344E34A6
:1000F00044344F34003452345034533400342F34A9
:020100000034C9
:10010800F401F501701C89288A2890287208F407E0
:100118000318F50A7308F50701300310F20DF30D03
:10012800FF3E031D912801300310F10CF00CFF3E37
:10013800031D982870087104031DA328A428862885
:100148007508F1007408F0000800F6007608F7005A
:10015800E32876087706031DB228B328B428E328D5
:1001680020308A1548268A1108308A1548268A11AF
:100178000130F702E32808308A1548268A11203012
:100188008A1548268A1108308A1548268A110130AE
:10019800F70277087602031CD228D328BF28E32861
:1001A80077088400831380017608FF287708840085
:1001B8007408831380000130FF007F08F7078A1551
:1001C80052268A11F200F3017208F4007308F50050
:1001D8007508003A0319F128DA287408083A03194F
:1001E800AD28023A0319D428073A0319D428183A33
:1001F8000319CD28DA280800F501F11F042905297B
:100208000C29F009F109F00A0319F10AF501F50AB8
:10021800F31F0F2910291929F209F309F20A031902
:10022800F30A0130FF007F08F506F601F7017008B0
:1002380071040319202921295829F401F40A2F29C6
:1002480001300310F00DF10DFF3E031D252901308B
:10025800FF007F08F407F11F3229332924290130D0
:100268000310F60DF70DFF3E031D342971087302C4
:10027800031D402970087202031C432944294B2995
:100288007008F2027108031CF303F30276140130BC
:100298000310F10CF00CFF3E031D4C290130F40251
:1002A800031D572958293329750803195C295D2925
:1002B8006229F609F709F60A0319F70A7708F1001F
:1002C8007608F0000800FD006D290130FF007F0866
:1002D800FD077D0884002030831300060319752963
:1002E800762969297D0884000930000603197D29CB
:1002F8007E296929FB01FC01FA017D0884002D3063
:100308000006031D8829892992290130FF007F08EA
:10031800FA070130FF007F08FD07BE297D08840029
:100328002B300006031D99299A29BE290130FF00A8
:100338007F08FD07BE297D0884007C08F1007B0842
:10034800F0000A30F2000030F3008A1184208A118C
:10035800831300087007F800003003180130710794
:10036800F9007808D03EFB0079080318013EFF3EEB
:10037800FC009A297D08840000088A1571268A11D4
:100388000318C729C8299F297A080319CC29CD2918
:10039800D9297B09F8007C09F900F80A0319F90A38
:1003A8007808F6007908F700DD297C08F7007B0853
:1003B800F600080083120313AA007C30A500B92AAE
:1003C80025302B060319E929EA29EF292B088A1574
:1003D80048268A11B92AA301252A2508840000087D
:1003E800A6000030A7000130FF007F08A5072608F7
:1003F8002704031D002A012A182A3430A600803059
:10040800A700182A2708FF00260884008A1102205E
:100418008A118A1548268A11013083120313A60708
:100428000318A70A0030A7072708FF00260884003A
:100438008A1102208A11003A031D232A242A062A37
:10044800B92A0130AA07FF302A0784008A110C2034
:100458008A11AB00003A0319C92A643A03193B2AE6
:100468000D3A03193B2A1A3A0319F129B92A250822
:1004780084000008A800840A0008A9000230FF00D0
:100488007F08A507A91F492A4A2A532A0330FF00D3
:100498007F08A304A809A909A80A0319A90AAB0196
:1004A800AB0A2B08A0002007013E84008A110C200B
:1004B8008A11A1008A110C208A11A200220829029F
:1004C800031D682A2108280203186B2A6C2A6D2A42
:1004D800772A0130FF007F08AB0705302B06031D84
:1004E800762A772A552A2308033903197C2A7D2A74
:1004F800812A2D308A1548268A11831203132B0866
:10050800A400AE2A0A30F7000030F8002408A00042
:100518002007013E84008A110C208A11F0008A11FC
:100528000C208A11F1002908F3002808F2008A1526
:1005380076278A117108FA007008F9008A153C2795
:100548008A117708303E83120313AB002B088A15F3
:1005580048268A11FF30FF007F0883120313A4077F
:10056800240A031DB82AB92A862A013083120313E4
:10057800AA07FF302A0784008A110C208A11AB00D1
:100588002B08031DC82AC92AE4290800831203136B
:100598008501860183160313850103308600073021
:1005A800831203139F008A1566268A110A30831264
:1005B8000313E1000030E2003230E3000030E400D1
:1005C8001A30D5004F30D600513083120313DA00A9
:1005D8005130DB005130DC00DD015130AD005130CD
:1005E800AE005130AF00B0012D308A153A268A117D
:1005F8002D30FC0056308A11DE218A118312031334
:100608002E08DA002F08DB003008DC00DD01053099
:10061800D9006A30F0005A308A15B8268A11700855
:100628007104031D182B192B1D2B83120313D901D9
:10063800612B5A30F0005A308A15B8268A11700892
:100648007104031D282B292B2E2B83120313D90188
:10065800D90A612B5E30F0005A308A15B8268A1103
:1006680070087104031D392B3A2B3F2B023083127B
:100678000313D900612B6230F0005A308A15B8266E
:100688008A1170087104031D4A2B4B2B502B033021
:1006980083120313D900612B6630F0005A308A1593
:1006A800B8268A1170087104031D5B2B5C2B612B23
:1006B800043083120313D900612B6E30FA002D30F9
:1006C8008A15BA278A1183120313DE00D42F6E30DD
:1006D800FA0000308A15BA278A1183120313DE0044
:1006E8006E30FA0000308A15BA278A118312031374
:1006F800DE006E30FA0000308A15BA278A1183129C
:100708000313DE006E30FA0000308A15BA278A110A
:1007180083120313DE005E080319932B942B9E2B80
:100728005E088A1167218A11770883120313E20091
:100738007608E1006208FD006108FC000B308A11B0
:10074800DE218A11831203136208803AFF00803089
:100758007F02031DB12B01306102031CB42BB52BA2
:100768000B2C83120313DF01E001FC2B831203130C
:100778000514E501E601C92B0000013083120313BB
:10078800E5070318E60A0030E6076608803AAC0079
:100798006408803A2C02031DD32B63086502031CEE
:1007A800D62BD72BC02B831203130510E501E601C6
:1007B800E62B0000013083120313E5070318E60A4D
:1007C8000030E6076608803AAC006408803A2C02DC
:1007D800031DF02B63086502031CF32BF42BDD2BA0
:1007E800013083120313DF070318E00A0030E00723
:1007F8006008803AAC006208803A2C02031D062C7F
:1008080061085F02031C092C0A2CBA2B712CFF30DB
:10081800F000FF30F100831203136208F30061084F
:10082800F2008A1184208A11710883120313E200EE
:100838007008E100DF01E001632C831203138514C3
:10084800E501E601302C0000013083120313E507AF
:100858000318E60A0030E6076608803AAC00640828
:10086800803A2C02031D3A2C63086502031C3D2CB8
:100878003E2C272C831203138510E501E6014D2C2D
:100888000000013083120313E5070318E60A00305D
:10089800E6076608803AAC006408803A2C02031D1B
:1008A800572C63086502031C5A2C5B2C442C01301E
:1008B80083120313DF070318E00A0030E00760081B
:1008C800803AAC006208803A2C02031D6D2C610846
:1008D8005F02031C702C712C212C60308A155C2659
:1008E8008A1152308A11DE218A11E82F6E30FA00FF
:1008F80000308A15BA278A1183120313DE006E307E
:10090800FA0000308A15BA278A1183120313DE0011
:100918006E30FA0000308A15BA278A118312031341
:10092800DE005E080319992C9A2CA42C5E088A1103
:1009380067218A11770883120313D8007608D70035
:100948005808F1005708F0005608F3005508F2005F
:100958008A1100218A11710883120313E4007008B8
:10096800E30063086404031DBA2CBB2CE82F013094
:10097800E3000030E400E82F6E30FA0000308A15FA
:10098800BA278A1183120313DE006E30FA00003092
:100998008A15BA278A1183120313DE006E30FA0013
:1009A80000308A15BA278A1183120313DE006E30CD
:1009B800FA0000308A15BA278A1183120313DE0061
:1009C8006E30FA0000308A15BA278A118312031391
:1009D800DE005E080319F12CF22CFC2C5E088A114B
:1009E80067218A11770883120313E2007608E10071
:1009F8006208FD006108FC000B308A11DE218A11B3
:100A0800831203136208803AFF0080307F02031DBF
:100A18000F2D01306102031C122D132DBE2D8312E0
:100A28000313DF01E0015A2D831203130514E501B6
:100A3800E601272D0000013083120313E507031890
:100A4800E60A0030E6076608803AAC006408803A97
:100A58002C02031D312D63086502031C342D352D2E
:100A68001E2D831203130510E501E601442D000035
:100A7800013083120313E5070318E60A0030E6077E
:100A88006608803AAC006408803A2C02031D4E2D9B
:100A980063086502031C512D522D3B2D0130831232
:100AA8000313DF070318E00A0030E0076008803A04
:100AB800AC006208803A2C02031D642D61085F02B5
:100AC800031C672D682D182D83120313DF01E00125
:100AD800AF2D831203138514E501E6017C2D000078
:100AE800013083120313E5070318E60A0030E6070E
:100AF8006608803AAC006408803A2C02031D862DF3
:100B080063086502031C892D8A2D732D8312031334
:100B18008510E501E601992D0000013083120313C9
:100B2800E5070318E60A0030E6076608803AAC00D5
:100B38006408803A2C02031DA32D63086502031C78
:100B4800A62DA72D902D013083120313DF0703185C
:100B5800E00A0030E0076008803AAC006208803A9A
:100B68002C02031DB92D61085F02031CBC2DBD2D8D
:100B78006D2D792EFF30F000FF30F1008312031342
:100B88006208F3006108F2008A1184208A11710852
:100B980083120313E2007008E100DF01E001162E62
:100BA800831203138514E501E601E32D00000130EB
:100BB80083120313E5070318E60A0030E607660800
:100BC800803AAC006408803A2C02031DED2D6308BE
:100BD8006502031CF02DF12DDA2D83120313851005
:100BE800E501E601002E0000013083120313E5073A
:100BF8000318E60A0030E6076608803AAC00640885
:100C0800803A2C02031D0A2E63086502031C0D2E70
:100C18000E2EF72D013083120313DF070318E00AA5
:100C28000030E0076008803AAC006208803A2C0285
:100C3800031D202E61085F02031C232E242ED42DB1
:100C480083120313DF01E0016B2E831203130514D3
:100C5800E501E601382E0000013083120313E50791
:100C68000318E60A0030E6076608803AAC00640814
:100C7800803A2C02031D422E63086502031C452E90
:100C8800462E2F2E831203130510E501E601552E7B
:100C98000000013083120313E5070318E60A003049
:100CA800E6076608803AAC006408803A2C02031D07
:100CB8005F2E63086502031C622E632E4C2E0130E2
:100CC80083120313DF070318E00A0030E007600807
:100CD800803AAC006208803A2C02031D752E610828
:100CE8005F02031C782E792E292E60308A155C2627
:100CF8008A1152308A11DE218A11E82F48308A1170
:100D0800DE218A11103083120313E1002730E2003C
:100D1800DF01E001DA2E831203130514E501E60171
:100D28009E2E0000013083120313E5070318E60A1C
:100D38000030E6076608803AAC006408803A2C0266
:100D4800031DA82E63086502031CAB2EAC2E952E3E
:100D5800831203130510E501E601BB2E00000130E4
:100D680083120313E5070318E60A0030E60766084E
:100D7800803AAC006408803A2C02031DC52E630833
:100D88006502031CC82EC92EB22E8312031306183F
:100D9800CE2ECF2ED42E21308A11DE218A11E82EB4
:100DA8000130DF070318E00A0030E0076008803AE6
:100DB800AC006208803A2C02031DE42E61085F0231
:100DC800031CE72EE82E8F2E60308A155C268A11C8
:100DD80052308A11DE218A11E82F4D308A11DE2126
:100DE8008A116E30FA0000308A15BA278A118312E8
:100DF8000313DE005E080319022F032F0D2F5E0870
:100E08008A1167218A11770883120313E200760892
:100E1800E1006208FD006108FC000B308A11DE2148
:100E28008A1183120313DF01E001831203130514EF
:100E3800E501E601282F0000013083120313E507BE
:100E48000318E60A0030E6076608803AAC00640832
:100E5800803A2C02031D322F63086502031C352FCC
:100E6800362F1F2F831203130510E501E601452FC6
:100E78000000013083120313E5070318E60A003067
:100E8800E6076608803AAC006408803A2C02031D25
:100E98004F2F63086502031C522F532F3C2F8312D8
:100EA80003130618582F592F5E2F2B308A11DE2175
:100EB8008A11712F0130DF070318E00A0030E007BC
:100EC8006008803AFF00A7307F02031D6D2F1030A5
:100ED8005F02031C702F712F192F83120313DF0178
:100EE800E001B82F831203138514E501E601852F6D
:100EF8000000013083120313E5070318E60A0030E7
:100F0800E6076608803AAC006408803A2C02031DA4
:100F18008F2F63086502031C922F932F7C2F831257
:100F280003138510E501E601A22F000001308312AA
:100F38000313E5070318E60A0030E6076608803A57
:100F4800AC006408803A2C02031DAC2F63086502CC
:100F5800031CAF2FB02F992F013083120313DF0723
:100F68000318E00A0030E0076008803AAC00620825
:100F7800803A2C02031DC22F61085F02031CC52F93
:100F8800C62F762F60308A155C268A1152308A1156
:100F9800DE218A11E82F16308A11DE218A11E82F06
:100FA8005908003A03196B2B013A03197A2C033AB2
:100FB8000319C02C013A0319822E073A0319F12E9E
:100FC800013A0319CF2FE82F831203130618ED2FC8
:100FD800EE2FF32F3B308A11DE218A11E82A4230A6
:100FE8008A11DE218A11E82A8A1100288312031344
:080FF800E70183018A11CA2AF6
:101C7400F80078088A11A9208A1508008312031332
:101C84008C1E452E462E402E1A080800F0008312A2
:101C940003130C1E4E2E4F2E492E70089900080077
:101CA4008A1540268A15F10071088A1548268A1576
:101CB40071080800F20072088A1583268A150A3012
:101CC4008A1548268A1508001930831603139900CB
:101CD4002430980090308312031398000800F10018
:101CE400F0013A3071020318782E792E812E3030AB
:101CF4007102031C7E2E7F2E812EF001F00A700CDF
:101D04000800F100912E710884008A110C208A15B4
:101D14008A1548268A150130FF007F08F1077108EB
:101D240084008A110C208A15003A031D9A2E9B2EDA
:101D3400852E0800F200720884008A110C208A158E
:101D44007006031DA62EA72EA92E7208B72E0130E9
:101D5400F207FF30720784008A110C208A15003ABA
:101D6400031DB52EB62E9D2E00300800F500C22EA0
:101D74000130FF007F08F5070130FF007F08F007FE
:101D8400700884008A110C208A15F20075088400FA
:101D940083130008F30072087302F4007408031D2F
:101DA400D42ED52EDC2E750884000008031DDB2EEE
:101DB400DC2EBA2E7408F000F101F01BF1030800C8
:101DC400F900F701F801F02E0130FF007F08F90750
:101DD4000130F7070318F80A0030F807790884007F
:101DE400831300080319F72EF82E0A2F79088400AC
:101DF4000008F500F6017508F0007608F100730894
:101E04008A159C268A15003A0319092F0A2FE62EF3
:101E14007808F4007708F3000800F900F701F801E6
:101E24001D2F0130FF007F08F9070130F707031861
:101E3400F80A0030F80779088400831300080319AE
:101E4400242F252F372F790884000008F500F60188
:101E54007508F0007608F10073088A159C268A1527
:101E6400003A031D362F372F132F7808F400770814
:101E7400F3000800770878040319412F422F712FCB
:101E8400FB01FB0A502F01300310F70DF80DFF3E44
:101E9400031D462F0130FF007F08FB07F81F532F57
:101EA400542F452F78087A02031D5A2F7708790298
:101EB400031C5D2F5E2F642F7708F9027808031C3A
:101EC400FA03FA0201300310F80CF70CFF3E031D6D
:101ED400652F0130FB02031D702F712F542F7A08D8
:101EE400F8007908F7000800F401F501700871049E
:101EF40003197D2F7E2FB52FF601F60A8C2F0130A2
:101F04000310F00DF10DFF3E031D822F0130FF0081
:101F14007F08F607F11F8F2F902F812F01300310B8
:101F2400F40DF50DFF3E031D912F71087302031D7F
:101F34009D2F70087202031CA02FA12FA82F7008D8
:101F4400F2027108031CF303F3027414013003104A
:101F5400F10CF00CFF3E031DA92F0130F602031D06
:101F6400B42FB52F902F7508F1007408F000080005
:101F7400FB007B08031DBF2FC02FC42F8312031344
:101F84006708FB007B08031DC82FC92FCB2F003027
:101F9400FF2F7A08F3007B088A150F278A15730828
:101FA400FF007F08FB077B08840083130008031DE0
:101FB400DC2FDD2FE22F83120313E7010030FF2F04
:101FC4007A08F3007B088A15E2268A1573087B07D2
:101FD40083120313E70067088400831300080319BE
:101FE400F42FF52FFD2F6708840080010130FF00D6
:0C1FF4007F08E707FE2FE7017B080800CC
:08400000FF3FFF3FFF3FFF3FC0
:02400E00783FF9
:00000001FF
