:100000008A11FA2FFF1B0C2883137F18831700080F
:10001000840A0319FF0A080000308A000408840AD1
:1000200082070034013400340A340034643400346C
:10003000E8340334103427344D344F3454344F34BF
:10004000523420343D3420344234203420344F3470
:100050004B340D340A3400344D344F3454344F345F
:10006000523420343D3420344634203420344F344C
:100070004B340D340A3400344D344F3454344F343F
:10008000523420343D3420344234203420344F3430
:100090004B3400344D344F3454344F3452342034C4
:1000A0003D3420344634203420344F344B34003433
:1000B00069346E34743476346C3420343D342034F6
:1000C000253464340A34003463346E347434203498
:1000D0003D342034253464340A34003428346E34FA
:1000E00075346C346C3429340034253473340A3458
:0600F00000342C34003442
:10047000F80078088A11F9238A11080083120313FF
:100480008C1E432A442A3E2A1A080800F0008312D0
:1004900003130C1E4C2A4D2A472A700899000800A5
:1004A0008A113E228A11F10071088A1146228A11AE
:1004B00071080800F20072088A1181228A110A303C
:1004C0008A1146228A1108001930831603139900F5
:1004D0002430980090308312031398000800F10034
:1004E000F0013A3071020318762A772A7F2A3030D9
:1004F0007102031C7C2A7D2A7F2AF001F00A700C0D
:100500000800F1008F2A710884008A110C208A11DA
:100510008A1146228A110130FF007F08F107710815
:1005200084008A110C208A11003A031D982A992A06
:10053000832A0800F200720884008A110C208A11B4
:100540007006031DA42AA52AA72A7208B52A01301D
:10055000F207FF30720784008A110C208A11003ADA
:10056000031DB32AB42A9B2A00300800F401F501C8
:10057000701CBB2ABC2AC22A7208F4070318F50AA9
:100580007308F50701300310F20DF30DFF3E031D54
:10059000C32A01300310F10CF00CFF3E031DCA2AE0
:1005A00070087104031DD52AD62AB82A7508F100EF
:1005B0007408F0000800F900F701F801E92A013099
:1005C000FF007F08F9070130F7070318F80A003029
:1005D000F80779088400831300080319F02AF12A28
:1005E000032B790884000008F500F6017508F00077
:1005F0007608F10073088A119A228A11003A0319C9
:10060000022B032BDF2A7808F4007708F300080098
:10061000F900F701F801162B0130FF007F08F907F8
:100620000130F7070318F80A0030F807790884004A
:100630008313000803191D2B1E2B302B790884000F
:100640000008F500F6017508F0007608F10073085F
:100650008A119A228A11003A031D2F2B302B0C2B62
:100660007808F4007708F300080077087804031985
:100670003A2B3B2B6A2BFB01FB0A492B0130031061
:10068000F70DF80DFF3E031D3F2B0130FF007F08E3
:10069000FB07F81F4C2B4D2B3E2B78087A02031DCD
:1006A000532B77087902031C562B572B5D2B7708A9
:1006B000F9027808031CFA03FA0201300310F80C5F
:1006C000F70CFF3E031D5E2B0130FB02031D692B5F
:1006D0006A2B4D2B7A08F8007908F7000800F4011E
:1006E000F501700871040319762B772BAE2BF601F8
:1006F000F60A852B01300310F00DF10DFF3E031DAE
:100700007B2B0130FF007F08F607F11F882B892B18
:100710007A2B01300310F40DF50DFF3E031D8A2BDB
:1007200071087302031D962B70087202031C992B2B
:100730009A2BA12B7008F2027108031CF303F30239
:10074000741401300310F10CF00CFF3E031DA22BBA
:100750000130F602031DAD2BAE2B892B7508F1007D
:100760007408F0000800FB007B08031DB82BB92BB0
:10077000BD2B831203134B08FB007B08031DC12B09
:10078000C22BC42B0030F82B7A08F3007B088A11A7
:1007900008238A117308FF007F08FB077B08840089
:1007A00083130008031DD52BD62BDB2B83120313D9
:1007B000CB010030F82B7A08F3007B088A11DB228A
:1007C0008A1173087B0783120313CB004B08840044
:1007D000831300080319ED2BEE2BF62B4B08840036
:1007E00080010130FF007F08CB07F72BCB017B088E
:1007F0000800F6007608F700332C76087706031D0C
:10080000022C032C042C332C20308A1146228A110E
:1008100008308A1146228A110130F702332C083041
:100820008A1146228A1120308A1146228A11083004
:100830008A1146228A110130F70277087602031CDA
:10084000222C232C0F2C332C770884008313800157
:1008500076084F2C770884007408831380000130D9
:10086000FF007F08F7078A1150228A11F200F30176
:100870007208F4007308F5007508003A0319412C5A
:100880002A2C7408083A0319FD2B023A0319242C68
:10089000073A0319242C183A03191D2C2A2C080096
:1008A000FD00562C0130FF007F08FD077D08840005
:1008B00020308313000603195E2C5F2C522C7D0818
:1008C0008400093000060319662C672C522CFB01AA
:1008D000FC01FA017D0884002D300006031D712CF7
:1008E000722C7B2C0130FF007F08FA070130FF00DB
:1008F0007F08FD07A72C7D0884002B300006031D10
:10090000822C832CA72C0130FF007F08FD07A72C29
:100910007D0884007C08F1007B08F0000A30F200BA
:100920000030F3008A11B6228A1183130008700781
:10093000F8000030031801307107F9007808D03E44
:10094000FB0079080318013EFF3EFC00832C7D0864
:10095000840000088A116F228A110318B02CB12C70
:10096000882C7A080319B52CB62CC22C7B09F80008
:100970007C09F900F80A0319F90A7808F6007908E1
:10098000F700C62C7C08F7007B08F60008008312ED
:100990000313AA007C30A500A22D25302B060319D5
:1009A000D22CD32CD82C2B088A1146228A11A22DA6
:1009B000A3010E2D250884000008A6000030A70022
:1009C0000130FF007F08A50726082704031DE92C36
:1009D000EA2C012D5D30A6008030A700012D2708EC
:1009E000FF00260884008A1102208A118A114622FB
:1009F0008A11013083120313A6070318A70A0030D7
:100A0000A7072708FF00260884008A1102208A1100
:100A1000003A031D0C2D0D2DEF2CA22D0130AA073D
:100A2000FF302A0784008A110C208A11AB00003A9B
:100A30000319B22D643A0319242D0D3A0319242DFC
:100A40001A3A0319DA2CA22D250884000008A80000
:100A5000840A0008A9000230FF007F08A507A91F2B
:100A6000322D332D3C2D0330FF007F08A304A8094D
:100A7000A909A80A0319A90AAB01AB0A2B08A0000F
:100A80002007013E84008A110C208A11A1008A11DE
:100A90000C208A11A20022082902031D512D2108D1
:100AA00028020318542D552D562D602D0130FF00BE
:100AB0007F08AB0705302B06031D5F2D602D3E2DF3
:100AC000230803390319652D662D6A2D2D308A11EF
:100AD00046228A11831203132B08A400972D0A3093
:100AE000F7000030F8002408A0002007013E840031
:100AF0008A110C208A11F0008A110C208A11F10051
:100B00002908F3002808F2008A116F238A1171085E
:100B1000FA007008F9008A1135238A117708303EEF
:100B200083120313AB002B088A1146228A11FF306F
:100B3000FF007F0883120313A407240A031DA12DBD
:100B4000A22D6F2D013083120313AA07FF302A074D
:100B500084008A110C208A11AB002B08031DB12DD3
:100B6000B22DCD2C080083120313850186010330BA
:100B700083160313850002308600073083120313A7
:100B80009F008A1164228A110A3083120313C7005E
:100B90000030C8002E308A1138228A116830FA00DD
:100BA0002E308A11B3238A1183120313C60046081C
:100BB000FC0064308A11C7248A118312031346088B
:100BC000840083130008AC00AD012C08FC002D0844
:100BD000FD0064308A11C7248A11D92F1430C40053
:100BE0000030C5000530C7000030C8006830FA008A
:100BF00000308A11B3238A1183120313C6004608FA
:100C00000319032E042E0E2E46088A1150248A1131
:100C1000770883120313C5007608C4004508FD0059
:100C20004408FC0053308A11C7248A116830FA0046
:100C300000308A11B3238A1183120313C6004608B9
:100C40000319232E242E2E2E46088A1150248A1191
:100C5000770883120313C8007608C7004808FD0010
:100C60004708FC0047308A11C7248A1183120313F6
:100C7000C201C301E32E8312031306168612061364
:100C80008613C901CA01552EC73083120313AC0065
:100C9000492EAC0B482E4C2E00000130831203135A
:100CA000C9070318CA0A0030CA074A08803AAC00CC
:100CB0004808803A2C02031D5F2E47084902031C96
:100CC000622E632E442E8312031306128616061319
:100CD0008613C901CA017D2EC73083120313AC00ED
:100CE000712EAC0B702E742E000001308312031392
:100CF000C9070318CA0A0030CA074A08803AAC007C
:100D00004808803A2C02031D872E47084902031C1D
:100D10008A2E8B2E6C2E8312031306128612061750
:100D20008613C901CA01A52EC73083120313AC0074
:100D3000992EAC0B982E9C2E0000013083120313C9
:100D4000C9070318CA0A0030CA074A08803AAC002B
:100D50004808803A2C02031DAF2E47084902031CA5
:100D6000B22EB32E942E831203130612861206138C
:100D70008617C901CA01CD2EC73083120313AC00F8
:100D8000C12EAC0BC02EC42E000001308312031301
:100D9000C9070318CA0A0030CA074A08803AAC00DB
:100DA0004808803A2C02031DD72E47084902031C2D
:100DB000DA2EDB2EBC2E013083120313C207031878
:100DC000C30A0030C3074308803AAC004508803AA4
:100DD0002C02031DED2E44084202031CF02EF12EBE
:100DE0003B2E39308A115A228A111B308A11C724AE
:100DF0008A11CA2D1430C4000030C500C201C301DD
:100E0000A92F831203130612861206138617C9012F
:100E1000CA011B2FC73083120313AC000F2FAC0B7A
:100E20000E2F122F0000013083120313C90703187D
:100E3000CA0A0030CA074A08803AAC004808803A1B
:100E40002C02031D252F47084902031C282F292F98
:100E50000A2F831203130612861206178613C9017E
:100E6000CA01432FC73083120313AC00372FAC0BDA
:100E7000362F3A2F0000013083120313C9070318DD
:100E8000CA0A0030CA074A08803AAC004808803ACB
:100E90002C02031D4D2F47084902031C502F512FD0
:100EA000322F831203130612861606138613C90106
:100EB000CA016B2FC73083120313AC005F2FAC0B3A
:100EC0005E2F622F0000013083120313C90703183D
:100ED000CA0A0030CA074A08803AAC004808803A7B
:100EE0002C02031D752F47084902031C782F792F08
:100EF0005A2F831203130616861206138613C9018E
:100F0000CA01932FC73083120313AC00872FAC0B99
:100F1000862F8A2F0000013083120313C90703189C
:100F2000CA0A0030CA074A08803AAC004808803A2A
:100F30002C02031D9D2F47084902031CA02FA12F3F
:100F4000822F013083120313C2070318C30A003033
:100F5000C3074308803AAC004508803A2C02031DC1
:100F6000B32F44084202031CB62FB72F012F2B309A
:100F70008A115A228A110B308A11C7248A11CA2D6C
:100F80000130C7000030C800CA2D0230C700003051
:100F9000C800CA2D0530C7000030C800CA2D143063
:100FA000C7000030C800CA2D3230C7000030C8006A
:100FB000CA2D831203134608840083130008623A83
:100FC0000319FA2E043A0319EE2D0F3A0319CA2F0A
:100FD000063A0319C52F1F3A0319C02F043A031903
:100FE000D42F013A0319C42D0C3A0319CF2FCA2D5F
:100FF0008A11002883120313CB0183018A11B32DB8
:08400000FF3FFF3FFF3FFF3FC0
:02400E00783FF9
:00000001FF
