:10000000803102288731E72FF100F0013A30710288
:1000100003180B280C28142830307102031C1128F7
:1000200012281428F001F00A700C080078087904EE
:1000300003191B281C284528FD01FD0A282801302A
:10004000F835F90D890B20280130FC007C08FD07EC
:10005000F91F2B282C281F2879087B02031D322822
:1000600078087A02031C352836283A287808FA02DC
:100070007908FB3B0130F936F80C890B3B2801303D
:10008000FD02031D442845282C287B08F9007A0826
:10009000F8000800243023009E009F1590309D003A
:1000A00020004C08F3004B08F2004A08F100490810
:1000B000F0000130F700E830F6004830F50000307D
:1000C000F40081316121803170082000CD00710879
:1000D000CE007208CF007308D0000230D036CF0CAB
:1000E000CE0CCD0C890B6E284D08FF3ED100FF30A1
:1000F0004E3DD200520823009C00200051082300EE
:100100009B000800F501F6017008710403198928A5
:100110008A28B928F701F70A96280130F035F10D41
:10012000890B8E280130F4007408F707F11F992815
:100130009A288D280130F535F60D890B9B2871081A
:100140007302031DA52870087202031CA828A928A1
:10015000AE287008F2027108F33B75140130F136D5
:10016000F00C890BAF280130F702031DB828B9281D
:100170009A287608F1007508F00008002000CD00EC
:100180004D08031DC428C528C7284808CD004D08C0
:10019000031DCB28CC28CE28003009294A08F800B6
:1001A0004908F7004D088F31D027803177082000AB
:1001B000CB004B08CD074D08860087010108031DC1
:1001C000E228E328E628C801003009294A08F80097
:1001D0004908F7004D088F31A027803177082000AB
:1001E000CB007808CC004D084B07C80048088600B3
:1001F000870101080319FD28FE2807294808860001
:10020000870181010130CB004B08C8070829C801CC
:100210004D080800F8007808F900442978087906A4
:10022000031D132914291529442920308F310A2749
:10023000813108308F310A2781310130F902442998
:1002400008308F310A27813120308F310A278131E0
:1002500008308F310A2781310130F902790878029C
:10026000031C332934292029442979088600870171
:100270008101780860297908860087017608810065
:100280000130F4007408F9078F3114278131F4002C
:10029000F5017408F6007508F7007708003A0319AD
:1002A00052293B297608083A03190E29023A031904
:1002B0003529073A03193529183A03192E293B29FC
:1002C00008000030FC000030FB000030FA00003075
:1002D000F9007308720471047004031970297129FC
:1002E000B229FD01FD0A7F290130F035F10DF20D33
:1002F000F30D890B75290130F8007808FD07F31F0D
:100300008229832974290130F935FA0DFB0DFC0D82
:10031000890B842973087702031D982972087602D5
:10032000031D982971087502031D9829700874022D
:10033000031C9B299C29A5297008F4027108F53B30
:100340007208F63B7308F73B79140130F336F20C70
:10035000F10CF00C890BA6290130FD02031DB12917
:10036000B22983297C08F3007B08F2007A08F100A7
:100370007908F00008002000CC00C2290130F80004
:100380007808CC074C088600870120300106031945
:10039000CA29CB29BE294C088600870109300106ED
:1003A0000319D329D429BE29CA01CB01C9014C089C
:1003B000860087012D300106031DDF29E029E92988
:1003C0000130F8007808C9070130F8007808CC0738
:1003D000172A4C08860087012B300106031DF129DE
:1003E000F229172A0130F8007808CC07172A2000D4
:1003F0004C08860087010108F800F9014B08F1005C
:100400004A08F0000A30F2000030F3008F315A271A
:10041000813178087007FA007908713DFB007A088D
:10042000D03E2000CA00FF307B3DCB00F2294C08B3
:100430008600870101088031042081310318212AB8
:10044000222AF729200049080319272A282A342AB2
:100450004A09F8004B09F900F80A0319F90A780863
:10046000F6007908F700382A4B08F7004A08F6002A
:1004700008004B302000D300112B253058060319FB
:10048000422A432A482A58088F310A278231112BE1
:10049000D101762A5308860087010108D400D501CE
:1004A0000130CD004D08D30754085504031D592AC7
:1004B0005A2A6C2A5630D4009030D5006C2A540841
:1004C00084005508850000088F310A2782310130E9
:1004D0002000D4070030D53D54088400550885001D
:1004E0001200031D742A752A5F2A112B4A08CE00B8
:1004F0004908CD00C90A0319CA0A4D0884004E08EC
:1005000085000008D800003A0319242B643A031927
:10051000902A0D3A0319902A1A3A03194A2A112BE4
:10052000530886008701403FD600413FD700023084
:10053000CD004D08D307D71F9E2A9F2AA82A033033
:10054000CD004D08D104D609D709D60A0319D70A18
:10055000D801D80A5808CD00CE01CD35CE0D0030D7
:100560004D07840010304E3D80388500003FCF009D
:10057000013FD00050085702031DC02A4F08560201
:100580000318C32AC42AC52ACF2A0130CD004D083A
:10059000D80705305806031DCE2ACF2AAA2A5108AB
:1005A00003390319D42AD52AD92A2D308F310A27A5
:1005B000823120005808D200072B0A30F8000030A2
:1005C000F9005208CD00CE01CD35CE0D00304D07DB
:1005D000840010304E3D80388500003FF000013F20
:1005E000F1005708F3005608F20080318220823172
:1005F0007108FB007008FA008031162082317808FB
:10060000303E2000D80058088F310A278231FF3051
:100610002000CD004D08D207520A031D102B112BCC
:10062000DD2A20004A08CE004908CD00C90A031976
:10063000CA0A4D0884004E0885000008D8005808F2
:10064000031D232B242B3D2A080020302100D2003B
:100650000330D3001430D4000030D5008F312A2766
:10066000833114303D00900001303C00A400003084
:100670002000CC000030CB002530CA008030C900FB
:1006800080314A20833151302100D9005130DA00C5
:100690005130DB00DC015130A0005130A10051305D
:1006A000A200A301A0308E31FC26833161302000EE
:1006B000C9009030CA00A030CB008231392283318A
:1006C00021002108D9002208DA002308DB00DC0120
:1006D0000B30D8009130F0009030F100D9308F31DC
:1006E0007927833170087104031D772B782B7C2BBD
:1006F00008302100D800412C6530F0009030F10026
:10070000D9308F317927833170087104031D892B0B
:100710008A2B8D2B2100D801412C6D30F0009030B8
:10072000F100D9308F317927833170087104031DAE
:100730009A2B9B2B9F2B2100D801D80A412C753076
:10074000F0009030F100D9308F3179278331700873
:100750007104031DAC2BAD2BB12B02302100D8004E
:10076000412C6930F0009030F100D9308F31792779
:10077000833170087104031DBE2BBF2BC32B0330C4
:100780002100D800412C7130F0009030F100D930B8
:100790008F317927833170087104031DD02BD12B41
:1007A000D52B04302100D800412C7930F000903056
:1007B000F100D9308F317927833170087104031D1E
:1007C000E22BE32BE72B05302100D800412C7D30B4
:1007D000F0009030F100D9308F31792783317008E3
:1007E0007104031DF42BF52BF92B06302100D800E2
:1007F000412C8530F0009030F100D9308F317927CD
:10080000833170087104031D062C072C0B2C073054
:100810002100D800412C8130F0009030F100D93017
:100820008F317927833170087104031D182C192C1E
:100830001D2C09302100D800412C8930F000903067
:10084000F100D9308F317927833170087104031D8D
:100850002A2C2B2C2F2C0A302100D800412C8D3033
:10086000F0009030F100D9308F3179278331700852
:100870007104031D3C2C3D2C412C0B302100D80071
:10088000412C95302000C9009030CA00A030803142
:10089000BE208331C12FC601C7016A2C2100470841
:1008A0002000DA00210046082000D900D935DA0DF1
:1008B000D030DB002030DC0059085B0786005A0886
:1008C0005C3D87000030C03FC13F01302100C607BA
:1008D0000030C73D4708803A2000D9002100530866
:1008E000803A20005902031D782C2100520846024C
:1008F000031C7B2C7C2C4E2C2100D601D701D02C44
:1009000095302000C9009030CA0003018031BE201C
:1009100083312100DD005D0803198F2C902CCB2C36
:100920005D088131BB218331210057082000DA00A6
:10093000210056082000D900D935DA0DD030DB006F
:100940002030DC0059085B0786005A085C3D8700B0
:100950007608C03F7708C13F5D30C9009030CA00BB
:10096000210057082000DA00210056082000D90095
:10097000D935DA0DD030DB002030DC0059085B07B8
:1009800086005A085C3D8700403FCB00413FCC00C9
:1009900082313922833101302100D6070030D73D22
:1009A0005708803A2000D90021005308803A2000DF
:1009B0005902031DDE2C210052085602031CE12CB3
:1009C000E22C802C1E302000C9009030CA008231F9
:1009D00039228331432BC801C901FA2C2100483543
:1009E000203E860087010030C03FC13F0130C8076C
:1009F0000030C93D4908803A2000D900210055083F
:100A0000803A20005902031D082D21005408480295
:100A1000031C0B2D0C2DEE2C2100CA01CB01312D16
:100A200095302000C9009030CA0003018031BE20FB
:100A300083312100DD005D0803191F2D202D2D2D90
:100A40005D088131BB21833121004A35203E86007B
:100A500087017608C03F7708C13F0130CA070030E0
:100A6000CB3D4B08803A2000D90021005508803A40
:100A700020005902031D3F2D210054084A02031C87
:100A8000422D432D102D2E302000C9009030CA0079
:100A9000823139228331432B3E302000C90090300F
:100AA000CA00823139228331432B95302000C9009E
:100AB0009030CA0003018031BE2083312100DD0067
:100AC0005D080319642D652D6E2D5D088131BB21F4
:100AD000833177082100AF007608AE009530200002
:100AE000C9009030CA0003018031BE20833121004B
:100AF000DD005D0803197D2D7E2D872D5D08813178
:100B0000BB21833177082100B1007608B000263080
:100B10002000C9009030CA00823139228331432B32
:100B200095302000C9009030CA0003018031BE20FA
:100B300083312100DD005D0803199F2DA02DA92D13
:100B40005D088131BB21833177082100B30076082D
:100B5000B20095302000C9009030CA0003018031F6
:100B6000BE2083312100DD005D080319B82DB92DA9
:100B7000C22D5D088131BB21833177082100B5008A
:100B80007608B40036302000C9009030CA008231A7
:100B900039228331432B95302000C9009030CA00A0
:100BA00003018031BE2083312100DD005D0803197F
:100BB000DA2DDB2DE42D5D088131BB2183317708EF
:100BC0002100B7007608B60095302000C9009030AB
:100BD000CA0003018031BE2083312100DD005D08A1
:100BE0000319F32DF42DFD2D5D088131BB218331D7
:100BF00077082100B9007608B80046302000C90007
:100C00009030CA00823139228331432B9530200045
:100C1000C9009030CA0003018031BE208331210019
:100C2000DD005D080319152E162E1F2E5D0881317B
:100C3000BB21833177082100BB007608BA009530CC
:100C40002000C9009030CA0003018031BE208331EA
:100C50002100DD005D0803192E2E2F2E382E5D0891
:100C60008131BB21833177082100BD007608BC00AB
:100C70004E302000C9009030CA00823139228331C1
:100C8000432BCC01CD014D08803A2000D9008030A3
:100C90005902031D4E2E063021004C02031C512E1A
:100CA000522E532EAF2F95302000C9009030CA002D
:100CB00003018031BE2083312100DD006630F00069
:100CC0009030F1005D088F3179278331700871040D
:100CD000031D6B2E6C2EA32E2100CE01CF01902E72
:100CE00021004F082000DA0021004E082000D90022
:100CF000D935DA0DD030DB002030DC0059085B0735
:100D000086005A085C3D87000108220099003D30AA
:100D1000890B882E000001302100CE070030CF3D26
:100D20004F08803A2000D90021005308803A200063
:100D30005902031D9E2E210052084E02031CA12EB3
:100D4000A22E702EA92F6E30F0009030F1002100FD
:100D50005D088F317927833170087104031DB12E2E
:100D6000B22EDB2E2100D001D101C72E210050353B
:100D7000203E860087010108220099003D30890B42
:100D8000BF2E000001302100D0070030D13D5108B6
:100D9000803A2000D90021005508803A20005902ED
:100DA000031DD52E210054085002031CD82ED92E25
:100DB000B62EA92FA92F6A30F0009030F100210043
:100DC0005D088F317927833170087104031DE92E86
:100DD000EA2E102F21003008220099002100BE01C8
:100DE000BF01FB2E3530890BF32E000001302100AE
:100DF000BE070030BF3D3F08803A2000D9002100E7
:100E00002F08803A20005902031D092F21002E08C7
:100E10003E02031C0C2F0D2FF22E22009901A92F48
:100E20007230F0009030F10021005D088F31792799
:100E3000833170087104031D1E2F1F2F432F2100C3
:100E40003408220099002100C001C101302F353043
:100E5000890B282F000001302100C0070030C13D60
:100E60004108803A2000D90021003308803A200050
:100E70005902031D3E2F210032084002031C412F5E
:100E8000422F272F0D2F7A30F0009030F1002100F3
:100E90005D088F317927833170087104031D512F4C
:100EA000522F762F21003808220099002100C2011C
:100EB000C301632F3530890B5B2F00000130210007
:100EC000C2070030C33D4308803A2000D90021000A
:100ED0003708803A20005902031D712F210036087F
:100EE0004202031C742F752F5A2F0D2F7E30F000F5
:100EF0009030F10021005D088F317927833170082F
:100F00007104031D842F852FDA2E21003C08220056
:100F100099002100C401C501962F3530890B8E2F11
:100F2000000001302100C4070030C53D4508803A6B
:100F30002000D90021003B08803A20005902031DFF
:100F4000A42F21003A084402031CA72FA82F8D2F9D
:100F50000D2F01302100CC070030CD3D432E153040
:100F60002000C9009030CA00823139228331432BDE
:100F70000A302000C9009030CA0082313922833102
:100F8000432B21005808003A03194B2C013A03194E
:100F9000EB2C033A03194C2D013A0319552D073A4E
:100FA0000319902D013A0319CB2D033A0319062E8C
:100FB000013A0319412E0F3A0319432B013A031941
:100FC000432B023A0319B82F432B80310228D0302B
:100FD0008400203085002030FE000330FF008F3178
:100FE0001E27873120308400003085002930FE0024
:100FF0000030FF008F311E27873120008331252BE1
:101DF800FA007A0881310A218E3108002000911EEC
:101E0800062F072F022F230019080800F0002000D2
:101E1800111E0F2F102F0B2F700823009A00080097
:101E28008F3102278F31F10071088F310A278F31E6
:101E3800710808006400800101310130FE020030A1
:101E4800FF3B7F087E04031D1F2F003470302100E4
:101E5800990023008C018E01023021008C008E0134
:101E680020008C018E019030220098009901080012
:101E7800700884007108850000087206031D452F4C
:101E8800462F472F592F7108F5007008F400F00A03
:101E98000319F10A74088400750885001200031DEF
:101EA800562F572F3C2FF001F1010800F401F501DE
:101EB800701C5F2F602F642F7208F4077308F53DBC
:101EC8000130F235F30D890B652F0130F136F00C36
:101ED800890B6A2F70087104031D732F742F5C2FF0
:101EE8007508F1007408F0000800F400832F013031
:101EF800F2007208F4070130F0070030F13D740871
:101F080086008701700884007108850000080102B6
:101F1800F3007308031D912F922F9A2F74088600DF
:101F280087010108031D992F9A2F7B2F7308F00052
:101F3800F101F01BF1030800FD00FB01FC01AC2FCF
:101F48000130F9007908FD070130FB070030FC3D3E
:101F58007D088600870101080319B32FB42FCB2F02
:101F68007808F1007708F0007D08860087010108ED
:101F7800F900FA017908F2007A08F3008F313C275A
:101F88008F31700871040319CA2FCB2FA42F7C0836
:101F9800F8007B08F7000800FD00FB01FC01DC2FBE
:101FA8000130F9007908FD070130FB070030FC3DDE
:101FB8007D088600870101080319E32FE42FFB2F12
:101FC8007808F1007708F0007D088600870101088D
:101FD800F900FA017908F2007A08F3008F313C27FA
:101FE8008F3170087104031DFA2FFB2FD42F7C0842
:101FF800F8007B08F7000800013400340A34003484
:1020080064340034E8340334103427345634453407
:102018005234533449344F344E342034313430340C
:1020280000345F345F345F3450345F344F344B34A2
:102038000A34003453344134313420344F344B346F
:102048000A34003453344634313420344F344B345A
:102058000A34003453344134323420344F344B344E
:102068000A34003453344634323420344F344B3439
:102078000A34003453344134333420344F344B342D
:102088000A34003453344634333420344F344B3418
:102098000A34003453344634343420344F344B3407
:1020A8000A34003428346E3475346C346C34293472
:1020B8000034253464340A340034253473340A3443
:1020C80000345334413431340034533446343134D9
:1020D80000345334413432340034533446343234C7
:1020E80000345334413433340034533446343334B5
:1020F800003453344634343400344C34503445348A
:1021080000344C344534503400344C344434523464
:10211800003456344534523400344C344434533447
:0621280000342F340034E6
:020000040001F9
:08000000FF3FFF3FFF3FFF3F00
:04000E00840FFB1B45
:00000001FF
