:08000000803102288731FD2F39
:100E02002000911E052F062F012F2300190808002C
:100E1200873101278731F100710887311227873125
:100E22000800F0002000111E172F182F132F700832
:100E320023009A00080070302100990023008C01E1
:100E42008E01023021008C008E0120008C018E0167
:100E520090302200980099010800243023009E005F
:100E62009F1590309D0020002308F3002208F20015
:100E72002108F1002008F0000130F700E830F60008
:100E82004830F5000030F4008731A327873170081D
:100E92002000A4007108A5007208A6007308A7002C
:100EA2000230A736A60CA50CA40C890B522F2408DD
:100EB200FF3EA800FF30253DA900290823009C0021
:100EC2002000280823009B00080087311C27873157
:100ED20014303D00900001303C00A400003020009E
:100EE200A3000030A2002530A1008030A00087318D
:100EF2002E2787318731092787312000AB01AC01CA
:100F0200C830220099001A30890B852F0032220046
:100F120099011A30890B8B2F003201302000AB0768
:100F22000030AC3D2C08803AAA0081302A02031D11
:100F32009C2F00302B02031C9F2FA02F812F7B2F71
:100F4200803102280030FC000030FB000030FA0043
:100F52000030F90073087204710470040319B22F8F
:100F6200B32FF42FFD01FD0AC12F0130F035F10D31
:100F7200F20DF30D890BB72F0130F8007808FD0749
:100F8200F31FC42FC52FB62F0130F935FA0DFB0D13
:100F9200FC0D890BC62F73087702031DDA2F720826
:100FA2007602031DDA2F71087502031DDA2F70080D
:100FB2007402031CDD2FDE2FE72F7008F402710884
:100FC200F53B7208F63B7308F73B79140130F336B0
:100FD200F20CF10CF00C890BE82F0130FD02031D1D
:100FE200F32FF42FC52F7C08F3007B08F2007A0858
:0E0FF200F1007908F000080020008731662F1A
:020000040001F9
:08000000FF3FFF3FFF3FFF3F00
:04000E00840FFB1B45
:00000001FF
